{
	"MyLoop.sol": {
		"MyLoop": {
			"abi": [
				{
					"inputs": [],
					"name": "myLoop",
					"outputs": [],
					"stateMutability": "pure",
					"type": "function"
				}
			],
			"devdoc": {
				"kind": "dev",
				"methods": {},
				"version": 1
			},
			"evm": {
				"assembly": "    /* \"MyLoop.sol\":59:363  contract MyLoop {... */\n  mstore(0x40, 0x80)\n  callvalue\n  dup1\n  iszero\n  tag_1\n  jumpi\n  0x00\n  dup1\n  revert\ntag_1:\n  pop\n  dataSize(sub_0)\n  dup1\n  dataOffset(sub_0)\n  0x00\n  codecopy\n  0x00\n  return\nstop\n\nsub_0: assembly {\n        /* \"MyLoop.sol\":59:363  contract MyLoop {... */\n      mstore(0x40, 0x80)\n      callvalue\n      dup1\n      iszero\n      tag_1\n      jumpi\n      0x00\n      dup1\n      revert\n    tag_1:\n      pop\n      jumpi(tag_2, lt(calldatasize, 0x04))\n      shr(0xe0, calldataload(0x00))\n      dup1\n      0x0dd31794\n      eq\n      tag_3\n      jumpi\n    tag_2:\n      0x00\n      dup1\n      revert\n        /* \"MyLoop.sol\":81:349  function myLoop() public pure {... */\n    tag_3:\n      tag_4\n      tag_5\n      jump\t// in\n    tag_4:\n      stop\n    tag_5:\n        /* \"MyLoop.sol\":126:135  uint256 i */\n      0x00\n        /* \"MyLoop.sol\":121:293  for (uint256 i = 0; i < 5; i++) {... */\n    tag_7:\n        /* \"MyLoop.sol\":145:146  5 */\n      0x05\n        /* \"MyLoop.sol\":141:142  i */\n      dup2\n        /* \"MyLoop.sol\":141:146  i < 5 */\n      lt\n        /* \"MyLoop.sol\":121:293  for (uint256 i = 0; i < 5; i++) {... */\n      iszero\n      tag_8\n      jumpi\n        /* \"MyLoop.sol\":175:176  3 */\n      0x03\n        /* \"MyLoop.sol\":170:171  i */\n      dup2\n        /* \"MyLoop.sol\":170:176  i == 3 */\n      sub\n        /* \"MyLoop.sol\":167:216  if(i == 3) {... */\n      iszero\n        /* \"MyLoop.sol\":196:201  break */\n      tag_8\n        /* \"MyLoop.sol\":167:216  if(i == 3) {... */\n      jumpi\n        /* \"MyLoop.sol\":148:151  i++ */\n      dup1\n      dup1\n      tag_12\n      swap1\n      tag_13\n      jump\t// in\n    tag_12:\n      swap2\n      pop\n      pop\n        /* \"MyLoop.sol\":121:293  for (uint256 i = 0; i < 5; i++) {... */\n      jump(tag_7)\n    tag_8:\n      pop\n        /* \"MyLoop.sol\":302:311  uint256 j */\n      0x00\n        /* \"MyLoop.sol\":317:343  while(j < 10) {... */\n    tag_14:\n        /* \"MyLoop.sol\":327:329  10 */\n      0x0a\n        /* \"MyLoop.sol\":323:324  j */\n      dup2\n        /* \"MyLoop.sol\":323:329  j < 10 */\n      lt\n        /* \"MyLoop.sol\":317:343  while(j < 10) {... */\n      iszero\n      tag_15\n      jumpi\n        /* \"MyLoop.sol\":333:336  j++ */\n      dup1\n      dup1\n      tag_16\n      swap1\n      tag_13\n      jump\t// in\n    tag_16:\n      swap2\n      pop\n      pop\n        /* \"MyLoop.sol\":317:343  while(j < 10) {... */\n      jump(tag_14)\n    tag_15:\n        /* \"MyLoop.sol\":111:349  {... */\n      pop\n        /* \"MyLoop.sol\":81:349  function myLoop() public pure {... */\n      jump\t// out\n        /* \"#utility.yul\":7:187   */\n    tag_17:\n        /* \"#utility.yul\":55:132   */\n      0x4e487b7100000000000000000000000000000000000000000000000000000000\n        /* \"#utility.yul\":52:53   */\n      0x00\n        /* \"#utility.yul\":45:133   */\n      mstore\n        /* \"#utility.yul\":152:156   */\n      0x11\n        /* \"#utility.yul\":149:150   */\n      0x04\n        /* \"#utility.yul\":142:157   */\n      mstore\n        /* \"#utility.yul\":176:180   */\n      0x24\n        /* \"#utility.yul\":173:174   */\n      0x00\n        /* \"#utility.yul\":166:181   */\n      revert\n        /* \"#utility.yul\":193:270   */\n    tag_18:\n        /* \"#utility.yul\":230:237   */\n      0x00\n        /* \"#utility.yul\":259:264   */\n      dup2\n        /* \"#utility.yul\":248:264   */\n      swap1\n      pop\n        /* \"#utility.yul\":193:270   */\n      swap2\n      swap1\n      pop\n      jump\t// out\n        /* \"#utility.yul\":276:509   */\n    tag_13:\n        /* \"#utility.yul\":315:318   */\n      0x00\n        /* \"#utility.yul\":338:362   */\n      tag_23\n        /* \"#utility.yul\":356:361   */\n      dup3\n        /* \"#utility.yul\":338:362   */\n      tag_18\n      jump\t// in\n    tag_23:\n        /* \"#utility.yul\":329:362   */\n      swap2\n      pop\n        /* \"#utility.yul\":384:450   */\n      0xffffffffffffffffffffffffffffffffffffffffffffffffffffffffffffffff\n        /* \"#utility.yul\":377:382   */\n      dup3\n        /* \"#utility.yul\":374:451   */\n      sub\n        /* \"#utility.yul\":371:474   */\n      tag_24\n      jumpi\n        /* \"#utility.yul\":454:472   */\n      tag_25\n      tag_17\n      jump\t// in\n    tag_25:\n        /* \"#utility.yul\":371:474   */\n    tag_24:\n        /* \"#utility.yul\":501:502   */\n      0x01\n        /* \"#utility.yul\":494:499   */\n      dup3\n        /* \"#utility.yul\":490:503   */\n      add\n        /* \"#utility.yul\":483:503   */\n      swap1\n      pop\n        /* \"#utility.yul\":276:509   */\n      swap2\n      swap1\n      pop\n      jump\t// out\n\n    auxdata: 0xa26469706673582212206fe4ea57ba6e12250c5742493ee9bbd8e04f6fa43a83f7bb3783fe2ea728063664736f6c63430008120033\n}\n",
				"bytecode": {
					"linkReferences": {},
					"object": "608060405234801561001057600080fd5b50610129806100206000396000f3fe6080604052348015600f57600080fd5b506004361060285760003560e01c80630dd3179414602d575b600080fd5b60336035565b005b60005b60058110156058576003810315605857808060519060b0565b9150506038565b5060005b600a8110156074578080606d9060b0565b915050605c565b50565b7f4e487b7100000000000000000000000000000000000000000000000000000000600052601160045260246000fd5b6000819050919050565b600060b98260a6565b91507fffffffffffffffffffffffffffffffffffffffffffffffffffffffffffffffff820360e85760e76077565b5b60018201905091905056fea26469706673582212206fe4ea57ba6e12250c5742493ee9bbd8e04f6fa43a83f7bb3783fe2ea728063664736f6c63430008120033",
					"opcodes": "PUSH1 0x80 PUSH1 0x40 MSTORE CALLVALUE DUP1 ISZERO PUSH2 0x10 JUMPI PUSH1 0x0 DUP1 REVERT JUMPDEST POP PUSH2 0x129 DUP1 PUSH2 0x20 PUSH1 0x0 CODECOPY PUSH1 0x0 RETURN INVALID PUSH1 0x80 PUSH1 0x40 MSTORE CALLVALUE DUP1 ISZERO PUSH1 0xF JUMPI PUSH1 0x0 DUP1 REVERT JUMPDEST POP PUSH1 0x4 CALLDATASIZE LT PUSH1 0x28 JUMPI PUSH1 0x0 CALLDATALOAD PUSH1 0xE0 SHR DUP1 PUSH4 0xDD31794 EQ PUSH1 0x2D JUMPI JUMPDEST PUSH1 0x0 DUP1 REVERT JUMPDEST PUSH1 0x33 PUSH1 0x35 JUMP JUMPDEST STOP JUMPDEST PUSH1 0x0 JUMPDEST PUSH1 0x5 DUP2 LT ISZERO PUSH1 0x58 JUMPI PUSH1 0x3 DUP2 SUB ISZERO PUSH1 0x58 JUMPI DUP1 DUP1 PUSH1 0x51 SWAP1 PUSH1 0xB0 JUMP JUMPDEST SWAP2 POP POP PUSH1 0x38 JUMP JUMPDEST POP PUSH1 0x0 JUMPDEST PUSH1 0xA DUP2 LT ISZERO PUSH1 0x74 JUMPI DUP1 DUP1 PUSH1 0x6D SWAP1 PUSH1 0xB0 JUMP JUMPDEST SWAP2 POP POP PUSH1 0x5C JUMP JUMPDEST POP JUMP JUMPDEST PUSH32 0x4E487B7100000000000000000000000000000000000000000000000000000000 PUSH1 0x0 MSTORE PUSH1 0x11 PUSH1 0x4 MSTORE PUSH1 0x24 PUSH1 0x0 REVERT JUMPDEST PUSH1 0x0 DUP2 SWAP1 POP SWAP2 SWAP1 POP JUMP JUMPDEST PUSH1 0x0 PUSH1 0xB9 DUP3 PUSH1 0xA6 JUMP JUMPDEST SWAP2 POP PUSH32 0xFFFFFFFFFFFFFFFFFFFFFFFFFFFFFFFFFFFFFFFFFFFFFFFFFFFFFFFFFFFFFFFF DUP3 SUB PUSH1 0xE8 JUMPI PUSH1 0xE7 PUSH1 0x77 JUMP JUMPDEST JUMPDEST PUSH1 0x1 DUP3 ADD SWAP1 POP SWAP2 SWAP1 POP JUMP INVALID LOG2 PUSH5 0x6970667358 0x22 SLT KECCAK256 PUSH16 0xE4EA57BA6E12250C5742493EE9BBD8E0 0x4F PUSH16 0xA43A83F7BB3783FE2EA728063664736F PUSH13 0x63430008120033000000000000 "
				},
				"gasEstimates": {
					"creation": {
						"codeDepositCost": "59400",
						"executionCost": "111",
						"totalCost": "59511"
					},
					"external": {
						"myLoop()": "infinite"
					}
				},
				"methodIdentifiers": {
					"myLoop()": "0dd31794"
				}
			},
			"storageLayout": {
				"storage": [],
				"types": null
			},
			"userdoc": {
				"kind": "user",
				"methods": {},
				"version": 1
			}
		}
	}
}