{
	"MyFunctions.sol": {
		"MyFunctions": {
			"abi": [
				{
					"inputs": [],
					"name": "myNoReturnFunc",
					"outputs": [],
					"stateMutability": "nonpayable",
					"type": "function"
				},
				{
					"inputs": [
						{
							"internalType": "uint256",
							"name": "_x",
							"type": "uint256"
						},
						{
							"internalType": "uint256",
							"name": "_y",
							"type": "uint256"
						}
					],
					"name": "myPureFunc",
					"outputs": [
						{
							"internalType": "uint256",
							"name": "",
							"type": "uint256"
						}
					],
					"stateMutability": "pure",
					"type": "function"
				},
				{
					"inputs": [],
					"name": "myReturnFunc",
					"outputs": [
						{
							"internalType": "uint256",
							"name": "",
							"type": "uint256"
						},
						{
							"internalType": "string",
							"name": "",
							"type": "string"
						},
						{
							"internalType": "bool",
							"name": "",
							"type": "bool"
						},
						{
							"internalType": "uint256[]",
							"name": "",
							"type": "uint256[]"
						}
					],
					"stateMutability": "view",
					"type": "function"
				},
				{
					"inputs": [],
					"name": "myUpdateFunc",
					"outputs": [
						{
							"internalType": "string",
							"name": "",
							"type": "string"
						}
					],
					"stateMutability": "nonpayable",
					"type": "function"
				},
				{
					"inputs": [],
					"name": "myViewFunc",
					"outputs": [
						{
							"internalType": "string",
							"name": "",
							"type": "string"
						}
					],
					"stateMutability": "view",
					"type": "function"
				}
			],
			"devdoc": {
				"kind": "dev",
				"methods": {},
				"version": 1
			},
			"evm": {
				"assembly": "    /* \"MyFunctions.sol\":58:748  contract MyFunctions {... */\n  mstore(0x40, 0x80)\n    /* \"MyFunctions.sol\":102:106  4444 */\n  0x115c\n    /* \"MyFunctions.sol\":85:106  uint256 myUint = 4444 */\n  0x00\n  sstore\n    /* \"MyFunctions.sol\":112:138  string  myString = \"Akhil\" */\n  mload(0x40)\n  dup1\n  0x40\n  add\n  0x40\n  mstore\n  dup1\n  0x05\n  dup2\n  mstore\n  0x20\n  add\n  0x416b68696c000000000000000000000000000000000000000000000000000000\n  dup2\n  mstore\n  pop\n  0x01\n  swap1\n  dup2\n  tag_1\n  swap2\n  swap1\n  tag_2\n  jump\t// in\ntag_1:\n  pop\n    /* \"MyFunctions.sol\":158:162  true */\n  0x01\n    /* \"MyFunctions.sol\":144:162  bool myBool = true */\n  0x02\n  exp(0x0100, 0x00)\n  dup2\n  sload\n  dup2\n  0xff\n  mul\n  not\n  and\n  swap1\n  dup4\n  iszero\n  iszero\n  mul\n  or\n  swap1\n  sstore\n  pop\n    /* \"MyFunctions.sol\":168:198  uint256[] myArr = [1, 2, 3, 4] */\n  mload(0x40)\n  dup1\n  0x80\n  add\n  0x40\n  mstore\n  dup1\n    /* \"MyFunctions.sol\":187:188  1 */\n  0x01\n    /* \"MyFunctions.sol\":168:198  uint256[] myArr = [1, 2, 3, 4] */\n  0xff\n  and\n  dup2\n  mstore\n  0x20\n  add\n    /* \"MyFunctions.sol\":190:191  2 */\n  0x02\n    /* \"MyFunctions.sol\":168:198  uint256[] myArr = [1, 2, 3, 4] */\n  0xff\n  and\n  dup2\n  mstore\n  0x20\n  add\n    /* \"MyFunctions.sol\":193:194  3 */\n  0x03\n    /* \"MyFunctions.sol\":168:198  uint256[] myArr = [1, 2, 3, 4] */\n  0xff\n  and\n  dup2\n  mstore\n  0x20\n  add\n    /* \"MyFunctions.sol\":196:197  4 */\n  0x04\n    /* \"MyFunctions.sol\":168:198  uint256[] myArr = [1, 2, 3, 4] */\n  0xff\n  and\n  dup2\n  mstore\n  pop\n  0x03\n  swap1\n  0x04\n  tag_3\n  swap3\n  swap2\n  swap1\n  tag_4\n  jump\t// in\ntag_3:\n  pop\n    /* \"MyFunctions.sol\":58:748  contract MyFunctions {... */\n  callvalue\n  dup1\n  iszero\n  tag_5\n  jumpi\n  0x00\n  dup1\n  revert\ntag_5:\n  pop\n  jump(tag_6)\ntag_4:\n  dup3\n  dup1\n  sload\n  dup3\n  dup3\n  sstore\n  swap1\n  0x00\n  mstore\n  keccak256(0x00, 0x20)\n  swap1\n  dup2\n  add\n  swap3\n  dup3\n  iszero\n  tag_7\n  jumpi\n  swap2\n  0x20\n  mul\n  dup3\n  add\ntag_8:\n  dup3\n  dup2\n  gt\n  iszero\n  tag_9\n  jumpi\n  dup3\n  mload\n  dup3\n  swap1\n  0xff\n  and\n  swap1\n  sstore\n  swap2\n  0x20\n  add\n  swap2\n  swap1\n  0x01\n  add\n  swap1\n  jump(tag_8)\ntag_9:\ntag_7:\n  pop\n  swap1\n  pop\n  tag_10\n  swap2\n  swap1\n  tag_11\n  jump\t// in\ntag_10:\n  pop\n  swap1\n  jump\t// out\ntag_11:\ntag_12:\n  dup1\n  dup3\n  gt\n  iszero\n  tag_13\n  jumpi\n  0x00\n  dup2\n  0x00\n  swap1\n  sstore\n  pop\n  0x01\n  add\n  jump(tag_12)\ntag_13:\n  pop\n  swap1\n  jump\t// out\n    /* \"#utility.yul\":7:106   */\ntag_14:\n    /* \"#utility.yul\":59:65   */\n  0x00\n    /* \"#utility.yul\":93:98   */\n  dup2\n    /* \"#utility.yul\":87:99   */\n  mload\n    /* \"#utility.yul\":77:99   */\n  swap1\n  pop\n    /* \"#utility.yul\":7:106   */\n  swap2\n  swap1\n  pop\n  jump\t// out\n    /* \"#utility.yul\":112:292   */\ntag_15:\n    /* \"#utility.yul\":160:237   */\n  0x4e487b7100000000000000000000000000000000000000000000000000000000\n    /* \"#utility.yul\":157:158   */\n  0x00\n    /* \"#utility.yul\":150:238   */\n  mstore\n    /* \"#utility.yul\":257:261   */\n  0x41\n    /* \"#utility.yul\":254:255   */\n  0x04\n    /* \"#utility.yul\":247:262   */\n  mstore\n    /* \"#utility.yul\":281:285   */\n  0x24\n    /* \"#utility.yul\":278:279   */\n  0x00\n    /* \"#utility.yul\":271:286   */\n  revert\n    /* \"#utility.yul\":298:478   */\ntag_16:\n    /* \"#utility.yul\":346:423   */\n  0x4e487b7100000000000000000000000000000000000000000000000000000000\n    /* \"#utility.yul\":343:344   */\n  0x00\n    /* \"#utility.yul\":336:424   */\n  mstore\n    /* \"#utility.yul\":443:447   */\n  0x22\n    /* \"#utility.yul\":440:441   */\n  0x04\n    /* \"#utility.yul\":433:448   */\n  mstore\n    /* \"#utility.yul\":467:471   */\n  0x24\n    /* \"#utility.yul\":464:465   */\n  0x00\n    /* \"#utility.yul\":457:472   */\n  revert\n    /* \"#utility.yul\":484:804   */\ntag_17:\n    /* \"#utility.yul\":528:534   */\n  0x00\n    /* \"#utility.yul\":565:566   */\n  0x02\n    /* \"#utility.yul\":559:563   */\n  dup3\n    /* \"#utility.yul\":555:567   */\n  div\n    /* \"#utility.yul\":545:567   */\n  swap1\n  pop\n    /* \"#utility.yul\":612:613   */\n  0x01\n    /* \"#utility.yul\":606:610   */\n  dup3\n    /* \"#utility.yul\":602:614   */\n  and\n    /* \"#utility.yul\":633:651   */\n  dup1\n    /* \"#utility.yul\":623:704   */\n  tag_39\n  jumpi\n    /* \"#utility.yul\":689:693   */\n  0x7f\n    /* \"#utility.yul\":681:687   */\n  dup3\n    /* \"#utility.yul\":677:694   */\n  and\n    /* \"#utility.yul\":667:694   */\n  swap2\n  pop\n    /* \"#utility.yul\":623:704   */\ntag_39:\n    /* \"#utility.yul\":751:753   */\n  0x20\n    /* \"#utility.yul\":743:749   */\n  dup3\n    /* \"#utility.yul\":740:754   */\n  lt\n    /* \"#utility.yul\":720:738   */\n  dup2\n    /* \"#utility.yul\":717:755   */\n  sub\n    /* \"#utility.yul\":714:798   */\n  tag_40\n  jumpi\n    /* \"#utility.yul\":770:788   */\n  tag_41\n  tag_16\n  jump\t// in\ntag_41:\n    /* \"#utility.yul\":714:798   */\ntag_40:\n    /* \"#utility.yul\":535:804   */\n  pop\n    /* \"#utility.yul\":484:804   */\n  swap2\n  swap1\n  pop\n  jump\t// out\n    /* \"#utility.yul\":810:951   */\ntag_18:\n    /* \"#utility.yul\":859:863   */\n  0x00\n    /* \"#utility.yul\":882:885   */\n  dup2\n    /* \"#utility.yul\":874:885   */\n  swap1\n  pop\n    /* \"#utility.yul\":905:908   */\n  dup2\n    /* \"#utility.yul\":902:903   */\n  0x00\n    /* \"#utility.yul\":895:909   */\n  mstore\n    /* \"#utility.yul\":939:943   */\n  0x20\n    /* \"#utility.yul\":936:937   */\n  0x00\n    /* \"#utility.yul\":926:944   */\n  keccak256\n    /* \"#utility.yul\":918:944   */\n  swap1\n  pop\n    /* \"#utility.yul\":810:951   */\n  swap2\n  swap1\n  pop\n  jump\t// out\n    /* \"#utility.yul\":957:1050   */\ntag_19:\n    /* \"#utility.yul\":994:1000   */\n  0x00\n    /* \"#utility.yul\":1041:1043   */\n  0x20\n    /* \"#utility.yul\":1036:1038   */\n  0x1f\n    /* \"#utility.yul\":1029:1034   */\n  dup4\n    /* \"#utility.yul\":1025:1039   */\n  add\n    /* \"#utility.yul\":1021:1044   */\n  div\n    /* \"#utility.yul\":1011:1044   */\n  swap1\n  pop\n    /* \"#utility.yul\":957:1050   */\n  swap2\n  swap1\n  pop\n  jump\t// out\n    /* \"#utility.yul\":1056:1163   */\ntag_20:\n    /* \"#utility.yul\":1100:1108   */\n  0x00\n    /* \"#utility.yul\":1150:1155   */\n  dup3\n    /* \"#utility.yul\":1144:1148   */\n  dup3\n    /* \"#utility.yul\":1140:1156   */\n  shl\n    /* \"#utility.yul\":1119:1156   */\n  swap1\n  pop\n    /* \"#utility.yul\":1056:1163   */\n  swap3\n  swap2\n  pop\n  pop\n  jump\t// out\n    /* \"#utility.yul\":1169:1562   */\ntag_21:\n    /* \"#utility.yul\":1238:1244   */\n  0x00\n    /* \"#utility.yul\":1288:1289   */\n  0x08\n    /* \"#utility.yul\":1276:1286   */\n  dup4\n    /* \"#utility.yul\":1272:1290   */\n  mul\n    /* \"#utility.yul\":1311:1408   */\n  tag_46\n    /* \"#utility.yul\":1341:1407   */\n  0xffffffffffffffffffffffffffffffffffffffffffffffffffffffffffffffff\n    /* \"#utility.yul\":1330:1339   */\n  dup3\n    /* \"#utility.yul\":1311:1408   */\n  tag_20\n  jump\t// in\ntag_46:\n    /* \"#utility.yul\":1429:1468   */\n  tag_47\n    /* \"#utility.yul\":1459:1467   */\n  dup7\n    /* \"#utility.yul\":1448:1457   */\n  dup4\n    /* \"#utility.yul\":1429:1468   */\n  tag_20\n  jump\t// in\ntag_47:\n    /* \"#utility.yul\":1417:1468   */\n  swap6\n  pop\n    /* \"#utility.yul\":1501:1505   */\n  dup1\n    /* \"#utility.yul\":1497:1506   */\n  not\n    /* \"#utility.yul\":1490:1495   */\n  dup5\n    /* \"#utility.yul\":1486:1507   */\n  and\n    /* \"#utility.yul\":1477:1507   */\n  swap4\n  pop\n    /* \"#utility.yul\":1550:1554   */\n  dup1\n    /* \"#utility.yul\":1540:1548   */\n  dup7\n    /* \"#utility.yul\":1536:1555   */\n  and\n    /* \"#utility.yul\":1529:1534   */\n  dup5\n    /* \"#utility.yul\":1526:1556   */\n  or\n    /* \"#utility.yul\":1516:1556   */\n  swap3\n  pop\n    /* \"#utility.yul\":1245:1562   */\n  pop\n  pop\n    /* \"#utility.yul\":1169:1562   */\n  swap4\n  swap3\n  pop\n  pop\n  pop\n  jump\t// out\n    /* \"#utility.yul\":1568:1645   */\ntag_22:\n    /* \"#utility.yul\":1605:1612   */\n  0x00\n    /* \"#utility.yul\":1634:1639   */\n  dup2\n    /* \"#utility.yul\":1623:1639   */\n  swap1\n  pop\n    /* \"#utility.yul\":1568:1645   */\n  swap2\n  swap1\n  pop\n  jump\t// out\n    /* \"#utility.yul\":1651:1711   */\ntag_23:\n    /* \"#utility.yul\":1679:1682   */\n  0x00\n    /* \"#utility.yul\":1700:1705   */\n  dup2\n    /* \"#utility.yul\":1693:1705   */\n  swap1\n  pop\n    /* \"#utility.yul\":1651:1711   */\n  swap2\n  swap1\n  pop\n  jump\t// out\n    /* \"#utility.yul\":1717:1859   */\ntag_24:\n    /* \"#utility.yul\":1767:1776   */\n  0x00\n    /* \"#utility.yul\":1800:1853   */\n  tag_51\n    /* \"#utility.yul\":1818:1852   */\n  tag_52\n    /* \"#utility.yul\":1827:1851   */\n  tag_53\n    /* \"#utility.yul\":1845:1850   */\n  dup5\n    /* \"#utility.yul\":1827:1851   */\n  tag_22\n  jump\t// in\ntag_53:\n    /* \"#utility.yul\":1818:1852   */\n  tag_23\n  jump\t// in\ntag_52:\n    /* \"#utility.yul\":1800:1853   */\n  tag_22\n  jump\t// in\ntag_51:\n    /* \"#utility.yul\":1787:1853   */\n  swap1\n  pop\n    /* \"#utility.yul\":1717:1859   */\n  swap2\n  swap1\n  pop\n  jump\t// out\n    /* \"#utility.yul\":1865:1940   */\ntag_25:\n    /* \"#utility.yul\":1908:1911   */\n  0x00\n    /* \"#utility.yul\":1929:1934   */\n  dup2\n    /* \"#utility.yul\":1922:1934   */\n  swap1\n  pop\n    /* \"#utility.yul\":1865:1940   */\n  swap2\n  swap1\n  pop\n  jump\t// out\n    /* \"#utility.yul\":1946:2215   */\ntag_26:\n    /* \"#utility.yul\":2056:2095   */\n  tag_56\n    /* \"#utility.yul\":2087:2094   */\n  dup4\n    /* \"#utility.yul\":2056:2095   */\n  tag_24\n  jump\t// in\ntag_56:\n    /* \"#utility.yul\":2117:2208   */\n  tag_57\n    /* \"#utility.yul\":2166:2207   */\n  tag_58\n    /* \"#utility.yul\":2190:2206   */\n  dup3\n    /* \"#utility.yul\":2166:2207   */\n  tag_25\n  jump\t// in\ntag_58:\n    /* \"#utility.yul\":2158:2164   */\n  dup5\n    /* \"#utility.yul\":2151:2155   */\n  dup5\n    /* \"#utility.yul\":2145:2156   */\n  sload\n    /* \"#utility.yul\":2117:2208   */\n  tag_21\n  jump\t// in\ntag_57:\n    /* \"#utility.yul\":2111:2115   */\n  dup3\n    /* \"#utility.yul\":2104:2209   */\n  sstore\n    /* \"#utility.yul\":2022:2215   */\n  pop\n    /* \"#utility.yul\":1946:2215   */\n  pop\n  pop\n  pop\n  jump\t// out\n    /* \"#utility.yul\":2221:2294   */\ntag_27:\n    /* \"#utility.yul\":2266:2269   */\n  0x00\n    /* \"#utility.yul\":2221:2294   */\n  swap1\n  jump\t// out\n    /* \"#utility.yul\":2300:2489   */\ntag_28:\n    /* \"#utility.yul\":2377:2409   */\n  tag_61\n  tag_27\n  jump\t// in\ntag_61:\n    /* \"#utility.yul\":2418:2483   */\n  tag_62\n    /* \"#utility.yul\":2476:2482   */\n  dup2\n    /* \"#utility.yul\":2468:2474   */\n  dup5\n    /* \"#utility.yul\":2462:2466   */\n  dup5\n    /* \"#utility.yul\":2418:2483   */\n  tag_26\n  jump\t// in\ntag_62:\n    /* \"#utility.yul\":2353:2489   */\n  pop\n    /* \"#utility.yul\":2300:2489   */\n  pop\n  pop\n  jump\t// out\n    /* \"#utility.yul\":2495:2681   */\ntag_29:\n    /* \"#utility.yul\":2555:2675   */\ntag_64:\n    /* \"#utility.yul\":2572:2575   */\n  dup2\n    /* \"#utility.yul\":2565:2570   */\n  dup2\n    /* \"#utility.yul\":2562:2576   */\n  lt\n    /* \"#utility.yul\":2555:2675   */\n  iszero\n  tag_66\n  jumpi\n    /* \"#utility.yul\":2626:2665   */\n  tag_67\n    /* \"#utility.yul\":2663:2664   */\n  0x00\n    /* \"#utility.yul\":2656:2661   */\n  dup3\n    /* \"#utility.yul\":2626:2665   */\n  tag_28\n  jump\t// in\ntag_67:\n    /* \"#utility.yul\":2599:2600   */\n  0x01\n    /* \"#utility.yul\":2592:2597   */\n  dup2\n    /* \"#utility.yul\":2588:2601   */\n  add\n    /* \"#utility.yul\":2579:2601   */\n  swap1\n  pop\n    /* \"#utility.yul\":2555:2675   */\n  jump(tag_64)\ntag_66:\n    /* \"#utility.yul\":2495:2681   */\n  pop\n  pop\n  jump\t// out\n    /* \"#utility.yul\":2687:3230   */\ntag_30:\n    /* \"#utility.yul\":2788:2790   */\n  0x1f\n    /* \"#utility.yul\":2783:2786   */\n  dup3\n    /* \"#utility.yul\":2780:2791   */\n  gt\n    /* \"#utility.yul\":2777:3223   */\n  iszero\n  tag_69\n  jumpi\n    /* \"#utility.yul\":2822:2860   */\n  tag_70\n    /* \"#utility.yul\":2854:2859   */\n  dup2\n    /* \"#utility.yul\":2822:2860   */\n  tag_18\n  jump\t// in\ntag_70:\n    /* \"#utility.yul\":2906:2935   */\n  tag_71\n    /* \"#utility.yul\":2924:2934   */\n  dup5\n    /* \"#utility.yul\":2906:2935   */\n  tag_19\n  jump\t// in\ntag_71:\n    /* \"#utility.yul\":2896:2904   */\n  dup2\n    /* \"#utility.yul\":2892:2936   */\n  add\n    /* \"#utility.yul\":3089:3091   */\n  0x20\n    /* \"#utility.yul\":3077:3087   */\n  dup6\n    /* \"#utility.yul\":3074:3092   */\n  lt\n    /* \"#utility.yul\":3071:3120   */\n  iszero\n  tag_72\n  jumpi\n    /* \"#utility.yul\":3110:3118   */\n  dup2\n    /* \"#utility.yul\":3095:3118   */\n  swap1\n  pop\n    /* \"#utility.yul\":3071:3120   */\ntag_72:\n    /* \"#utility.yul\":3133:3213   */\n  tag_73\n    /* \"#utility.yul\":3189:3211   */\n  tag_74\n    /* \"#utility.yul\":3207:3210   */\n  dup6\n    /* \"#utility.yul\":3189:3211   */\n  tag_19\n  jump\t// in\ntag_74:\n    /* \"#utility.yul\":3179:3187   */\n  dup4\n    /* \"#utility.yul\":3175:3212   */\n  add\n    /* \"#utility.yul\":3162:3173   */\n  dup3\n    /* \"#utility.yul\":3133:3213   */\n  tag_29\n  jump\t// in\ntag_73:\n    /* \"#utility.yul\":2792:3223   */\n  pop\n  pop\n    /* \"#utility.yul\":2777:3223   */\ntag_69:\n    /* \"#utility.yul\":2687:3230   */\n  pop\n  pop\n  pop\n  jump\t// out\n    /* \"#utility.yul\":3236:3353   */\ntag_31:\n    /* \"#utility.yul\":3290:3298   */\n  0x00\n    /* \"#utility.yul\":3340:3345   */\n  dup3\n    /* \"#utility.yul\":3334:3338   */\n  dup3\n    /* \"#utility.yul\":3330:3346   */\n  shr\n    /* \"#utility.yul\":3309:3346   */\n  swap1\n  pop\n    /* \"#utility.yul\":3236:3353   */\n  swap3\n  swap2\n  pop\n  pop\n  jump\t// out\n    /* \"#utility.yul\":3359:3528   */\ntag_32:\n    /* \"#utility.yul\":3403:3409   */\n  0x00\n    /* \"#utility.yul\":3436:3487   */\n  tag_77\n    /* \"#utility.yul\":3484:3485   */\n  0x00\n    /* \"#utility.yul\":3480:3486   */\n  not\n    /* \"#utility.yul\":3472:3477   */\n  dup5\n    /* \"#utility.yul\":3469:3470   */\n  0x08\n    /* \"#utility.yul\":3465:3478   */\n  mul\n    /* \"#utility.yul\":3436:3487   */\n  tag_31\n  jump\t// in\ntag_77:\n    /* \"#utility.yul\":3432:3488   */\n  not\n    /* \"#utility.yul\":3517:3521   */\n  dup1\n    /* \"#utility.yul\":3511:3515   */\n  dup4\n    /* \"#utility.yul\":3507:3522   */\n  and\n    /* \"#utility.yul\":3497:3522   */\n  swap2\n  pop\n    /* \"#utility.yul\":3410:3528   */\n  pop\n    /* \"#utility.yul\":3359:3528   */\n  swap3\n  swap2\n  pop\n  pop\n  jump\t// out\n    /* \"#utility.yul\":3533:3828   */\ntag_33:\n    /* \"#utility.yul\":3609:3613   */\n  0x00\n    /* \"#utility.yul\":3755:3784   */\n  tag_79\n    /* \"#utility.yul\":3780:3783   */\n  dup4\n    /* \"#utility.yul\":3774:3778   */\n  dup4\n    /* \"#utility.yul\":3755:3784   */\n  tag_32\n  jump\t// in\ntag_79:\n    /* \"#utility.yul\":3747:3784   */\n  swap2\n  pop\n    /* \"#utility.yul\":3817:3820   */\n  dup3\n    /* \"#utility.yul\":3814:3815   */\n  0x02\n    /* \"#utility.yul\":3810:3821   */\n  mul\n    /* \"#utility.yul\":3804:3808   */\n  dup3\n    /* \"#utility.yul\":3801:3822   */\n  or\n    /* \"#utility.yul\":3793:3822   */\n  swap1\n  pop\n    /* \"#utility.yul\":3533:3828   */\n  swap3\n  swap2\n  pop\n  pop\n  jump\t// out\n    /* \"#utility.yul\":3833:5228   */\ntag_2:\n    /* \"#utility.yul\":3950:3987   */\n  tag_81\n    /* \"#utility.yul\":3983:3986   */\n  dup3\n    /* \"#utility.yul\":3950:3987   */\n  tag_14\n  jump\t// in\ntag_81:\n    /* \"#utility.yul\":4052:4070   */\n  0xffffffffffffffff\n    /* \"#utility.yul\":4044:4050   */\n  dup2\n    /* \"#utility.yul\":4041:4071   */\n  gt\n    /* \"#utility.yul\":4038:4094   */\n  iszero\n  tag_82\n  jumpi\n    /* \"#utility.yul\":4074:4092   */\n  tag_83\n  tag_15\n  jump\t// in\ntag_83:\n    /* \"#utility.yul\":4038:4094   */\ntag_82:\n    /* \"#utility.yul\":4118:4156   */\n  tag_84\n    /* \"#utility.yul\":4150:4154   */\n  dup3\n    /* \"#utility.yul\":4144:4155   */\n  sload\n    /* \"#utility.yul\":4118:4156   */\n  tag_17\n  jump\t// in\ntag_84:\n    /* \"#utility.yul\":4203:4270   */\n  tag_85\n    /* \"#utility.yul\":4263:4269   */\n  dup3\n    /* \"#utility.yul\":4255:4261   */\n  dup3\n    /* \"#utility.yul\":4249:4253   */\n  dup6\n    /* \"#utility.yul\":4203:4270   */\n  tag_30\n  jump\t// in\ntag_85:\n    /* \"#utility.yul\":4297:4298   */\n  0x00\n    /* \"#utility.yul\":4321:4325   */\n  0x20\n    /* \"#utility.yul\":4308:4325   */\n  swap1\n  pop\n    /* \"#utility.yul\":4353:4355   */\n  0x1f\n    /* \"#utility.yul\":4345:4351   */\n  dup4\n    /* \"#utility.yul\":4342:4356   */\n  gt\n    /* \"#utility.yul\":4370:4371   */\n  0x01\n    /* \"#utility.yul\":4365:4983   */\n  dup2\n  eq\n  tag_87\n  jumpi\n    /* \"#utility.yul\":5027:5028   */\n  0x00\n    /* \"#utility.yul\":5044:5050   */\n  dup5\n    /* \"#utility.yul\":5041:5118   */\n  iszero\n  tag_88\n  jumpi\n    /* \"#utility.yul\":5093:5102   */\n  dup3\n    /* \"#utility.yul\":5088:5091   */\n  dup8\n    /* \"#utility.yul\":5084:5103   */\n  add\n    /* \"#utility.yul\":5078:5104   */\n  mload\n    /* \"#utility.yul\":5069:5104   */\n  swap1\n  pop\n    /* \"#utility.yul\":5041:5118   */\ntag_88:\n    /* \"#utility.yul\":5144:5211   */\n  tag_89\n    /* \"#utility.yul\":5204:5210   */\n  dup6\n    /* \"#utility.yul\":5197:5202   */\n  dup3\n    /* \"#utility.yul\":5144:5211   */\n  tag_33\n  jump\t// in\ntag_89:\n    /* \"#utility.yul\":5138:5142   */\n  dup7\n    /* \"#utility.yul\":5131:5212   */\n  sstore\n    /* \"#utility.yul\":5000:5222   */\n  pop\n    /* \"#utility.yul\":4335:5222   */\n  jump(tag_86)\n    /* \"#utility.yul\":4365:4983   */\ntag_87:\n    /* \"#utility.yul\":4417:4421   */\n  0x1f\n    /* \"#utility.yul\":4413:4422   */\n  not\n    /* \"#utility.yul\":4405:4411   */\n  dup5\n    /* \"#utility.yul\":4401:4423   */\n  and\n    /* \"#utility.yul\":4451:4488   */\n  tag_90\n    /* \"#utility.yul\":4483:4487   */\n  dup7\n    /* \"#utility.yul\":4451:4488   */\n  tag_18\n  jump\t// in\ntag_90:\n    /* \"#utility.yul\":4510:4511   */\n  0x00\n    /* \"#utility.yul\":4524:4732   */\ntag_91:\n    /* \"#utility.yul\":4538:4545   */\n  dup3\n    /* \"#utility.yul\":4535:4536   */\n  dup2\n    /* \"#utility.yul\":4532:4546   */\n  lt\n    /* \"#utility.yul\":4524:4732   */\n  iszero\n  tag_93\n  jumpi\n    /* \"#utility.yul\":4617:4626   */\n  dup5\n    /* \"#utility.yul\":4612:4615   */\n  dup10\n    /* \"#utility.yul\":4608:4627   */\n  add\n    /* \"#utility.yul\":4602:4628   */\n  mload\n    /* \"#utility.yul\":4594:4600   */\n  dup3\n    /* \"#utility.yul\":4587:4629   */\n  sstore\n    /* \"#utility.yul\":4668:4669   */\n  0x01\n    /* \"#utility.yul\":4660:4666   */\n  dup3\n    /* \"#utility.yul\":4656:4670   */\n  add\n    /* \"#utility.yul\":4646:4670   */\n  swap2\n  pop\n    /* \"#utility.yul\":4715:4717   */\n  0x20\n    /* \"#utility.yul\":4704:4713   */\n  dup6\n    /* \"#utility.yul\":4700:4718   */\n  add\n    /* \"#utility.yul\":4687:4718   */\n  swap5\n  pop\n    /* \"#utility.yul\":4561:4565   */\n  0x20\n    /* \"#utility.yul\":4558:4559   */\n  dup2\n    /* \"#utility.yul\":4554:4566   */\n  add\n    /* \"#utility.yul\":4549:4566   */\n  swap1\n  pop\n    /* \"#utility.yul\":4524:4732   */\n  jump(tag_91)\ntag_93:\n    /* \"#utility.yul\":4760:4766   */\n  dup7\n    /* \"#utility.yul\":4751:4758   */\n  dup4\n    /* \"#utility.yul\":4748:4767   */\n  lt\n    /* \"#utility.yul\":4745:4924   */\n  iszero\n  tag_94\n  jumpi\n    /* \"#utility.yul\":4818:4827   */\n  dup5\n    /* \"#utility.yul\":4813:4816   */\n  dup10\n    /* \"#utility.yul\":4809:4828   */\n  add\n    /* \"#utility.yul\":4803:4829   */\n  mload\n    /* \"#utility.yul\":4861:4909   */\n  tag_95\n    /* \"#utility.yul\":4903:4907   */\n  0x1f\n    /* \"#utility.yul\":4895:4901   */\n  dup10\n    /* \"#utility.yul\":4891:4908   */\n  and\n    /* \"#utility.yul\":4880:4889   */\n  dup3\n    /* \"#utility.yul\":4861:4909   */\n  tag_32\n  jump\t// in\ntag_95:\n    /* \"#utility.yul\":4853:4859   */\n  dup4\n    /* \"#utility.yul\":4846:4910   */\n  sstore\n    /* \"#utility.yul\":4768:4924   */\n  pop\n    /* \"#utility.yul\":4745:4924   */\ntag_94:\n    /* \"#utility.yul\":4970:4971   */\n  0x01\n    /* \"#utility.yul\":4966:4967   */\n  0x02\n    /* \"#utility.yul\":4958:4964   */\n  dup9\n    /* \"#utility.yul\":4954:4968   */\n  mul\n    /* \"#utility.yul\":4950:4972   */\n  add\n    /* \"#utility.yul\":4944:4948   */\n  dup9\n    /* \"#utility.yul\":4937:4973   */\n  sstore\n    /* \"#utility.yul\":4372:4983   */\n  pop\n  pop\n  pop\n    /* \"#utility.yul\":4335:5222   */\ntag_86:\n  pop\n    /* \"#utility.yul\":3925:5228   */\n  pop\n  pop\n  pop\n    /* \"#utility.yul\":3833:5228   */\n  pop\n  pop\n  jump\t// out\n    /* \"MyFunctions.sol\":58:748  contract MyFunctions {... */\ntag_6:\n  dataSize(sub_0)\n  dup1\n  dataOffset(sub_0)\n  0x00\n  codecopy\n  0x00\n  return\nstop\n\nsub_0: assembly {\n        /* \"MyFunctions.sol\":58:748  contract MyFunctions {... */\n      mstore(0x40, 0x80)\n      callvalue\n      dup1\n      iszero\n      tag_1\n      jumpi\n      0x00\n      dup1\n      revert\n    tag_1:\n      pop\n      jumpi(tag_2, lt(calldatasize, 0x04))\n      shr(0xe0, calldataload(0x00))\n      dup1\n      0x3dfb1546\n      eq\n      tag_3\n      jumpi\n      dup1\n      0x65449b73\n      eq\n      tag_4\n      jumpi\n      dup1\n      0x9e5ddd8b\n      eq\n      tag_5\n      jumpi\n      dup1\n      0xb8e53235\n      eq\n      tag_6\n      jumpi\n      dup1\n      0xfe3f60db\n      eq\n      tag_7\n      jumpi\n    tag_2:\n      0x00\n      dup1\n      revert\n        /* \"MyFunctions.sol\":403:517  function myUpdateFunc() public returns(string memory) {... */\n    tag_3:\n      tag_8\n      tag_9\n      jump\t// in\n    tag_8:\n      mload(0x40)\n      tag_10\n      swap2\n      swap1\n      tag_11\n      jump\t// in\n    tag_10:\n      mload(0x40)\n      dup1\n      swap2\n      sub\n      swap1\n      return\n        /* \"MyFunctions.sol\":308:397  function myViewFunc() public view returns(string memory) {... */\n    tag_4:\n      tag_12\n      tag_13\n      jump\t// in\n    tag_12:\n      mload(0x40)\n      tag_14\n      swap2\n      swap1\n      tag_11\n      jump\t// in\n    tag_14:\n      mload(0x40)\n      dup1\n      swap2\n      sub\n      swap1\n      return\n        /* \"MyFunctions.sol\":205:302  function myPureFunc(uint256 _x, uint256 _y) public pure returns(uint256) {... */\n    tag_5:\n      tag_15\n      0x04\n      dup1\n      calldatasize\n      sub\n      dup2\n      add\n      swap1\n      tag_16\n      swap2\n      swap1\n      tag_17\n      jump\t// in\n    tag_16:\n      tag_18\n      jump\t// in\n    tag_15:\n      mload(0x40)\n      tag_19\n      swap2\n      swap1\n      tag_20\n      jump\t// in\n    tag_19:\n      mload(0x40)\n      dup1\n      swap2\n      sub\n      swap1\n      return\n        /* \"MyFunctions.sol\":523:674  function myReturnFunc() external view returns(uint256, string memory, bool, uint256[] memory) {... */\n    tag_6:\n      tag_21\n      tag_22\n      jump\t// in\n    tag_21:\n      mload(0x40)\n      tag_23\n      swap5\n      swap4\n      swap3\n      swap2\n      swap1\n      tag_24\n      jump\t// in\n    tag_23:\n      mload(0x40)\n      dup1\n      swap2\n      sub\n      swap1\n      return\n        /* \"MyFunctions.sol\":680:746  function myNoReturnFunc() external {... */\n    tag_7:\n      tag_25\n      tag_26\n      jump\t// in\n    tag_25:\n      stop\n        /* \"MyFunctions.sol\":403:517  function myUpdateFunc() public returns(string memory) {... */\n    tag_9:\n        /* \"MyFunctions.sol\":442:455  string memory */\n      0x60\n        /* \"MyFunctions.sol\":467:485  myString = \"Akhil\" */\n      mload(0x40)\n      dup1\n      0x40\n      add\n      0x40\n      mstore\n      dup1\n      0x05\n      dup2\n      mstore\n      0x20\n      add\n      0x416b68696c000000000000000000000000000000000000000000000000000000\n      dup2\n      mstore\n      pop\n        /* \"MyFunctions.sol\":467:475  myString */\n      0x01\n        /* \"MyFunctions.sol\":467:485  myString = \"Akhil\" */\n      swap1\n      dup2\n      tag_28\n      swap2\n      swap1\n      tag_29\n      jump\t// in\n    tag_28:\n      pop\n        /* \"MyFunctions.sol\":502:510  myString */\n      0x01\n        /* \"MyFunctions.sol\":495:510  return myString */\n      dup1\n      sload\n      tag_30\n      swap1\n      tag_31\n      jump\t// in\n    tag_30:\n      dup1\n      0x1f\n      add\n      0x20\n      dup1\n      swap2\n      div\n      mul\n      0x20\n      add\n      mload(0x40)\n      swap1\n      dup2\n      add\n      0x40\n      mstore\n      dup1\n      swap3\n      swap2\n      swap1\n      dup2\n      dup2\n      mstore\n      0x20\n      add\n      dup3\n      dup1\n      sload\n      tag_32\n      swap1\n      tag_31\n      jump\t// in\n    tag_32:\n      dup1\n      iszero\n      tag_33\n      jumpi\n      dup1\n      0x1f\n      lt\n      tag_34\n      jumpi\n      0x0100\n      dup1\n      dup4\n      sload\n      div\n      mul\n      dup4\n      mstore\n      swap2\n      0x20\n      add\n      swap2\n      jump(tag_33)\n    tag_34:\n      dup3\n      add\n      swap2\n      swap1\n      0x00\n      mstore\n      keccak256(0x00, 0x20)\n      swap1\n    tag_35:\n      dup2\n      sload\n      dup2\n      mstore\n      swap1\n      0x01\n      add\n      swap1\n      0x20\n      add\n      dup1\n      dup4\n      gt\n      tag_35\n      jumpi\n      dup3\n      swap1\n      sub\n      0x1f\n      and\n      dup3\n      add\n      swap2\n    tag_33:\n      pop\n      pop\n      pop\n      pop\n      pop\n      swap1\n      pop\n        /* \"MyFunctions.sol\":403:517  function myUpdateFunc() public returns(string memory) {... */\n      swap1\n      jump\t// out\n        /* \"MyFunctions.sol\":308:397  function myViewFunc() public view returns(string memory) {... */\n    tag_13:\n        /* \"MyFunctions.sol\":350:363  string memory */\n      0x60\n        /* \"MyFunctions.sol\":382:390  myString */\n      0x01\n        /* \"MyFunctions.sol\":375:390  return myString */\n      dup1\n      sload\n      tag_37\n      swap1\n      tag_31\n      jump\t// in\n    tag_37:\n      dup1\n      0x1f\n      add\n      0x20\n      dup1\n      swap2\n      div\n      mul\n      0x20\n      add\n      mload(0x40)\n      swap1\n      dup2\n      add\n      0x40\n      mstore\n      dup1\n      swap3\n      swap2\n      swap1\n      dup2\n      dup2\n      mstore\n      0x20\n      add\n      dup3\n      dup1\n      sload\n      tag_38\n      swap1\n      tag_31\n      jump\t// in\n    tag_38:\n      dup1\n      iszero\n      tag_39\n      jumpi\n      dup1\n      0x1f\n      lt\n      tag_40\n      jumpi\n      0x0100\n      dup1\n      dup4\n      sload\n      div\n      mul\n      dup4\n      mstore\n      swap2\n      0x20\n      add\n      swap2\n      jump(tag_39)\n    tag_40:\n      dup3\n      add\n      swap2\n      swap1\n      0x00\n      mstore\n      keccak256(0x00, 0x20)\n      swap1\n    tag_41:\n      dup2\n      sload\n      dup2\n      mstore\n      swap1\n      0x01\n      add\n      swap1\n      0x20\n      add\n      dup1\n      dup4\n      gt\n      tag_41\n      jumpi\n      dup3\n      swap1\n      sub\n      0x1f\n      and\n      dup3\n      add\n      swap2\n    tag_39:\n      pop\n      pop\n      pop\n      pop\n      pop\n      swap1\n      pop\n        /* \"MyFunctions.sol\":308:397  function myViewFunc() public view returns(string memory) {... */\n      swap1\n      jump\t// out\n        /* \"MyFunctions.sol\":205:302  function myPureFunc(uint256 _x, uint256 _y) public pure returns(uint256) {... */\n    tag_18:\n        /* \"MyFunctions.sol\":269:276  uint256 */\n      0x00\n        /* \"MyFunctions.sol\":292:294  _y */\n      dup2\n        /* \"MyFunctions.sol\":287:289  _x */\n      dup4\n        /* \"MyFunctions.sol\":287:294  _x + _y */\n      tag_43\n      swap2\n      swap1\n      tag_44\n      jump\t// in\n    tag_43:\n        /* \"MyFunctions.sol\":280:294  return _x + _y */\n      swap1\n      pop\n        /* \"MyFunctions.sol\":205:302  function myPureFunc(uint256 _x, uint256 _y) public pure returns(uint256) {... */\n      swap3\n      swap2\n      pop\n      pop\n      jump\t// out\n        /* \"MyFunctions.sol\":523:674  function myReturnFunc() external view returns(uint256, string memory, bool, uint256[] memory) {... */\n    tag_22:\n        /* \"MyFunctions.sol\":569:576  uint256 */\n      0x00\n        /* \"MyFunctions.sol\":578:591  string memory */\n      0x60\n        /* \"MyFunctions.sol\":593:597  bool */\n      0x00\n        /* \"MyFunctions.sol\":599:615  uint256[] memory */\n      0x60\n        /* \"MyFunctions.sol\":635:641  myUint */\n      sload(0x00)\n        /* \"MyFunctions.sol\":643:651  myString */\n      0x01\n        /* \"MyFunctions.sol\":653:659  myBool */\n      0x02\n      0x00\n      swap1\n      sload\n      swap1\n      0x0100\n      exp\n      swap1\n      div\n      0xff\n      and\n        /* \"MyFunctions.sol\":661:666  myArr */\n      0x03\n        /* \"MyFunctions.sol\":627:667  return (myUint, myString, myBool, myArr) */\n      dup3\n      dup1\n      sload\n      tag_46\n      swap1\n      tag_31\n      jump\t// in\n    tag_46:\n      dup1\n      0x1f\n      add\n      0x20\n      dup1\n      swap2\n      div\n      mul\n      0x20\n      add\n      mload(0x40)\n      swap1\n      dup2\n      add\n      0x40\n      mstore\n      dup1\n      swap3\n      swap2\n      swap1\n      dup2\n      dup2\n      mstore\n      0x20\n      add\n      dup3\n      dup1\n      sload\n      tag_47\n      swap1\n      tag_31\n      jump\t// in\n    tag_47:\n      dup1\n      iszero\n      tag_48\n      jumpi\n      dup1\n      0x1f\n      lt\n      tag_49\n      jumpi\n      0x0100\n      dup1\n      dup4\n      sload\n      div\n      mul\n      dup4\n      mstore\n      swap2\n      0x20\n      add\n      swap2\n      jump(tag_48)\n    tag_49:\n      dup3\n      add\n      swap2\n      swap1\n      0x00\n      mstore\n      keccak256(0x00, 0x20)\n      swap1\n    tag_50:\n      dup2\n      sload\n      dup2\n      mstore\n      swap1\n      0x01\n      add\n      swap1\n      0x20\n      add\n      dup1\n      dup4\n      gt\n      tag_50\n      jumpi\n      dup3\n      swap1\n      sub\n      0x1f\n      and\n      dup3\n      add\n      swap2\n    tag_48:\n      pop\n      pop\n      pop\n      pop\n      pop\n      swap3\n      pop\n      dup1\n      dup1\n      sload\n      dup1\n      0x20\n      mul\n      0x20\n      add\n      mload(0x40)\n      swap1\n      dup2\n      add\n      0x40\n      mstore\n      dup1\n      swap3\n      swap2\n      swap1\n      dup2\n      dup2\n      mstore\n      0x20\n      add\n      dup3\n      dup1\n      sload\n      dup1\n      iszero\n      tag_51\n      jumpi\n      0x20\n      mul\n      dup3\n      add\n      swap2\n      swap1\n      0x00\n      mstore\n      keccak256(0x00, 0x20)\n      swap1\n    tag_52:\n      dup2\n      sload\n      dup2\n      mstore\n      0x20\n      add\n      swap1\n      0x01\n      add\n      swap1\n      dup1\n      dup4\n      gt\n      tag_52\n      jumpi\n    tag_51:\n      pop\n      pop\n      pop\n      pop\n      pop\n      swap1\n      pop\n      swap4\n      pop\n      swap4\n      pop\n      swap4\n      pop\n      swap4\n      pop\n        /* \"MyFunctions.sol\":523:674  function myReturnFunc() external view returns(uint256, string memory, bool, uint256[] memory) {... */\n      swap1\n      swap2\n      swap3\n      swap4\n      jump\t// out\n        /* \"MyFunctions.sol\":680:746  function myNoReturnFunc() external {... */\n    tag_26:\n        /* \"MyFunctions.sol\":734:739  false */\n      0x00\n        /* \"MyFunctions.sol\":725:731  myBool */\n      0x02\n      0x00\n        /* \"MyFunctions.sol\":725:739  myBool = false */\n      0x0100\n      exp\n      dup2\n      sload\n      dup2\n      0xff\n      mul\n      not\n      and\n      swap1\n      dup4\n      iszero\n      iszero\n      mul\n      or\n      swap1\n      sstore\n      pop\n        /* \"MyFunctions.sol\":680:746  function myNoReturnFunc() external {... */\n      jump\t// out\n        /* \"#utility.yul\":7:106   */\n    tag_54:\n        /* \"#utility.yul\":59:65   */\n      0x00\n        /* \"#utility.yul\":93:98   */\n      dup2\n        /* \"#utility.yul\":87:99   */\n      mload\n        /* \"#utility.yul\":77:99   */\n      swap1\n      pop\n        /* \"#utility.yul\":7:106   */\n      swap2\n      swap1\n      pop\n      jump\t// out\n        /* \"#utility.yul\":112:281   */\n    tag_55:\n        /* \"#utility.yul\":196:207   */\n      0x00\n        /* \"#utility.yul\":230:236   */\n      dup3\n        /* \"#utility.yul\":225:228   */\n      dup3\n        /* \"#utility.yul\":218:237   */\n      mstore\n        /* \"#utility.yul\":270:274   */\n      0x20\n        /* \"#utility.yul\":265:268   */\n      dup3\n        /* \"#utility.yul\":261:275   */\n      add\n        /* \"#utility.yul\":246:275   */\n      swap1\n      pop\n        /* \"#utility.yul\":112:281   */\n      swap3\n      swap2\n      pop\n      pop\n      jump\t// out\n        /* \"#utility.yul\":287:533   */\n    tag_56:\n        /* \"#utility.yul\":368:369   */\n      0x00\n        /* \"#utility.yul\":378:491   */\n    tag_97:\n        /* \"#utility.yul\":392:398   */\n      dup4\n        /* \"#utility.yul\":389:390   */\n      dup2\n        /* \"#utility.yul\":386:399   */\n      lt\n        /* \"#utility.yul\":378:491   */\n      iszero\n      tag_99\n      jumpi\n        /* \"#utility.yul\":477:478   */\n      dup1\n        /* \"#utility.yul\":472:475   */\n      dup3\n        /* \"#utility.yul\":468:479   */\n      add\n        /* \"#utility.yul\":462:480   */\n      mload\n        /* \"#utility.yul\":458:459   */\n      dup2\n        /* \"#utility.yul\":453:456   */\n      dup5\n        /* \"#utility.yul\":449:460   */\n      add\n        /* \"#utility.yul\":442:481   */\n      mstore\n        /* \"#utility.yul\":414:416   */\n      0x20\n        /* \"#utility.yul\":411:412   */\n      dup2\n        /* \"#utility.yul\":407:417   */\n      add\n        /* \"#utility.yul\":402:417   */\n      swap1\n      pop\n        /* \"#utility.yul\":378:491   */\n      jump(tag_97)\n    tag_99:\n        /* \"#utility.yul\":525:526   */\n      0x00\n        /* \"#utility.yul\":516:522   */\n      dup5\n        /* \"#utility.yul\":511:514   */\n      dup5\n        /* \"#utility.yul\":507:523   */\n      add\n        /* \"#utility.yul\":500:527   */\n      mstore\n        /* \"#utility.yul\":349:533   */\n      pop\n        /* \"#utility.yul\":287:533   */\n      pop\n      pop\n      pop\n      jump\t// out\n        /* \"#utility.yul\":539:641   */\n    tag_57:\n        /* \"#utility.yul\":580:586   */\n      0x00\n        /* \"#utility.yul\":631:633   */\n      0x1f\n        /* \"#utility.yul\":627:634   */\n      not\n        /* \"#utility.yul\":622:624   */\n      0x1f\n        /* \"#utility.yul\":615:620   */\n      dup4\n        /* \"#utility.yul\":611:625   */\n      add\n        /* \"#utility.yul\":607:635   */\n      and\n        /* \"#utility.yul\":597:635   */\n      swap1\n      pop\n        /* \"#utility.yul\":539:641   */\n      swap2\n      swap1\n      pop\n      jump\t// out\n        /* \"#utility.yul\":647:1024   */\n    tag_58:\n        /* \"#utility.yul\":735:738   */\n      0x00\n        /* \"#utility.yul\":763:802   */\n      tag_102\n        /* \"#utility.yul\":796:801   */\n      dup3\n        /* \"#utility.yul\":763:802   */\n      tag_54\n      jump\t// in\n    tag_102:\n        /* \"#utility.yul\":818:889   */\n      tag_103\n        /* \"#utility.yul\":882:888   */\n      dup2\n        /* \"#utility.yul\":877:880   */\n      dup6\n        /* \"#utility.yul\":818:889   */\n      tag_55\n      jump\t// in\n    tag_103:\n        /* \"#utility.yul\":811:889   */\n      swap4\n      pop\n        /* \"#utility.yul\":898:963   */\n      tag_104\n        /* \"#utility.yul\":956:962   */\n      dup2\n        /* \"#utility.yul\":951:954   */\n      dup6\n        /* \"#utility.yul\":944:948   */\n      0x20\n        /* \"#utility.yul\":937:942   */\n      dup7\n        /* \"#utility.yul\":933:949   */\n      add\n        /* \"#utility.yul\":898:963   */\n      tag_56\n      jump\t// in\n    tag_104:\n        /* \"#utility.yul\":988:1017   */\n      tag_105\n        /* \"#utility.yul\":1010:1016   */\n      dup2\n        /* \"#utility.yul\":988:1017   */\n      tag_57\n      jump\t// in\n    tag_105:\n        /* \"#utility.yul\":983:986   */\n      dup5\n        /* \"#utility.yul\":979:1018   */\n      add\n        /* \"#utility.yul\":972:1018   */\n      swap2\n      pop\n        /* \"#utility.yul\":739:1024   */\n      pop\n        /* \"#utility.yul\":647:1024   */\n      swap3\n      swap2\n      pop\n      pop\n      jump\t// out\n        /* \"#utility.yul\":1030:1343   */\n    tag_11:\n        /* \"#utility.yul\":1143:1147   */\n      0x00\n        /* \"#utility.yul\":1181:1183   */\n      0x20\n        /* \"#utility.yul\":1170:1179   */\n      dup3\n        /* \"#utility.yul\":1166:1184   */\n      add\n        /* \"#utility.yul\":1158:1184   */\n      swap1\n      pop\n        /* \"#utility.yul\":1230:1239   */\n      dup2\n        /* \"#utility.yul\":1224:1228   */\n      dup2\n        /* \"#utility.yul\":1220:1240   */\n      sub\n        /* \"#utility.yul\":1216:1217   */\n      0x00\n        /* \"#utility.yul\":1205:1214   */\n      dup4\n        /* \"#utility.yul\":1201:1218   */\n      add\n        /* \"#utility.yul\":1194:1241   */\n      mstore\n        /* \"#utility.yul\":1258:1336   */\n      tag_107\n        /* \"#utility.yul\":1331:1335   */\n      dup2\n        /* \"#utility.yul\":1322:1328   */\n      dup5\n        /* \"#utility.yul\":1258:1336   */\n      tag_58\n      jump\t// in\n    tag_107:\n        /* \"#utility.yul\":1250:1336   */\n      swap1\n      pop\n        /* \"#utility.yul\":1030:1343   */\n      swap3\n      swap2\n      pop\n      pop\n      jump\t// out\n        /* \"#utility.yul\":1430:1547   */\n    tag_60:\n        /* \"#utility.yul\":1539:1540   */\n      0x00\n        /* \"#utility.yul\":1536:1537   */\n      dup1\n        /* \"#utility.yul\":1529:1541   */\n      revert\n        /* \"#utility.yul\":1676:1753   */\n    tag_62:\n        /* \"#utility.yul\":1713:1720   */\n      0x00\n        /* \"#utility.yul\":1742:1747   */\n      dup2\n        /* \"#utility.yul\":1731:1747   */\n      swap1\n      pop\n        /* \"#utility.yul\":1676:1753   */\n      swap2\n      swap1\n      pop\n      jump\t// out\n        /* \"#utility.yul\":1759:1881   */\n    tag_63:\n        /* \"#utility.yul\":1832:1856   */\n      tag_113\n        /* \"#utility.yul\":1850:1855   */\n      dup2\n        /* \"#utility.yul\":1832:1856   */\n      tag_62\n      jump\t// in\n    tag_113:\n        /* \"#utility.yul\":1825:1830   */\n      dup2\n        /* \"#utility.yul\":1822:1857   */\n      eq\n        /* \"#utility.yul\":1812:1875   */\n      tag_114\n      jumpi\n        /* \"#utility.yul\":1871:1872   */\n      0x00\n        /* \"#utility.yul\":1868:1869   */\n      dup1\n        /* \"#utility.yul\":1861:1873   */\n      revert\n        /* \"#utility.yul\":1812:1875   */\n    tag_114:\n        /* \"#utility.yul\":1759:1881   */\n      pop\n      jump\t// out\n        /* \"#utility.yul\":1887:2026   */\n    tag_64:\n        /* \"#utility.yul\":1933:1938   */\n      0x00\n        /* \"#utility.yul\":1971:1977   */\n      dup2\n        /* \"#utility.yul\":1958:1978   */\n      calldataload\n        /* \"#utility.yul\":1949:1978   */\n      swap1\n      pop\n        /* \"#utility.yul\":1987:2020   */\n      tag_116\n        /* \"#utility.yul\":2014:2019   */\n      dup2\n        /* \"#utility.yul\":1987:2020   */\n      tag_63\n      jump\t// in\n    tag_116:\n        /* \"#utility.yul\":1887:2026   */\n      swap3\n      swap2\n      pop\n      pop\n      jump\t// out\n        /* \"#utility.yul\":2032:2506   */\n    tag_17:\n        /* \"#utility.yul\":2100:2106   */\n      0x00\n        /* \"#utility.yul\":2108:2114   */\n      dup1\n        /* \"#utility.yul\":2157:2159   */\n      0x40\n        /* \"#utility.yul\":2145:2154   */\n      dup4\n        /* \"#utility.yul\":2136:2143   */\n      dup6\n        /* \"#utility.yul\":2132:2155   */\n      sub\n        /* \"#utility.yul\":2128:2160   */\n      slt\n        /* \"#utility.yul\":2125:2244   */\n      iszero\n      tag_118\n      jumpi\n        /* \"#utility.yul\":2163:2242   */\n      tag_119\n      tag_60\n      jump\t// in\n    tag_119:\n        /* \"#utility.yul\":2125:2244   */\n    tag_118:\n        /* \"#utility.yul\":2283:2284   */\n      0x00\n        /* \"#utility.yul\":2308:2361   */\n      tag_120\n        /* \"#utility.yul\":2353:2360   */\n      dup6\n        /* \"#utility.yul\":2344:2350   */\n      dup3\n        /* \"#utility.yul\":2333:2342   */\n      dup7\n        /* \"#utility.yul\":2329:2351   */\n      add\n        /* \"#utility.yul\":2308:2361   */\n      tag_64\n      jump\t// in\n    tag_120:\n        /* \"#utility.yul\":2298:2361   */\n      swap3\n      pop\n        /* \"#utility.yul\":2254:2371   */\n      pop\n        /* \"#utility.yul\":2410:2412   */\n      0x20\n        /* \"#utility.yul\":2436:2489   */\n      tag_121\n        /* \"#utility.yul\":2481:2488   */\n      dup6\n        /* \"#utility.yul\":2472:2478   */\n      dup3\n        /* \"#utility.yul\":2461:2470   */\n      dup7\n        /* \"#utility.yul\":2457:2479   */\n      add\n        /* \"#utility.yul\":2436:2489   */\n      tag_64\n      jump\t// in\n    tag_121:\n        /* \"#utility.yul\":2426:2489   */\n      swap2\n      pop\n        /* \"#utility.yul\":2381:2499   */\n      pop\n        /* \"#utility.yul\":2032:2506   */\n      swap3\n      pop\n      swap3\n      swap1\n      pop\n      jump\t// out\n        /* \"#utility.yul\":2512:2630   */\n    tag_65:\n        /* \"#utility.yul\":2599:2623   */\n      tag_123\n        /* \"#utility.yul\":2617:2622   */\n      dup2\n        /* \"#utility.yul\":2599:2623   */\n      tag_62\n      jump\t// in\n    tag_123:\n        /* \"#utility.yul\":2594:2597   */\n      dup3\n        /* \"#utility.yul\":2587:2624   */\n      mstore\n        /* \"#utility.yul\":2512:2630   */\n      pop\n      pop\n      jump\t// out\n        /* \"#utility.yul\":2636:2858   */\n    tag_20:\n        /* \"#utility.yul\":2729:2733   */\n      0x00\n        /* \"#utility.yul\":2767:2769   */\n      0x20\n        /* \"#utility.yul\":2756:2765   */\n      dup3\n        /* \"#utility.yul\":2752:2770   */\n      add\n        /* \"#utility.yul\":2744:2770   */\n      swap1\n      pop\n        /* \"#utility.yul\":2780:2851   */\n      tag_125\n        /* \"#utility.yul\":2848:2849   */\n      0x00\n        /* \"#utility.yul\":2837:2846   */\n      dup4\n        /* \"#utility.yul\":2833:2850   */\n      add\n        /* \"#utility.yul\":2824:2830   */\n      dup5\n        /* \"#utility.yul\":2780:2851   */\n      tag_65\n      jump\t// in\n    tag_125:\n        /* \"#utility.yul\":2636:2858   */\n      swap3\n      swap2\n      pop\n      pop\n      jump\t// out\n        /* \"#utility.yul\":2864:2954   */\n    tag_66:\n        /* \"#utility.yul\":2898:2905   */\n      0x00\n        /* \"#utility.yul\":2941:2946   */\n      dup2\n        /* \"#utility.yul\":2934:2947   */\n      iszero\n        /* \"#utility.yul\":2927:2948   */\n      iszero\n        /* \"#utility.yul\":2916:2948   */\n      swap1\n      pop\n        /* \"#utility.yul\":2864:2954   */\n      swap2\n      swap1\n      pop\n      jump\t// out\n        /* \"#utility.yul\":2960:3069   */\n    tag_67:\n        /* \"#utility.yul\":3041:3062   */\n      tag_128\n        /* \"#utility.yul\":3056:3061   */\n      dup2\n        /* \"#utility.yul\":3041:3062   */\n      tag_66\n      jump\t// in\n    tag_128:\n        /* \"#utility.yul\":3036:3039   */\n      dup3\n        /* \"#utility.yul\":3029:3063   */\n      mstore\n        /* \"#utility.yul\":2960:3069   */\n      pop\n      pop\n      jump\t// out\n        /* \"#utility.yul\":3075:3189   */\n    tag_68:\n        /* \"#utility.yul\":3142:3148   */\n      0x00\n        /* \"#utility.yul\":3176:3181   */\n      dup2\n        /* \"#utility.yul\":3170:3182   */\n      mload\n        /* \"#utility.yul\":3160:3182   */\n      swap1\n      pop\n        /* \"#utility.yul\":3075:3189   */\n      swap2\n      swap1\n      pop\n      jump\t// out\n        /* \"#utility.yul\":3195:3379   */\n    tag_69:\n        /* \"#utility.yul\":3294:3305   */\n      0x00\n        /* \"#utility.yul\":3328:3334   */\n      dup3\n        /* \"#utility.yul\":3323:3326   */\n      dup3\n        /* \"#utility.yul\":3316:3335   */\n      mstore\n        /* \"#utility.yul\":3368:3372   */\n      0x20\n        /* \"#utility.yul\":3363:3366   */\n      dup3\n        /* \"#utility.yul\":3359:3373   */\n      add\n        /* \"#utility.yul\":3344:3373   */\n      swap1\n      pop\n        /* \"#utility.yul\":3195:3379   */\n      swap3\n      swap2\n      pop\n      pop\n      jump\t// out\n        /* \"#utility.yul\":3385:3517   */\n    tag_70:\n        /* \"#utility.yul\":3452:3456   */\n      0x00\n        /* \"#utility.yul\":3475:3478   */\n      dup2\n        /* \"#utility.yul\":3467:3478   */\n      swap1\n      pop\n        /* \"#utility.yul\":3505:3509   */\n      0x20\n        /* \"#utility.yul\":3500:3503   */\n      dup3\n        /* \"#utility.yul\":3496:3510   */\n      add\n        /* \"#utility.yul\":3488:3510   */\n      swap1\n      pop\n        /* \"#utility.yul\":3385:3517   */\n      swap2\n      swap1\n      pop\n      jump\t// out\n        /* \"#utility.yul\":3523:3631   */\n    tag_71:\n        /* \"#utility.yul\":3600:3624   */\n      tag_133\n        /* \"#utility.yul\":3618:3623   */\n      dup2\n        /* \"#utility.yul\":3600:3624   */\n      tag_62\n      jump\t// in\n    tag_133:\n        /* \"#utility.yul\":3595:3598   */\n      dup3\n        /* \"#utility.yul\":3588:3625   */\n      mstore\n        /* \"#utility.yul\":3523:3631   */\n      pop\n      pop\n      jump\t// out\n        /* \"#utility.yul\":3637:3816   */\n    tag_72:\n        /* \"#utility.yul\":3706:3716   */\n      0x00\n        /* \"#utility.yul\":3727:3773   */\n      tag_135\n        /* \"#utility.yul\":3769:3772   */\n      dup4\n        /* \"#utility.yul\":3761:3767   */\n      dup4\n        /* \"#utility.yul\":3727:3773   */\n      tag_71\n      jump\t// in\n    tag_135:\n        /* \"#utility.yul\":3805:3809   */\n      0x20\n        /* \"#utility.yul\":3800:3803   */\n      dup4\n        /* \"#utility.yul\":3796:3810   */\n      add\n        /* \"#utility.yul\":3782:3810   */\n      swap1\n      pop\n        /* \"#utility.yul\":3637:3816   */\n      swap3\n      swap2\n      pop\n      pop\n      jump\t// out\n        /* \"#utility.yul\":3822:3935   */\n    tag_73:\n        /* \"#utility.yul\":3892:3896   */\n      0x00\n        /* \"#utility.yul\":3924:3928   */\n      0x20\n        /* \"#utility.yul\":3919:3922   */\n      dup3\n        /* \"#utility.yul\":3915:3929   */\n      add\n        /* \"#utility.yul\":3907:3929   */\n      swap1\n      pop\n        /* \"#utility.yul\":3822:3935   */\n      swap2\n      swap1\n      pop\n      jump\t// out\n        /* \"#utility.yul\":3971:4703   */\n    tag_74:\n        /* \"#utility.yul\":4090:4093   */\n      0x00\n        /* \"#utility.yul\":4119:4173   */\n      tag_138\n        /* \"#utility.yul\":4167:4172   */\n      dup3\n        /* \"#utility.yul\":4119:4173   */\n      tag_68\n      jump\t// in\n    tag_138:\n        /* \"#utility.yul\":4189:4275   */\n      tag_139\n        /* \"#utility.yul\":4268:4274   */\n      dup2\n        /* \"#utility.yul\":4263:4266   */\n      dup6\n        /* \"#utility.yul\":4189:4275   */\n      tag_69\n      jump\t// in\n    tag_139:\n        /* \"#utility.yul\":4182:4275   */\n      swap4\n      pop\n        /* \"#utility.yul\":4299:4355   */\n      tag_140\n        /* \"#utility.yul\":4349:4354   */\n      dup4\n        /* \"#utility.yul\":4299:4355   */\n      tag_70\n      jump\t// in\n    tag_140:\n        /* \"#utility.yul\":4378:4385   */\n      dup1\n        /* \"#utility.yul\":4409:4410   */\n      0x00\n        /* \"#utility.yul\":4394:4678   */\n    tag_141:\n        /* \"#utility.yul\":4419:4425   */\n      dup4\n        /* \"#utility.yul\":4416:4417   */\n      dup2\n        /* \"#utility.yul\":4413:4426   */\n      lt\n        /* \"#utility.yul\":4394:4678   */\n      iszero\n      tag_143\n      jumpi\n        /* \"#utility.yul\":4495:4501   */\n      dup2\n        /* \"#utility.yul\":4489:4502   */\n      mload\n        /* \"#utility.yul\":4522:4585   */\n      tag_144\n        /* \"#utility.yul\":4581:4584   */\n      dup9\n        /* \"#utility.yul\":4566:4579   */\n      dup3\n        /* \"#utility.yul\":4522:4585   */\n      tag_72\n      jump\t// in\n    tag_144:\n        /* \"#utility.yul\":4515:4585   */\n      swap8\n      pop\n        /* \"#utility.yul\":4608:4668   */\n      tag_145\n        /* \"#utility.yul\":4661:4667   */\n      dup4\n        /* \"#utility.yul\":4608:4668   */\n      tag_73\n      jump\t// in\n    tag_145:\n        /* \"#utility.yul\":4598:4668   */\n      swap3\n      pop\n        /* \"#utility.yul\":4454:4678   */\n      pop\n        /* \"#utility.yul\":4441:4442   */\n      0x01\n        /* \"#utility.yul\":4438:4439   */\n      dup2\n        /* \"#utility.yul\":4434:4443   */\n      add\n        /* \"#utility.yul\":4429:4443   */\n      swap1\n      pop\n        /* \"#utility.yul\":4394:4678   */\n      jump(tag_141)\n    tag_143:\n        /* \"#utility.yul\":4398:4412   */\n      pop\n        /* \"#utility.yul\":4694:4697   */\n      dup6\n        /* \"#utility.yul\":4687:4697   */\n      swap4\n      pop\n        /* \"#utility.yul\":4095:4703   */\n      pop\n      pop\n      pop\n        /* \"#utility.yul\":3971:4703   */\n      swap3\n      swap2\n      pop\n      pop\n      jump\t// out\n        /* \"#utility.yul\":4709:5492   */\n    tag_24:\n        /* \"#utility.yul\":4950:4954   */\n      0x00\n        /* \"#utility.yul\":4988:4991   */\n      0x80\n        /* \"#utility.yul\":4977:4986   */\n      dup3\n        /* \"#utility.yul\":4973:4992   */\n      add\n        /* \"#utility.yul\":4965:4992   */\n      swap1\n      pop\n        /* \"#utility.yul\":5002:5073   */\n      tag_147\n        /* \"#utility.yul\":5070:5071   */\n      0x00\n        /* \"#utility.yul\":5059:5068   */\n      dup4\n        /* \"#utility.yul\":5055:5072   */\n      add\n        /* \"#utility.yul\":5046:5052   */\n      dup8\n        /* \"#utility.yul\":5002:5073   */\n      tag_65\n      jump\t// in\n    tag_147:\n        /* \"#utility.yul\":5120:5129   */\n      dup2\n        /* \"#utility.yul\":5114:5118   */\n      dup2\n        /* \"#utility.yul\":5110:5130   */\n      sub\n        /* \"#utility.yul\":5105:5107   */\n      0x20\n        /* \"#utility.yul\":5094:5103   */\n      dup4\n        /* \"#utility.yul\":5090:5108   */\n      add\n        /* \"#utility.yul\":5083:5131   */\n      mstore\n        /* \"#utility.yul\":5148:5226   */\n      tag_148\n        /* \"#utility.yul\":5221:5225   */\n      dup2\n        /* \"#utility.yul\":5212:5218   */\n      dup7\n        /* \"#utility.yul\":5148:5226   */\n      tag_58\n      jump\t// in\n    tag_148:\n        /* \"#utility.yul\":5140:5226   */\n      swap1\n      pop\n        /* \"#utility.yul\":5236:5302   */\n      tag_149\n        /* \"#utility.yul\":5298:5300   */\n      0x40\n        /* \"#utility.yul\":5287:5296   */\n      dup4\n        /* \"#utility.yul\":5283:5301   */\n      add\n        /* \"#utility.yul\":5274:5280   */\n      dup6\n        /* \"#utility.yul\":5236:5302   */\n      tag_67\n      jump\t// in\n    tag_149:\n        /* \"#utility.yul\":5349:5358   */\n      dup2\n        /* \"#utility.yul\":5343:5347   */\n      dup2\n        /* \"#utility.yul\":5339:5359   */\n      sub\n        /* \"#utility.yul\":5334:5336   */\n      0x60\n        /* \"#utility.yul\":5323:5332   */\n      dup4\n        /* \"#utility.yul\":5319:5337   */\n      add\n        /* \"#utility.yul\":5312:5360   */\n      mstore\n        /* \"#utility.yul\":5377:5485   */\n      tag_150\n        /* \"#utility.yul\":5480:5484   */\n      dup2\n        /* \"#utility.yul\":5471:5477   */\n      dup5\n        /* \"#utility.yul\":5377:5485   */\n      tag_74\n      jump\t// in\n    tag_150:\n        /* \"#utility.yul\":5369:5485   */\n      swap1\n      pop\n        /* \"#utility.yul\":4709:5492   */\n      swap6\n      swap5\n      pop\n      pop\n      pop\n      pop\n      pop\n      jump\t// out\n        /* \"#utility.yul\":5498:5678   */\n    tag_75:\n        /* \"#utility.yul\":5546:5623   */\n      0x4e487b7100000000000000000000000000000000000000000000000000000000\n        /* \"#utility.yul\":5543:5544   */\n      0x00\n        /* \"#utility.yul\":5536:5624   */\n      mstore\n        /* \"#utility.yul\":5643:5647   */\n      0x41\n        /* \"#utility.yul\":5640:5641   */\n      0x04\n        /* \"#utility.yul\":5633:5648   */\n      mstore\n        /* \"#utility.yul\":5667:5671   */\n      0x24\n        /* \"#utility.yul\":5664:5665   */\n      0x00\n        /* \"#utility.yul\":5657:5672   */\n      revert\n        /* \"#utility.yul\":5684:5864   */\n    tag_76:\n        /* \"#utility.yul\":5732:5809   */\n      0x4e487b7100000000000000000000000000000000000000000000000000000000\n        /* \"#utility.yul\":5729:5730   */\n      0x00\n        /* \"#utility.yul\":5722:5810   */\n      mstore\n        /* \"#utility.yul\":5829:5833   */\n      0x22\n        /* \"#utility.yul\":5826:5827   */\n      0x04\n        /* \"#utility.yul\":5819:5834   */\n      mstore\n        /* \"#utility.yul\":5853:5857   */\n      0x24\n        /* \"#utility.yul\":5850:5851   */\n      0x00\n        /* \"#utility.yul\":5843:5858   */\n      revert\n        /* \"#utility.yul\":5870:6190   */\n    tag_31:\n        /* \"#utility.yul\":5914:5920   */\n      0x00\n        /* \"#utility.yul\":5951:5952   */\n      0x02\n        /* \"#utility.yul\":5945:5949   */\n      dup3\n        /* \"#utility.yul\":5941:5953   */\n      div\n        /* \"#utility.yul\":5931:5953   */\n      swap1\n      pop\n        /* \"#utility.yul\":5998:5999   */\n      0x01\n        /* \"#utility.yul\":5992:5996   */\n      dup3\n        /* \"#utility.yul\":5988:6000   */\n      and\n        /* \"#utility.yul\":6019:6037   */\n      dup1\n        /* \"#utility.yul\":6009:6090   */\n      tag_154\n      jumpi\n        /* \"#utility.yul\":6075:6079   */\n      0x7f\n        /* \"#utility.yul\":6067:6073   */\n      dup3\n        /* \"#utility.yul\":6063:6080   */\n      and\n        /* \"#utility.yul\":6053:6080   */\n      swap2\n      pop\n        /* \"#utility.yul\":6009:6090   */\n    tag_154:\n        /* \"#utility.yul\":6137:6139   */\n      0x20\n        /* \"#utility.yul\":6129:6135   */\n      dup3\n        /* \"#utility.yul\":6126:6140   */\n      lt\n        /* \"#utility.yul\":6106:6124   */\n      dup2\n        /* \"#utility.yul\":6103:6141   */\n      sub\n        /* \"#utility.yul\":6100:6184   */\n      tag_155\n      jumpi\n        /* \"#utility.yul\":6156:6174   */\n      tag_156\n      tag_76\n      jump\t// in\n    tag_156:\n        /* \"#utility.yul\":6100:6184   */\n    tag_155:\n        /* \"#utility.yul\":5921:6190   */\n      pop\n        /* \"#utility.yul\":5870:6190   */\n      swap2\n      swap1\n      pop\n      jump\t// out\n        /* \"#utility.yul\":6196:6337   */\n    tag_77:\n        /* \"#utility.yul\":6245:6249   */\n      0x00\n        /* \"#utility.yul\":6268:6271   */\n      dup2\n        /* \"#utility.yul\":6260:6271   */\n      swap1\n      pop\n        /* \"#utility.yul\":6291:6294   */\n      dup2\n        /* \"#utility.yul\":6288:6289   */\n      0x00\n        /* \"#utility.yul\":6281:6295   */\n      mstore\n        /* \"#utility.yul\":6325:6329   */\n      0x20\n        /* \"#utility.yul\":6322:6323   */\n      0x00\n        /* \"#utility.yul\":6312:6330   */\n      keccak256\n        /* \"#utility.yul\":6304:6330   */\n      swap1\n      pop\n        /* \"#utility.yul\":6196:6337   */\n      swap2\n      swap1\n      pop\n      jump\t// out\n        /* \"#utility.yul\":6343:6436   */\n    tag_78:\n        /* \"#utility.yul\":6380:6386   */\n      0x00\n        /* \"#utility.yul\":6427:6429   */\n      0x20\n        /* \"#utility.yul\":6422:6424   */\n      0x1f\n        /* \"#utility.yul\":6415:6420   */\n      dup4\n        /* \"#utility.yul\":6411:6425   */\n      add\n        /* \"#utility.yul\":6407:6430   */\n      div\n        /* \"#utility.yul\":6397:6430   */\n      swap1\n      pop\n        /* \"#utility.yul\":6343:6436   */\n      swap2\n      swap1\n      pop\n      jump\t// out\n        /* \"#utility.yul\":6442:6549   */\n    tag_79:\n        /* \"#utility.yul\":6486:6494   */\n      0x00\n        /* \"#utility.yul\":6536:6541   */\n      dup3\n        /* \"#utility.yul\":6530:6534   */\n      dup3\n        /* \"#utility.yul\":6526:6542   */\n      shl\n        /* \"#utility.yul\":6505:6542   */\n      swap1\n      pop\n        /* \"#utility.yul\":6442:6549   */\n      swap3\n      swap2\n      pop\n      pop\n      jump\t// out\n        /* \"#utility.yul\":6555:6948   */\n    tag_80:\n        /* \"#utility.yul\":6624:6630   */\n      0x00\n        /* \"#utility.yul\":6674:6675   */\n      0x08\n        /* \"#utility.yul\":6662:6672   */\n      dup4\n        /* \"#utility.yul\":6658:6676   */\n      mul\n        /* \"#utility.yul\":6697:6794   */\n      tag_161\n        /* \"#utility.yul\":6727:6793   */\n      0xffffffffffffffffffffffffffffffffffffffffffffffffffffffffffffffff\n        /* \"#utility.yul\":6716:6725   */\n      dup3\n        /* \"#utility.yul\":6697:6794   */\n      tag_79\n      jump\t// in\n    tag_161:\n        /* \"#utility.yul\":6815:6854   */\n      tag_162\n        /* \"#utility.yul\":6845:6853   */\n      dup7\n        /* \"#utility.yul\":6834:6843   */\n      dup4\n        /* \"#utility.yul\":6815:6854   */\n      tag_79\n      jump\t// in\n    tag_162:\n        /* \"#utility.yul\":6803:6854   */\n      swap6\n      pop\n        /* \"#utility.yul\":6887:6891   */\n      dup1\n        /* \"#utility.yul\":6883:6892   */\n      not\n        /* \"#utility.yul\":6876:6881   */\n      dup5\n        /* \"#utility.yul\":6872:6893   */\n      and\n        /* \"#utility.yul\":6863:6893   */\n      swap4\n      pop\n        /* \"#utility.yul\":6936:6940   */\n      dup1\n        /* \"#utility.yul\":6926:6934   */\n      dup7\n        /* \"#utility.yul\":6922:6941   */\n      and\n        /* \"#utility.yul\":6915:6920   */\n      dup5\n        /* \"#utility.yul\":6912:6942   */\n      or\n        /* \"#utility.yul\":6902:6942   */\n      swap3\n      pop\n        /* \"#utility.yul\":6631:6948   */\n      pop\n      pop\n        /* \"#utility.yul\":6555:6948   */\n      swap4\n      swap3\n      pop\n      pop\n      pop\n      jump\t// out\n        /* \"#utility.yul\":6954:7014   */\n    tag_81:\n        /* \"#utility.yul\":6982:6985   */\n      0x00\n        /* \"#utility.yul\":7003:7008   */\n      dup2\n        /* \"#utility.yul\":6996:7008   */\n      swap1\n      pop\n        /* \"#utility.yul\":6954:7014   */\n      swap2\n      swap1\n      pop\n      jump\t// out\n        /* \"#utility.yul\":7020:7162   */\n    tag_82:\n        /* \"#utility.yul\":7070:7079   */\n      0x00\n        /* \"#utility.yul\":7103:7156   */\n      tag_165\n        /* \"#utility.yul\":7121:7155   */\n      tag_166\n        /* \"#utility.yul\":7130:7154   */\n      tag_167\n        /* \"#utility.yul\":7148:7153   */\n      dup5\n        /* \"#utility.yul\":7130:7154   */\n      tag_62\n      jump\t// in\n    tag_167:\n        /* \"#utility.yul\":7121:7155   */\n      tag_81\n      jump\t// in\n    tag_166:\n        /* \"#utility.yul\":7103:7156   */\n      tag_62\n      jump\t// in\n    tag_165:\n        /* \"#utility.yul\":7090:7156   */\n      swap1\n      pop\n        /* \"#utility.yul\":7020:7162   */\n      swap2\n      swap1\n      pop\n      jump\t// out\n        /* \"#utility.yul\":7168:7243   */\n    tag_83:\n        /* \"#utility.yul\":7211:7214   */\n      0x00\n        /* \"#utility.yul\":7232:7237   */\n      dup2\n        /* \"#utility.yul\":7225:7237   */\n      swap1\n      pop\n        /* \"#utility.yul\":7168:7243   */\n      swap2\n      swap1\n      pop\n      jump\t// out\n        /* \"#utility.yul\":7249:7518   */\n    tag_84:\n        /* \"#utility.yul\":7359:7398   */\n      tag_170\n        /* \"#utility.yul\":7390:7397   */\n      dup4\n        /* \"#utility.yul\":7359:7398   */\n      tag_82\n      jump\t// in\n    tag_170:\n        /* \"#utility.yul\":7420:7511   */\n      tag_171\n        /* \"#utility.yul\":7469:7510   */\n      tag_172\n        /* \"#utility.yul\":7493:7509   */\n      dup3\n        /* \"#utility.yul\":7469:7510   */\n      tag_83\n      jump\t// in\n    tag_172:\n        /* \"#utility.yul\":7461:7467   */\n      dup5\n        /* \"#utility.yul\":7454:7458   */\n      dup5\n        /* \"#utility.yul\":7448:7459   */\n      sload\n        /* \"#utility.yul\":7420:7511   */\n      tag_80\n      jump\t// in\n    tag_171:\n        /* \"#utility.yul\":7414:7418   */\n      dup3\n        /* \"#utility.yul\":7407:7512   */\n      sstore\n        /* \"#utility.yul\":7325:7518   */\n      pop\n        /* \"#utility.yul\":7249:7518   */\n      pop\n      pop\n      pop\n      jump\t// out\n        /* \"#utility.yul\":7524:7597   */\n    tag_85:\n        /* \"#utility.yul\":7569:7572   */\n      0x00\n        /* \"#utility.yul\":7524:7597   */\n      swap1\n      jump\t// out\n        /* \"#utility.yul\":7603:7792   */\n    tag_86:\n        /* \"#utility.yul\":7680:7712   */\n      tag_175\n      tag_85\n      jump\t// in\n    tag_175:\n        /* \"#utility.yul\":7721:7786   */\n      tag_176\n        /* \"#utility.yul\":7779:7785   */\n      dup2\n        /* \"#utility.yul\":7771:7777   */\n      dup5\n        /* \"#utility.yul\":7765:7769   */\n      dup5\n        /* \"#utility.yul\":7721:7786   */\n      tag_84\n      jump\t// in\n    tag_176:\n        /* \"#utility.yul\":7656:7792   */\n      pop\n        /* \"#utility.yul\":7603:7792   */\n      pop\n      pop\n      jump\t// out\n        /* \"#utility.yul\":7798:7984   */\n    tag_87:\n        /* \"#utility.yul\":7858:7978   */\n    tag_178:\n        /* \"#utility.yul\":7875:7878   */\n      dup2\n        /* \"#utility.yul\":7868:7873   */\n      dup2\n        /* \"#utility.yul\":7865:7879   */\n      lt\n        /* \"#utility.yul\":7858:7978   */\n      iszero\n      tag_180\n      jumpi\n        /* \"#utility.yul\":7929:7968   */\n      tag_181\n        /* \"#utility.yul\":7966:7967   */\n      0x00\n        /* \"#utility.yul\":7959:7964   */\n      dup3\n        /* \"#utility.yul\":7929:7968   */\n      tag_86\n      jump\t// in\n    tag_181:\n        /* \"#utility.yul\":7902:7903   */\n      0x01\n        /* \"#utility.yul\":7895:7900   */\n      dup2\n        /* \"#utility.yul\":7891:7904   */\n      add\n        /* \"#utility.yul\":7882:7904   */\n      swap1\n      pop\n        /* \"#utility.yul\":7858:7978   */\n      jump(tag_178)\n    tag_180:\n        /* \"#utility.yul\":7798:7984   */\n      pop\n      pop\n      jump\t// out\n        /* \"#utility.yul\":7990:8533   */\n    tag_88:\n        /* \"#utility.yul\":8091:8093   */\n      0x1f\n        /* \"#utility.yul\":8086:8089   */\n      dup3\n        /* \"#utility.yul\":8083:8094   */\n      gt\n        /* \"#utility.yul\":8080:8526   */\n      iszero\n      tag_183\n      jumpi\n        /* \"#utility.yul\":8125:8163   */\n      tag_184\n        /* \"#utility.yul\":8157:8162   */\n      dup2\n        /* \"#utility.yul\":8125:8163   */\n      tag_77\n      jump\t// in\n    tag_184:\n        /* \"#utility.yul\":8209:8238   */\n      tag_185\n        /* \"#utility.yul\":8227:8237   */\n      dup5\n        /* \"#utility.yul\":8209:8238   */\n      tag_78\n      jump\t// in\n    tag_185:\n        /* \"#utility.yul\":8199:8207   */\n      dup2\n        /* \"#utility.yul\":8195:8239   */\n      add\n        /* \"#utility.yul\":8392:8394   */\n      0x20\n        /* \"#utility.yul\":8380:8390   */\n      dup6\n        /* \"#utility.yul\":8377:8395   */\n      lt\n        /* \"#utility.yul\":8374:8423   */\n      iszero\n      tag_186\n      jumpi\n        /* \"#utility.yul\":8413:8421   */\n      dup2\n        /* \"#utility.yul\":8398:8421   */\n      swap1\n      pop\n        /* \"#utility.yul\":8374:8423   */\n    tag_186:\n        /* \"#utility.yul\":8436:8516   */\n      tag_187\n        /* \"#utility.yul\":8492:8514   */\n      tag_188\n        /* \"#utility.yul\":8510:8513   */\n      dup6\n        /* \"#utility.yul\":8492:8514   */\n      tag_78\n      jump\t// in\n    tag_188:\n        /* \"#utility.yul\":8482:8490   */\n      dup4\n        /* \"#utility.yul\":8478:8515   */\n      add\n        /* \"#utility.yul\":8465:8476   */\n      dup3\n        /* \"#utility.yul\":8436:8516   */\n      tag_87\n      jump\t// in\n    tag_187:\n        /* \"#utility.yul\":8095:8526   */\n      pop\n      pop\n        /* \"#utility.yul\":8080:8526   */\n    tag_183:\n        /* \"#utility.yul\":7990:8533   */\n      pop\n      pop\n      pop\n      jump\t// out\n        /* \"#utility.yul\":8539:8656   */\n    tag_89:\n        /* \"#utility.yul\":8593:8601   */\n      0x00\n        /* \"#utility.yul\":8643:8648   */\n      dup3\n        /* \"#utility.yul\":8637:8641   */\n      dup3\n        /* \"#utility.yul\":8633:8649   */\n      shr\n        /* \"#utility.yul\":8612:8649   */\n      swap1\n      pop\n        /* \"#utility.yul\":8539:8656   */\n      swap3\n      swap2\n      pop\n      pop\n      jump\t// out\n        /* \"#utility.yul\":8662:8831   */\n    tag_90:\n        /* \"#utility.yul\":8706:8712   */\n      0x00\n        /* \"#utility.yul\":8739:8790   */\n      tag_191\n        /* \"#utility.yul\":8787:8788   */\n      0x00\n        /* \"#utility.yul\":8783:8789   */\n      not\n        /* \"#utility.yul\":8775:8780   */\n      dup5\n        /* \"#utility.yul\":8772:8773   */\n      0x08\n        /* \"#utility.yul\":8768:8781   */\n      mul\n        /* \"#utility.yul\":8739:8790   */\n      tag_89\n      jump\t// in\n    tag_191:\n        /* \"#utility.yul\":8735:8791   */\n      not\n        /* \"#utility.yul\":8820:8824   */\n      dup1\n        /* \"#utility.yul\":8814:8818   */\n      dup4\n        /* \"#utility.yul\":8810:8825   */\n      and\n        /* \"#utility.yul\":8800:8825   */\n      swap2\n      pop\n        /* \"#utility.yul\":8713:8831   */\n      pop\n        /* \"#utility.yul\":8662:8831   */\n      swap3\n      swap2\n      pop\n      pop\n      jump\t// out\n        /* \"#utility.yul\":8836:9131   */\n    tag_91:\n        /* \"#utility.yul\":8912:8916   */\n      0x00\n        /* \"#utility.yul\":9058:9087   */\n      tag_193\n        /* \"#utility.yul\":9083:9086   */\n      dup4\n        /* \"#utility.yul\":9077:9081   */\n      dup4\n        /* \"#utility.yul\":9058:9087   */\n      tag_90\n      jump\t// in\n    tag_193:\n        /* \"#utility.yul\":9050:9087   */\n      swap2\n      pop\n        /* \"#utility.yul\":9120:9123   */\n      dup3\n        /* \"#utility.yul\":9117:9118   */\n      0x02\n        /* \"#utility.yul\":9113:9124   */\n      mul\n        /* \"#utility.yul\":9107:9111   */\n      dup3\n        /* \"#utility.yul\":9104:9125   */\n      or\n        /* \"#utility.yul\":9096:9125   */\n      swap1\n      pop\n        /* \"#utility.yul\":8836:9131   */\n      swap3\n      swap2\n      pop\n      pop\n      jump\t// out\n        /* \"#utility.yul\":9136:10531   */\n    tag_29:\n        /* \"#utility.yul\":9253:9290   */\n      tag_195\n        /* \"#utility.yul\":9286:9289   */\n      dup3\n        /* \"#utility.yul\":9253:9290   */\n      tag_54\n      jump\t// in\n    tag_195:\n        /* \"#utility.yul\":9355:9373   */\n      0xffffffffffffffff\n        /* \"#utility.yul\":9347:9353   */\n      dup2\n        /* \"#utility.yul\":9344:9374   */\n      gt\n        /* \"#utility.yul\":9341:9397   */\n      iszero\n      tag_196\n      jumpi\n        /* \"#utility.yul\":9377:9395   */\n      tag_197\n      tag_75\n      jump\t// in\n    tag_197:\n        /* \"#utility.yul\":9341:9397   */\n    tag_196:\n        /* \"#utility.yul\":9421:9459   */\n      tag_198\n        /* \"#utility.yul\":9453:9457   */\n      dup3\n        /* \"#utility.yul\":9447:9458   */\n      sload\n        /* \"#utility.yul\":9421:9459   */\n      tag_31\n      jump\t// in\n    tag_198:\n        /* \"#utility.yul\":9506:9573   */\n      tag_199\n        /* \"#utility.yul\":9566:9572   */\n      dup3\n        /* \"#utility.yul\":9558:9564   */\n      dup3\n        /* \"#utility.yul\":9552:9556   */\n      dup6\n        /* \"#utility.yul\":9506:9573   */\n      tag_88\n      jump\t// in\n    tag_199:\n        /* \"#utility.yul\":9600:9601   */\n      0x00\n        /* \"#utility.yul\":9624:9628   */\n      0x20\n        /* \"#utility.yul\":9611:9628   */\n      swap1\n      pop\n        /* \"#utility.yul\":9656:9658   */\n      0x1f\n        /* \"#utility.yul\":9648:9654   */\n      dup4\n        /* \"#utility.yul\":9645:9659   */\n      gt\n        /* \"#utility.yul\":9673:9674   */\n      0x01\n        /* \"#utility.yul\":9668:10286   */\n      dup2\n      eq\n      tag_201\n      jumpi\n        /* \"#utility.yul\":10330:10331   */\n      0x00\n        /* \"#utility.yul\":10347:10353   */\n      dup5\n        /* \"#utility.yul\":10344:10421   */\n      iszero\n      tag_202\n      jumpi\n        /* \"#utility.yul\":10396:10405   */\n      dup3\n        /* \"#utility.yul\":10391:10394   */\n      dup8\n        /* \"#utility.yul\":10387:10406   */\n      add\n        /* \"#utility.yul\":10381:10407   */\n      mload\n        /* \"#utility.yul\":10372:10407   */\n      swap1\n      pop\n        /* \"#utility.yul\":10344:10421   */\n    tag_202:\n        /* \"#utility.yul\":10447:10514   */\n      tag_203\n        /* \"#utility.yul\":10507:10513   */\n      dup6\n        /* \"#utility.yul\":10500:10505   */\n      dup3\n        /* \"#utility.yul\":10447:10514   */\n      tag_91\n      jump\t// in\n    tag_203:\n        /* \"#utility.yul\":10441:10445   */\n      dup7\n        /* \"#utility.yul\":10434:10515   */\n      sstore\n        /* \"#utility.yul\":10303:10525   */\n      pop\n        /* \"#utility.yul\":9638:10525   */\n      jump(tag_200)\n        /* \"#utility.yul\":9668:10286   */\n    tag_201:\n        /* \"#utility.yul\":9720:9724   */\n      0x1f\n        /* \"#utility.yul\":9716:9725   */\n      not\n        /* \"#utility.yul\":9708:9714   */\n      dup5\n        /* \"#utility.yul\":9704:9726   */\n      and\n        /* \"#utility.yul\":9754:9791   */\n      tag_204\n        /* \"#utility.yul\":9786:9790   */\n      dup7\n        /* \"#utility.yul\":9754:9791   */\n      tag_77\n      jump\t// in\n    tag_204:\n        /* \"#utility.yul\":9813:9814   */\n      0x00\n        /* \"#utility.yul\":9827:10035   */\n    tag_205:\n        /* \"#utility.yul\":9841:9848   */\n      dup3\n        /* \"#utility.yul\":9838:9839   */\n      dup2\n        /* \"#utility.yul\":9835:9849   */\n      lt\n        /* \"#utility.yul\":9827:10035   */\n      iszero\n      tag_207\n      jumpi\n        /* \"#utility.yul\":9920:9929   */\n      dup5\n        /* \"#utility.yul\":9915:9918   */\n      dup10\n        /* \"#utility.yul\":9911:9930   */\n      add\n        /* \"#utility.yul\":9905:9931   */\n      mload\n        /* \"#utility.yul\":9897:9903   */\n      dup3\n        /* \"#utility.yul\":9890:9932   */\n      sstore\n        /* \"#utility.yul\":9971:9972   */\n      0x01\n        /* \"#utility.yul\":9963:9969   */\n      dup3\n        /* \"#utility.yul\":9959:9973   */\n      add\n        /* \"#utility.yul\":9949:9973   */\n      swap2\n      pop\n        /* \"#utility.yul\":10018:10020   */\n      0x20\n        /* \"#utility.yul\":10007:10016   */\n      dup6\n        /* \"#utility.yul\":10003:10021   */\n      add\n        /* \"#utility.yul\":9990:10021   */\n      swap5\n      pop\n        /* \"#utility.yul\":9864:9868   */\n      0x20\n        /* \"#utility.yul\":9861:9862   */\n      dup2\n        /* \"#utility.yul\":9857:9869   */\n      add\n        /* \"#utility.yul\":9852:9869   */\n      swap1\n      pop\n        /* \"#utility.yul\":9827:10035   */\n      jump(tag_205)\n    tag_207:\n        /* \"#utility.yul\":10063:10069   */\n      dup7\n        /* \"#utility.yul\":10054:10061   */\n      dup4\n        /* \"#utility.yul\":10051:10070   */\n      lt\n        /* \"#utility.yul\":10048:10227   */\n      iszero\n      tag_208\n      jumpi\n        /* \"#utility.yul\":10121:10130   */\n      dup5\n        /* \"#utility.yul\":10116:10119   */\n      dup10\n        /* \"#utility.yul\":10112:10131   */\n      add\n        /* \"#utility.yul\":10106:10132   */\n      mload\n        /* \"#utility.yul\":10164:10212   */\n      tag_209\n        /* \"#utility.yul\":10206:10210   */\n      0x1f\n        /* \"#utility.yul\":10198:10204   */\n      dup10\n        /* \"#utility.yul\":10194:10211   */\n      and\n        /* \"#utility.yul\":10183:10192   */\n      dup3\n        /* \"#utility.yul\":10164:10212   */\n      tag_90\n      jump\t// in\n    tag_209:\n        /* \"#utility.yul\":10156:10162   */\n      dup4\n        /* \"#utility.yul\":10149:10213   */\n      sstore\n        /* \"#utility.yul\":10071:10227   */\n      pop\n        /* \"#utility.yul\":10048:10227   */\n    tag_208:\n        /* \"#utility.yul\":10273:10274   */\n      0x01\n        /* \"#utility.yul\":10269:10270   */\n      0x02\n        /* \"#utility.yul\":10261:10267   */\n      dup9\n        /* \"#utility.yul\":10257:10271   */\n      mul\n        /* \"#utility.yul\":10253:10275   */\n      add\n        /* \"#utility.yul\":10247:10251   */\n      dup9\n        /* \"#utility.yul\":10240:10276   */\n      sstore\n        /* \"#utility.yul\":9675:10286   */\n      pop\n      pop\n      pop\n        /* \"#utility.yul\":9638:10525   */\n    tag_200:\n      pop\n        /* \"#utility.yul\":9228:10531   */\n      pop\n      pop\n      pop\n        /* \"#utility.yul\":9136:10531   */\n      pop\n      pop\n      jump\t// out\n        /* \"#utility.yul\":10537:10717   */\n    tag_92:\n        /* \"#utility.yul\":10585:10662   */\n      0x4e487b7100000000000000000000000000000000000000000000000000000000\n        /* \"#utility.yul\":10582:10583   */\n      0x00\n        /* \"#utility.yul\":10575:10663   */\n      mstore\n        /* \"#utility.yul\":10682:10686   */\n      0x11\n        /* \"#utility.yul\":10679:10680   */\n      0x04\n        /* \"#utility.yul\":10672:10687   */\n      mstore\n        /* \"#utility.yul\":10706:10710   */\n      0x24\n        /* \"#utility.yul\":10703:10704   */\n      0x00\n        /* \"#utility.yul\":10696:10711   */\n      revert\n        /* \"#utility.yul\":10723:10914   */\n    tag_44:\n        /* \"#utility.yul\":10763:10766   */\n      0x00\n        /* \"#utility.yul\":10782:10802   */\n      tag_212\n        /* \"#utility.yul\":10800:10801   */\n      dup3\n        /* \"#utility.yul\":10782:10802   */\n      tag_62\n      jump\t// in\n    tag_212:\n        /* \"#utility.yul\":10777:10802   */\n      swap2\n      pop\n        /* \"#utility.yul\":10816:10836   */\n      tag_213\n        /* \"#utility.yul\":10834:10835   */\n      dup4\n        /* \"#utility.yul\":10816:10836   */\n      tag_62\n      jump\t// in\n    tag_213:\n        /* \"#utility.yul\":10811:10836   */\n      swap3\n      pop\n        /* \"#utility.yul\":10859:10860   */\n      dup3\n        /* \"#utility.yul\":10856:10857   */\n      dup3\n        /* \"#utility.yul\":10852:10861   */\n      add\n        /* \"#utility.yul\":10845:10861   */\n      swap1\n      pop\n        /* \"#utility.yul\":10880:10883   */\n      dup1\n        /* \"#utility.yul\":10877:10878   */\n      dup3\n        /* \"#utility.yul\":10874:10884   */\n      gt\n        /* \"#utility.yul\":10871:10907   */\n      iszero\n      tag_214\n      jumpi\n        /* \"#utility.yul\":10887:10905   */\n      tag_215\n      tag_92\n      jump\t// in\n    tag_215:\n        /* \"#utility.yul\":10871:10907   */\n    tag_214:\n        /* \"#utility.yul\":10723:10914   */\n      swap3\n      swap2\n      pop\n      pop\n      jump\t// out\n\n    auxdata: 0xa2646970667358221220de68dd5d35f9ad8db8127137c140168b34dd9cf1ae495d15b34dfd489f43aa5764736f6c63430008120033\n}\n",
				"bytecode": {
					"linkReferences": {},
					"object": "608060405261115c6000556040518060400160405280600581526020017f416b68696c00000000000000000000000000000000000000000000000000000081525060019081620000509190620003b4565b506001600260006101000a81548160ff0219169083151502179055506040518060800160405280600160ff168152602001600260ff168152602001600360ff168152602001600460ff168152506003906004620000af929190620000c4565b50348015620000bd57600080fd5b506200049b565b82805482825590600052602060002090810192821562000108579160200282015b8281111562000107578251829060ff16905591602001919060010190620000e5565b5b5090506200011791906200011b565b5090565b5b80821115620001365760008160009055506001016200011c565b5090565b600081519050919050565b7f4e487b7100000000000000000000000000000000000000000000000000000000600052604160045260246000fd5b7f4e487b7100000000000000000000000000000000000000000000000000000000600052602260045260246000fd5b60006002820490506001821680620001bc57607f821691505b602082108103620001d257620001d162000174565b5b50919050565b60008190508160005260206000209050919050565b60006020601f8301049050919050565b600082821b905092915050565b6000600883026200023c7fffffffffffffffffffffffffffffffffffffffffffffffffffffffffffffffff82620001fd565b620002488683620001fd565b95508019841693508086168417925050509392505050565b6000819050919050565b6000819050919050565b6000620002956200028f620002898462000260565b6200026a565b62000260565b9050919050565b6000819050919050565b620002b18362000274565b620002c9620002c0826200029c565b8484546200020a565b825550505050565b600090565b620002e0620002d1565b620002ed818484620002a6565b505050565b5b81811015620003155762000309600082620002d6565b600181019050620002f3565b5050565b601f82111562000364576200032e81620001d8565b6200033984620001ed565b8101602085101562000349578190505b620003616200035885620001ed565b830182620002f2565b50505b505050565b600082821c905092915050565b6000620003896000198460080262000369565b1980831691505092915050565b6000620003a4838362000376565b9150826002028217905092915050565b620003bf826200013a565b67ffffffffffffffff811115620003db57620003da62000145565b5b620003e78254620001a3565b620003f482828562000319565b600060209050601f8311600181146200042c576000841562000417578287015190505b62000423858262000396565b86555062000493565b601f1984166200043c86620001d8565b60005b8281101562000466578489015182556001820191506020850194506020810190506200043f565b8683101562000486578489015162000482601f89168262000376565b8355505b6001600288020188555050505b505050505050565b6109c380620004ab6000396000f3fe608060405234801561001057600080fd5b50600436106100575760003560e01c80633dfb15461461005c57806365449b731461007a5780639e5ddd8b14610098578063b8e53235146100c8578063fe3f60db146100e9575b600080fd5b6100646100f3565b604051610071919061042a565b60405180910390f35b6100826101ca565b60405161008f919061042a565b60405180910390f35b6100b260048036038101906100ad9190610487565b61025c565b6040516100bf91906104d6565b60405180910390f35b6100d0610272565b6040516100e094939291906105ca565b60405180910390f35b6100f161037d565b005b60606040518060400160405280600581526020017f416b68696c000000000000000000000000000000000000000000000000000000815250600190816101399190610858565b50600180546101479061067b565b80601f01602080910402602001604051908101604052809291908181526020018280546101739061067b565b80156101c05780601f10610195576101008083540402835291602001916101c0565b820191906000526020600020905b8154815290600101906020018083116101a357829003601f168201915b5050505050905090565b6060600180546101d99061067b565b80601f01602080910402602001604051908101604052809291908181526020018280546102059061067b565b80156102525780601f1061022757610100808354040283529160200191610252565b820191906000526020600020905b81548152906001019060200180831161023557829003601f168201915b5050505050905090565b6000818361026a9190610959565b905092915050565b60006060600060606000546001600260009054906101000a900460ff16600382805461029d9061067b565b80601f01602080910402602001604051908101604052809291908181526020018280546102c99061067b565b80156103165780601f106102eb57610100808354040283529160200191610316565b820191906000526020600020905b8154815290600101906020018083116102f957829003601f168201915b505050505092508080548060200260200160405190810160405280929190818152602001828054801561036857602002820191906000526020600020905b815481526020019060010190808311610354575b50505050509050935093509350935090919293565b6000600260006101000a81548160ff021916908315150217905550565b600081519050919050565b600082825260208201905092915050565b60005b838110156103d45780820151818401526020810190506103b9565b60008484015250505050565b6000601f19601f8301169050919050565b60006103fc8261039a565b61040681856103a5565b93506104168185602086016103b6565b61041f816103e0565b840191505092915050565b6000602082019050818103600083015261044481846103f1565b905092915050565b600080fd5b6000819050919050565b61046481610451565b811461046f57600080fd5b50565b6000813590506104818161045b565b92915050565b6000806040838503121561049e5761049d61044c565b5b60006104ac85828601610472565b92505060206104bd85828601610472565b9150509250929050565b6104d081610451565b82525050565b60006020820190506104eb60008301846104c7565b92915050565b60008115159050919050565b610506816104f1565b82525050565b600081519050919050565b600082825260208201905092915050565b6000819050602082019050919050565b61054181610451565b82525050565b60006105538383610538565b60208301905092915050565b6000602082019050919050565b60006105778261050c565b6105818185610517565b935061058c83610528565b8060005b838110156105bd5781516105a48882610547565b97506105af8361055f565b925050600181019050610590565b5085935050505092915050565b60006080820190506105df60008301876104c7565b81810360208301526105f181866103f1565b905061060060408301856104fd565b8181036060830152610612818461056c565b905095945050505050565b7f4e487b7100000000000000000000000000000000000000000000000000000000600052604160045260246000fd5b7f4e487b7100000000000000000000000000000000000000000000000000000000600052602260045260246000fd5b6000600282049050600182168061069357607f821691505b6020821081036106a6576106a561064c565b5b50919050565b60008190508160005260206000209050919050565b60006020601f8301049050919050565b600082821b905092915050565b60006008830261070e7fffffffffffffffffffffffffffffffffffffffffffffffffffffffffffffffff826106d1565b61071886836106d1565b95508019841693508086168417925050509392505050565b6000819050919050565b600061075561075061074b84610451565b610730565b610451565b9050919050565b6000819050919050565b61076f8361073a565b61078361077b8261075c565b8484546106de565b825550505050565b600090565b61079861078b565b6107a3818484610766565b505050565b5b818110156107c7576107bc600082610790565b6001810190506107a9565b5050565b601f82111561080c576107dd816106ac565b6107e6846106c1565b810160208510156107f5578190505b610809610801856106c1565b8301826107a8565b50505b505050565b600082821c905092915050565b600061082f60001984600802610811565b1980831691505092915050565b6000610848838361081e565b9150826002028217905092915050565b6108618261039a565b67ffffffffffffffff81111561087a5761087961061d565b5b610884825461067b565b61088f8282856107cb565b600060209050601f8311600181146108c257600084156108b0578287015190505b6108ba858261083c565b865550610922565b601f1984166108d0866106ac565b60005b828110156108f8578489015182556001820191506020850194506020810190506108d3565b868310156109155784890151610911601f89168261081e565b8355505b6001600288020188555050505b505050505050565b7f4e487b7100000000000000000000000000000000000000000000000000000000600052601160045260246000fd5b600061096482610451565b915061096f83610451565b92508282019050808211156109875761098661092a565b5b9291505056fea2646970667358221220de68dd5d35f9ad8db8127137c140168b34dd9cf1ae495d15b34dfd489f43aa5764736f6c63430008120033",
					"opcodes": "PUSH1 0x80 PUSH1 0x40 MSTORE PUSH2 0x115C PUSH1 0x0 SSTORE PUSH1 0x40 MLOAD DUP1 PUSH1 0x40 ADD PUSH1 0x40 MSTORE DUP1 PUSH1 0x5 DUP2 MSTORE PUSH1 0x20 ADD PUSH32 0x416B68696C000000000000000000000000000000000000000000000000000000 DUP2 MSTORE POP PUSH1 0x1 SWAP1 DUP2 PUSH3 0x50 SWAP2 SWAP1 PUSH3 0x3B4 JUMP JUMPDEST POP PUSH1 0x1 PUSH1 0x2 PUSH1 0x0 PUSH2 0x100 EXP DUP2 SLOAD DUP2 PUSH1 0xFF MUL NOT AND SWAP1 DUP4 ISZERO ISZERO MUL OR SWAP1 SSTORE POP PUSH1 0x40 MLOAD DUP1 PUSH1 0x80 ADD PUSH1 0x40 MSTORE DUP1 PUSH1 0x1 PUSH1 0xFF AND DUP2 MSTORE PUSH1 0x20 ADD PUSH1 0x2 PUSH1 0xFF AND DUP2 MSTORE PUSH1 0x20 ADD PUSH1 0x3 PUSH1 0xFF AND DUP2 MSTORE PUSH1 0x20 ADD PUSH1 0x4 PUSH1 0xFF AND DUP2 MSTORE POP PUSH1 0x3 SWAP1 PUSH1 0x4 PUSH3 0xAF SWAP3 SWAP2 SWAP1 PUSH3 0xC4 JUMP JUMPDEST POP CALLVALUE DUP1 ISZERO PUSH3 0xBD JUMPI PUSH1 0x0 DUP1 REVERT JUMPDEST POP PUSH3 0x49B JUMP JUMPDEST DUP3 DUP1 SLOAD DUP3 DUP3 SSTORE SWAP1 PUSH1 0x0 MSTORE PUSH1 0x20 PUSH1 0x0 KECCAK256 SWAP1 DUP2 ADD SWAP3 DUP3 ISZERO PUSH3 0x108 JUMPI SWAP2 PUSH1 0x20 MUL DUP3 ADD JUMPDEST DUP3 DUP2 GT ISZERO PUSH3 0x107 JUMPI DUP3 MLOAD DUP3 SWAP1 PUSH1 0xFF AND SWAP1 SSTORE SWAP2 PUSH1 0x20 ADD SWAP2 SWAP1 PUSH1 0x1 ADD SWAP1 PUSH3 0xE5 JUMP JUMPDEST JUMPDEST POP SWAP1 POP PUSH3 0x117 SWAP2 SWAP1 PUSH3 0x11B JUMP JUMPDEST POP SWAP1 JUMP JUMPDEST JUMPDEST DUP1 DUP3 GT ISZERO PUSH3 0x136 JUMPI PUSH1 0x0 DUP2 PUSH1 0x0 SWAP1 SSTORE POP PUSH1 0x1 ADD PUSH3 0x11C JUMP JUMPDEST POP SWAP1 JUMP JUMPDEST PUSH1 0x0 DUP2 MLOAD SWAP1 POP SWAP2 SWAP1 POP JUMP JUMPDEST PUSH32 0x4E487B7100000000000000000000000000000000000000000000000000000000 PUSH1 0x0 MSTORE PUSH1 0x41 PUSH1 0x4 MSTORE PUSH1 0x24 PUSH1 0x0 REVERT JUMPDEST PUSH32 0x4E487B7100000000000000000000000000000000000000000000000000000000 PUSH1 0x0 MSTORE PUSH1 0x22 PUSH1 0x4 MSTORE PUSH1 0x24 PUSH1 0x0 REVERT JUMPDEST PUSH1 0x0 PUSH1 0x2 DUP3 DIV SWAP1 POP PUSH1 0x1 DUP3 AND DUP1 PUSH3 0x1BC JUMPI PUSH1 0x7F DUP3 AND SWAP2 POP JUMPDEST PUSH1 0x20 DUP3 LT DUP2 SUB PUSH3 0x1D2 JUMPI PUSH3 0x1D1 PUSH3 0x174 JUMP JUMPDEST JUMPDEST POP SWAP2 SWAP1 POP JUMP JUMPDEST PUSH1 0x0 DUP2 SWAP1 POP DUP2 PUSH1 0x0 MSTORE PUSH1 0x20 PUSH1 0x0 KECCAK256 SWAP1 POP SWAP2 SWAP1 POP JUMP JUMPDEST PUSH1 0x0 PUSH1 0x20 PUSH1 0x1F DUP4 ADD DIV SWAP1 POP SWAP2 SWAP1 POP JUMP JUMPDEST PUSH1 0x0 DUP3 DUP3 SHL SWAP1 POP SWAP3 SWAP2 POP POP JUMP JUMPDEST PUSH1 0x0 PUSH1 0x8 DUP4 MUL PUSH3 0x23C PUSH32 0xFFFFFFFFFFFFFFFFFFFFFFFFFFFFFFFFFFFFFFFFFFFFFFFFFFFFFFFFFFFFFFFF DUP3 PUSH3 0x1FD JUMP JUMPDEST PUSH3 0x248 DUP7 DUP4 PUSH3 0x1FD JUMP JUMPDEST SWAP6 POP DUP1 NOT DUP5 AND SWAP4 POP DUP1 DUP7 AND DUP5 OR SWAP3 POP POP POP SWAP4 SWAP3 POP POP POP JUMP JUMPDEST PUSH1 0x0 DUP2 SWAP1 POP SWAP2 SWAP1 POP JUMP JUMPDEST PUSH1 0x0 DUP2 SWAP1 POP SWAP2 SWAP1 POP JUMP JUMPDEST PUSH1 0x0 PUSH3 0x295 PUSH3 0x28F PUSH3 0x289 DUP5 PUSH3 0x260 JUMP JUMPDEST PUSH3 0x26A JUMP JUMPDEST PUSH3 0x260 JUMP JUMPDEST SWAP1 POP SWAP2 SWAP1 POP JUMP JUMPDEST PUSH1 0x0 DUP2 SWAP1 POP SWAP2 SWAP1 POP JUMP JUMPDEST PUSH3 0x2B1 DUP4 PUSH3 0x274 JUMP JUMPDEST PUSH3 0x2C9 PUSH3 0x2C0 DUP3 PUSH3 0x29C JUMP JUMPDEST DUP5 DUP5 SLOAD PUSH3 0x20A JUMP JUMPDEST DUP3 SSTORE POP POP POP POP JUMP JUMPDEST PUSH1 0x0 SWAP1 JUMP JUMPDEST PUSH3 0x2E0 PUSH3 0x2D1 JUMP JUMPDEST PUSH3 0x2ED DUP2 DUP5 DUP5 PUSH3 0x2A6 JUMP JUMPDEST POP POP POP JUMP JUMPDEST JUMPDEST DUP2 DUP2 LT ISZERO PUSH3 0x315 JUMPI PUSH3 0x309 PUSH1 0x0 DUP3 PUSH3 0x2D6 JUMP JUMPDEST PUSH1 0x1 DUP2 ADD SWAP1 POP PUSH3 0x2F3 JUMP JUMPDEST POP POP JUMP JUMPDEST PUSH1 0x1F DUP3 GT ISZERO PUSH3 0x364 JUMPI PUSH3 0x32E DUP2 PUSH3 0x1D8 JUMP JUMPDEST PUSH3 0x339 DUP5 PUSH3 0x1ED JUMP JUMPDEST DUP2 ADD PUSH1 0x20 DUP6 LT ISZERO PUSH3 0x349 JUMPI DUP2 SWAP1 POP JUMPDEST PUSH3 0x361 PUSH3 0x358 DUP6 PUSH3 0x1ED JUMP JUMPDEST DUP4 ADD DUP3 PUSH3 0x2F2 JUMP JUMPDEST POP POP JUMPDEST POP POP POP JUMP JUMPDEST PUSH1 0x0 DUP3 DUP3 SHR SWAP1 POP SWAP3 SWAP2 POP POP JUMP JUMPDEST PUSH1 0x0 PUSH3 0x389 PUSH1 0x0 NOT DUP5 PUSH1 0x8 MUL PUSH3 0x369 JUMP JUMPDEST NOT DUP1 DUP4 AND SWAP2 POP POP SWAP3 SWAP2 POP POP JUMP JUMPDEST PUSH1 0x0 PUSH3 0x3A4 DUP4 DUP4 PUSH3 0x376 JUMP JUMPDEST SWAP2 POP DUP3 PUSH1 0x2 MUL DUP3 OR SWAP1 POP SWAP3 SWAP2 POP POP JUMP JUMPDEST PUSH3 0x3BF DUP3 PUSH3 0x13A JUMP JUMPDEST PUSH8 0xFFFFFFFFFFFFFFFF DUP2 GT ISZERO PUSH3 0x3DB JUMPI PUSH3 0x3DA PUSH3 0x145 JUMP JUMPDEST JUMPDEST PUSH3 0x3E7 DUP3 SLOAD PUSH3 0x1A3 JUMP JUMPDEST PUSH3 0x3F4 DUP3 DUP3 DUP6 PUSH3 0x319 JUMP JUMPDEST PUSH1 0x0 PUSH1 0x20 SWAP1 POP PUSH1 0x1F DUP4 GT PUSH1 0x1 DUP2 EQ PUSH3 0x42C JUMPI PUSH1 0x0 DUP5 ISZERO PUSH3 0x417 JUMPI DUP3 DUP8 ADD MLOAD SWAP1 POP JUMPDEST PUSH3 0x423 DUP6 DUP3 PUSH3 0x396 JUMP JUMPDEST DUP7 SSTORE POP PUSH3 0x493 JUMP JUMPDEST PUSH1 0x1F NOT DUP5 AND PUSH3 0x43C DUP7 PUSH3 0x1D8 JUMP JUMPDEST PUSH1 0x0 JUMPDEST DUP3 DUP2 LT ISZERO PUSH3 0x466 JUMPI DUP5 DUP10 ADD MLOAD DUP3 SSTORE PUSH1 0x1 DUP3 ADD SWAP2 POP PUSH1 0x20 DUP6 ADD SWAP5 POP PUSH1 0x20 DUP2 ADD SWAP1 POP PUSH3 0x43F JUMP JUMPDEST DUP7 DUP4 LT ISZERO PUSH3 0x486 JUMPI DUP5 DUP10 ADD MLOAD PUSH3 0x482 PUSH1 0x1F DUP10 AND DUP3 PUSH3 0x376 JUMP JUMPDEST DUP4 SSTORE POP JUMPDEST PUSH1 0x1 PUSH1 0x2 DUP9 MUL ADD DUP9 SSTORE POP POP POP JUMPDEST POP POP POP POP POP POP JUMP JUMPDEST PUSH2 0x9C3 DUP1 PUSH3 0x4AB PUSH1 0x0 CODECOPY PUSH1 0x0 RETURN INVALID PUSH1 0x80 PUSH1 0x40 MSTORE CALLVALUE DUP1 ISZERO PUSH2 0x10 JUMPI PUSH1 0x0 DUP1 REVERT JUMPDEST POP PUSH1 0x4 CALLDATASIZE LT PUSH2 0x57 JUMPI PUSH1 0x0 CALLDATALOAD PUSH1 0xE0 SHR DUP1 PUSH4 0x3DFB1546 EQ PUSH2 0x5C JUMPI DUP1 PUSH4 0x65449B73 EQ PUSH2 0x7A JUMPI DUP1 PUSH4 0x9E5DDD8B EQ PUSH2 0x98 JUMPI DUP1 PUSH4 0xB8E53235 EQ PUSH2 0xC8 JUMPI DUP1 PUSH4 0xFE3F60DB EQ PUSH2 0xE9 JUMPI JUMPDEST PUSH1 0x0 DUP1 REVERT JUMPDEST PUSH2 0x64 PUSH2 0xF3 JUMP JUMPDEST PUSH1 0x40 MLOAD PUSH2 0x71 SWAP2 SWAP1 PUSH2 0x42A JUMP JUMPDEST PUSH1 0x40 MLOAD DUP1 SWAP2 SUB SWAP1 RETURN JUMPDEST PUSH2 0x82 PUSH2 0x1CA JUMP JUMPDEST PUSH1 0x40 MLOAD PUSH2 0x8F SWAP2 SWAP1 PUSH2 0x42A JUMP JUMPDEST PUSH1 0x40 MLOAD DUP1 SWAP2 SUB SWAP1 RETURN JUMPDEST PUSH2 0xB2 PUSH1 0x4 DUP1 CALLDATASIZE SUB DUP2 ADD SWAP1 PUSH2 0xAD SWAP2 SWAP1 PUSH2 0x487 JUMP JUMPDEST PUSH2 0x25C JUMP JUMPDEST PUSH1 0x40 MLOAD PUSH2 0xBF SWAP2 SWAP1 PUSH2 0x4D6 JUMP JUMPDEST PUSH1 0x40 MLOAD DUP1 SWAP2 SUB SWAP1 RETURN JUMPDEST PUSH2 0xD0 PUSH2 0x272 JUMP JUMPDEST PUSH1 0x40 MLOAD PUSH2 0xE0 SWAP5 SWAP4 SWAP3 SWAP2 SWAP1 PUSH2 0x5CA JUMP JUMPDEST PUSH1 0x40 MLOAD DUP1 SWAP2 SUB SWAP1 RETURN JUMPDEST PUSH2 0xF1 PUSH2 0x37D JUMP JUMPDEST STOP JUMPDEST PUSH1 0x60 PUSH1 0x40 MLOAD DUP1 PUSH1 0x40 ADD PUSH1 0x40 MSTORE DUP1 PUSH1 0x5 DUP2 MSTORE PUSH1 0x20 ADD PUSH32 0x416B68696C000000000000000000000000000000000000000000000000000000 DUP2 MSTORE POP PUSH1 0x1 SWAP1 DUP2 PUSH2 0x139 SWAP2 SWAP1 PUSH2 0x858 JUMP JUMPDEST POP PUSH1 0x1 DUP1 SLOAD PUSH2 0x147 SWAP1 PUSH2 0x67B JUMP JUMPDEST DUP1 PUSH1 0x1F ADD PUSH1 0x20 DUP1 SWAP2 DIV MUL PUSH1 0x20 ADD PUSH1 0x40 MLOAD SWAP1 DUP2 ADD PUSH1 0x40 MSTORE DUP1 SWAP3 SWAP2 SWAP1 DUP2 DUP2 MSTORE PUSH1 0x20 ADD DUP3 DUP1 SLOAD PUSH2 0x173 SWAP1 PUSH2 0x67B JUMP JUMPDEST DUP1 ISZERO PUSH2 0x1C0 JUMPI DUP1 PUSH1 0x1F LT PUSH2 0x195 JUMPI PUSH2 0x100 DUP1 DUP4 SLOAD DIV MUL DUP4 MSTORE SWAP2 PUSH1 0x20 ADD SWAP2 PUSH2 0x1C0 JUMP JUMPDEST DUP3 ADD SWAP2 SWAP1 PUSH1 0x0 MSTORE PUSH1 0x20 PUSH1 0x0 KECCAK256 SWAP1 JUMPDEST DUP2 SLOAD DUP2 MSTORE SWAP1 PUSH1 0x1 ADD SWAP1 PUSH1 0x20 ADD DUP1 DUP4 GT PUSH2 0x1A3 JUMPI DUP3 SWAP1 SUB PUSH1 0x1F AND DUP3 ADD SWAP2 JUMPDEST POP POP POP POP POP SWAP1 POP SWAP1 JUMP JUMPDEST PUSH1 0x60 PUSH1 0x1 DUP1 SLOAD PUSH2 0x1D9 SWAP1 PUSH2 0x67B JUMP JUMPDEST DUP1 PUSH1 0x1F ADD PUSH1 0x20 DUP1 SWAP2 DIV MUL PUSH1 0x20 ADD PUSH1 0x40 MLOAD SWAP1 DUP2 ADD PUSH1 0x40 MSTORE DUP1 SWAP3 SWAP2 SWAP1 DUP2 DUP2 MSTORE PUSH1 0x20 ADD DUP3 DUP1 SLOAD PUSH2 0x205 SWAP1 PUSH2 0x67B JUMP JUMPDEST DUP1 ISZERO PUSH2 0x252 JUMPI DUP1 PUSH1 0x1F LT PUSH2 0x227 JUMPI PUSH2 0x100 DUP1 DUP4 SLOAD DIV MUL DUP4 MSTORE SWAP2 PUSH1 0x20 ADD SWAP2 PUSH2 0x252 JUMP JUMPDEST DUP3 ADD SWAP2 SWAP1 PUSH1 0x0 MSTORE PUSH1 0x20 PUSH1 0x0 KECCAK256 SWAP1 JUMPDEST DUP2 SLOAD DUP2 MSTORE SWAP1 PUSH1 0x1 ADD SWAP1 PUSH1 0x20 ADD DUP1 DUP4 GT PUSH2 0x235 JUMPI DUP3 SWAP1 SUB PUSH1 0x1F AND DUP3 ADD SWAP2 JUMPDEST POP POP POP POP POP SWAP1 POP SWAP1 JUMP JUMPDEST PUSH1 0x0 DUP2 DUP4 PUSH2 0x26A SWAP2 SWAP1 PUSH2 0x959 JUMP JUMPDEST SWAP1 POP SWAP3 SWAP2 POP POP JUMP JUMPDEST PUSH1 0x0 PUSH1 0x60 PUSH1 0x0 PUSH1 0x60 PUSH1 0x0 SLOAD PUSH1 0x1 PUSH1 0x2 PUSH1 0x0 SWAP1 SLOAD SWAP1 PUSH2 0x100 EXP SWAP1 DIV PUSH1 0xFF AND PUSH1 0x3 DUP3 DUP1 SLOAD PUSH2 0x29D SWAP1 PUSH2 0x67B JUMP JUMPDEST DUP1 PUSH1 0x1F ADD PUSH1 0x20 DUP1 SWAP2 DIV MUL PUSH1 0x20 ADD PUSH1 0x40 MLOAD SWAP1 DUP2 ADD PUSH1 0x40 MSTORE DUP1 SWAP3 SWAP2 SWAP1 DUP2 DUP2 MSTORE PUSH1 0x20 ADD DUP3 DUP1 SLOAD PUSH2 0x2C9 SWAP1 PUSH2 0x67B JUMP JUMPDEST DUP1 ISZERO PUSH2 0x316 JUMPI DUP1 PUSH1 0x1F LT PUSH2 0x2EB JUMPI PUSH2 0x100 DUP1 DUP4 SLOAD DIV MUL DUP4 MSTORE SWAP2 PUSH1 0x20 ADD SWAP2 PUSH2 0x316 JUMP JUMPDEST DUP3 ADD SWAP2 SWAP1 PUSH1 0x0 MSTORE PUSH1 0x20 PUSH1 0x0 KECCAK256 SWAP1 JUMPDEST DUP2 SLOAD DUP2 MSTORE SWAP1 PUSH1 0x1 ADD SWAP1 PUSH1 0x20 ADD DUP1 DUP4 GT PUSH2 0x2F9 JUMPI DUP3 SWAP1 SUB PUSH1 0x1F AND DUP3 ADD SWAP2 JUMPDEST POP POP POP POP POP SWAP3 POP DUP1 DUP1 SLOAD DUP1 PUSH1 0x20 MUL PUSH1 0x20 ADD PUSH1 0x40 MLOAD SWAP1 DUP2 ADD PUSH1 0x40 MSTORE DUP1 SWAP3 SWAP2 SWAP1 DUP2 DUP2 MSTORE PUSH1 0x20 ADD DUP3 DUP1 SLOAD DUP1 ISZERO PUSH2 0x368 JUMPI PUSH1 0x20 MUL DUP3 ADD SWAP2 SWAP1 PUSH1 0x0 MSTORE PUSH1 0x20 PUSH1 0x0 KECCAK256 SWAP1 JUMPDEST DUP2 SLOAD DUP2 MSTORE PUSH1 0x20 ADD SWAP1 PUSH1 0x1 ADD SWAP1 DUP1 DUP4 GT PUSH2 0x354 JUMPI JUMPDEST POP POP POP POP POP SWAP1 POP SWAP4 POP SWAP4 POP SWAP4 POP SWAP4 POP SWAP1 SWAP2 SWAP3 SWAP4 JUMP JUMPDEST PUSH1 0x0 PUSH1 0x2 PUSH1 0x0 PUSH2 0x100 EXP DUP2 SLOAD DUP2 PUSH1 0xFF MUL NOT AND SWAP1 DUP4 ISZERO ISZERO MUL OR SWAP1 SSTORE POP JUMP JUMPDEST PUSH1 0x0 DUP2 MLOAD SWAP1 POP SWAP2 SWAP1 POP JUMP JUMPDEST PUSH1 0x0 DUP3 DUP3 MSTORE PUSH1 0x20 DUP3 ADD SWAP1 POP SWAP3 SWAP2 POP POP JUMP JUMPDEST PUSH1 0x0 JUMPDEST DUP4 DUP2 LT ISZERO PUSH2 0x3D4 JUMPI DUP1 DUP3 ADD MLOAD DUP2 DUP5 ADD MSTORE PUSH1 0x20 DUP2 ADD SWAP1 POP PUSH2 0x3B9 JUMP JUMPDEST PUSH1 0x0 DUP5 DUP5 ADD MSTORE POP POP POP POP JUMP JUMPDEST PUSH1 0x0 PUSH1 0x1F NOT PUSH1 0x1F DUP4 ADD AND SWAP1 POP SWAP2 SWAP1 POP JUMP JUMPDEST PUSH1 0x0 PUSH2 0x3FC DUP3 PUSH2 0x39A JUMP JUMPDEST PUSH2 0x406 DUP2 DUP6 PUSH2 0x3A5 JUMP JUMPDEST SWAP4 POP PUSH2 0x416 DUP2 DUP6 PUSH1 0x20 DUP7 ADD PUSH2 0x3B6 JUMP JUMPDEST PUSH2 0x41F DUP2 PUSH2 0x3E0 JUMP JUMPDEST DUP5 ADD SWAP2 POP POP SWAP3 SWAP2 POP POP JUMP JUMPDEST PUSH1 0x0 PUSH1 0x20 DUP3 ADD SWAP1 POP DUP2 DUP2 SUB PUSH1 0x0 DUP4 ADD MSTORE PUSH2 0x444 DUP2 DUP5 PUSH2 0x3F1 JUMP JUMPDEST SWAP1 POP SWAP3 SWAP2 POP POP JUMP JUMPDEST PUSH1 0x0 DUP1 REVERT JUMPDEST PUSH1 0x0 DUP2 SWAP1 POP SWAP2 SWAP1 POP JUMP JUMPDEST PUSH2 0x464 DUP2 PUSH2 0x451 JUMP JUMPDEST DUP2 EQ PUSH2 0x46F JUMPI PUSH1 0x0 DUP1 REVERT JUMPDEST POP JUMP JUMPDEST PUSH1 0x0 DUP2 CALLDATALOAD SWAP1 POP PUSH2 0x481 DUP2 PUSH2 0x45B JUMP JUMPDEST SWAP3 SWAP2 POP POP JUMP JUMPDEST PUSH1 0x0 DUP1 PUSH1 0x40 DUP4 DUP6 SUB SLT ISZERO PUSH2 0x49E JUMPI PUSH2 0x49D PUSH2 0x44C JUMP JUMPDEST JUMPDEST PUSH1 0x0 PUSH2 0x4AC DUP6 DUP3 DUP7 ADD PUSH2 0x472 JUMP JUMPDEST SWAP3 POP POP PUSH1 0x20 PUSH2 0x4BD DUP6 DUP3 DUP7 ADD PUSH2 0x472 JUMP JUMPDEST SWAP2 POP POP SWAP3 POP SWAP3 SWAP1 POP JUMP JUMPDEST PUSH2 0x4D0 DUP2 PUSH2 0x451 JUMP JUMPDEST DUP3 MSTORE POP POP JUMP JUMPDEST PUSH1 0x0 PUSH1 0x20 DUP3 ADD SWAP1 POP PUSH2 0x4EB PUSH1 0x0 DUP4 ADD DUP5 PUSH2 0x4C7 JUMP JUMPDEST SWAP3 SWAP2 POP POP JUMP JUMPDEST PUSH1 0x0 DUP2 ISZERO ISZERO SWAP1 POP SWAP2 SWAP1 POP JUMP JUMPDEST PUSH2 0x506 DUP2 PUSH2 0x4F1 JUMP JUMPDEST DUP3 MSTORE POP POP JUMP JUMPDEST PUSH1 0x0 DUP2 MLOAD SWAP1 POP SWAP2 SWAP1 POP JUMP JUMPDEST PUSH1 0x0 DUP3 DUP3 MSTORE PUSH1 0x20 DUP3 ADD SWAP1 POP SWAP3 SWAP2 POP POP JUMP JUMPDEST PUSH1 0x0 DUP2 SWAP1 POP PUSH1 0x20 DUP3 ADD SWAP1 POP SWAP2 SWAP1 POP JUMP JUMPDEST PUSH2 0x541 DUP2 PUSH2 0x451 JUMP JUMPDEST DUP3 MSTORE POP POP JUMP JUMPDEST PUSH1 0x0 PUSH2 0x553 DUP4 DUP4 PUSH2 0x538 JUMP JUMPDEST PUSH1 0x20 DUP4 ADD SWAP1 POP SWAP3 SWAP2 POP POP JUMP JUMPDEST PUSH1 0x0 PUSH1 0x20 DUP3 ADD SWAP1 POP SWAP2 SWAP1 POP JUMP JUMPDEST PUSH1 0x0 PUSH2 0x577 DUP3 PUSH2 0x50C JUMP JUMPDEST PUSH2 0x581 DUP2 DUP6 PUSH2 0x517 JUMP JUMPDEST SWAP4 POP PUSH2 0x58C DUP4 PUSH2 0x528 JUMP JUMPDEST DUP1 PUSH1 0x0 JUMPDEST DUP4 DUP2 LT ISZERO PUSH2 0x5BD JUMPI DUP2 MLOAD PUSH2 0x5A4 DUP9 DUP3 PUSH2 0x547 JUMP JUMPDEST SWAP8 POP PUSH2 0x5AF DUP4 PUSH2 0x55F JUMP JUMPDEST SWAP3 POP POP PUSH1 0x1 DUP2 ADD SWAP1 POP PUSH2 0x590 JUMP JUMPDEST POP DUP6 SWAP4 POP POP POP POP SWAP3 SWAP2 POP POP JUMP JUMPDEST PUSH1 0x0 PUSH1 0x80 DUP3 ADD SWAP1 POP PUSH2 0x5DF PUSH1 0x0 DUP4 ADD DUP8 PUSH2 0x4C7 JUMP JUMPDEST DUP2 DUP2 SUB PUSH1 0x20 DUP4 ADD MSTORE PUSH2 0x5F1 DUP2 DUP7 PUSH2 0x3F1 JUMP JUMPDEST SWAP1 POP PUSH2 0x600 PUSH1 0x40 DUP4 ADD DUP6 PUSH2 0x4FD JUMP JUMPDEST DUP2 DUP2 SUB PUSH1 0x60 DUP4 ADD MSTORE PUSH2 0x612 DUP2 DUP5 PUSH2 0x56C JUMP JUMPDEST SWAP1 POP SWAP6 SWAP5 POP POP POP POP POP JUMP JUMPDEST PUSH32 0x4E487B7100000000000000000000000000000000000000000000000000000000 PUSH1 0x0 MSTORE PUSH1 0x41 PUSH1 0x4 MSTORE PUSH1 0x24 PUSH1 0x0 REVERT JUMPDEST PUSH32 0x4E487B7100000000000000000000000000000000000000000000000000000000 PUSH1 0x0 MSTORE PUSH1 0x22 PUSH1 0x4 MSTORE PUSH1 0x24 PUSH1 0x0 REVERT JUMPDEST PUSH1 0x0 PUSH1 0x2 DUP3 DIV SWAP1 POP PUSH1 0x1 DUP3 AND DUP1 PUSH2 0x693 JUMPI PUSH1 0x7F DUP3 AND SWAP2 POP JUMPDEST PUSH1 0x20 DUP3 LT DUP2 SUB PUSH2 0x6A6 JUMPI PUSH2 0x6A5 PUSH2 0x64C JUMP JUMPDEST JUMPDEST POP SWAP2 SWAP1 POP JUMP JUMPDEST PUSH1 0x0 DUP2 SWAP1 POP DUP2 PUSH1 0x0 MSTORE PUSH1 0x20 PUSH1 0x0 KECCAK256 SWAP1 POP SWAP2 SWAP1 POP JUMP JUMPDEST PUSH1 0x0 PUSH1 0x20 PUSH1 0x1F DUP4 ADD DIV SWAP1 POP SWAP2 SWAP1 POP JUMP JUMPDEST PUSH1 0x0 DUP3 DUP3 SHL SWAP1 POP SWAP3 SWAP2 POP POP JUMP JUMPDEST PUSH1 0x0 PUSH1 0x8 DUP4 MUL PUSH2 0x70E PUSH32 0xFFFFFFFFFFFFFFFFFFFFFFFFFFFFFFFFFFFFFFFFFFFFFFFFFFFFFFFFFFFFFFFF DUP3 PUSH2 0x6D1 JUMP JUMPDEST PUSH2 0x718 DUP7 DUP4 PUSH2 0x6D1 JUMP JUMPDEST SWAP6 POP DUP1 NOT DUP5 AND SWAP4 POP DUP1 DUP7 AND DUP5 OR SWAP3 POP POP POP SWAP4 SWAP3 POP POP POP JUMP JUMPDEST PUSH1 0x0 DUP2 SWAP1 POP SWAP2 SWAP1 POP JUMP JUMPDEST PUSH1 0x0 PUSH2 0x755 PUSH2 0x750 PUSH2 0x74B DUP5 PUSH2 0x451 JUMP JUMPDEST PUSH2 0x730 JUMP JUMPDEST PUSH2 0x451 JUMP JUMPDEST SWAP1 POP SWAP2 SWAP1 POP JUMP JUMPDEST PUSH1 0x0 DUP2 SWAP1 POP SWAP2 SWAP1 POP JUMP JUMPDEST PUSH2 0x76F DUP4 PUSH2 0x73A JUMP JUMPDEST PUSH2 0x783 PUSH2 0x77B DUP3 PUSH2 0x75C JUMP JUMPDEST DUP5 DUP5 SLOAD PUSH2 0x6DE JUMP JUMPDEST DUP3 SSTORE POP POP POP POP JUMP JUMPDEST PUSH1 0x0 SWAP1 JUMP JUMPDEST PUSH2 0x798 PUSH2 0x78B JUMP JUMPDEST PUSH2 0x7A3 DUP2 DUP5 DUP5 PUSH2 0x766 JUMP JUMPDEST POP POP POP JUMP JUMPDEST JUMPDEST DUP2 DUP2 LT ISZERO PUSH2 0x7C7 JUMPI PUSH2 0x7BC PUSH1 0x0 DUP3 PUSH2 0x790 JUMP JUMPDEST PUSH1 0x1 DUP2 ADD SWAP1 POP PUSH2 0x7A9 JUMP JUMPDEST POP POP JUMP JUMPDEST PUSH1 0x1F DUP3 GT ISZERO PUSH2 0x80C JUMPI PUSH2 0x7DD DUP2 PUSH2 0x6AC JUMP JUMPDEST PUSH2 0x7E6 DUP5 PUSH2 0x6C1 JUMP JUMPDEST DUP2 ADD PUSH1 0x20 DUP6 LT ISZERO PUSH2 0x7F5 JUMPI DUP2 SWAP1 POP JUMPDEST PUSH2 0x809 PUSH2 0x801 DUP6 PUSH2 0x6C1 JUMP JUMPDEST DUP4 ADD DUP3 PUSH2 0x7A8 JUMP JUMPDEST POP POP JUMPDEST POP POP POP JUMP JUMPDEST PUSH1 0x0 DUP3 DUP3 SHR SWAP1 POP SWAP3 SWAP2 POP POP JUMP JUMPDEST PUSH1 0x0 PUSH2 0x82F PUSH1 0x0 NOT DUP5 PUSH1 0x8 MUL PUSH2 0x811 JUMP JUMPDEST NOT DUP1 DUP4 AND SWAP2 POP POP SWAP3 SWAP2 POP POP JUMP JUMPDEST PUSH1 0x0 PUSH2 0x848 DUP4 DUP4 PUSH2 0x81E JUMP JUMPDEST SWAP2 POP DUP3 PUSH1 0x2 MUL DUP3 OR SWAP1 POP SWAP3 SWAP2 POP POP JUMP JUMPDEST PUSH2 0x861 DUP3 PUSH2 0x39A JUMP JUMPDEST PUSH8 0xFFFFFFFFFFFFFFFF DUP2 GT ISZERO PUSH2 0x87A JUMPI PUSH2 0x879 PUSH2 0x61D JUMP JUMPDEST JUMPDEST PUSH2 0x884 DUP3 SLOAD PUSH2 0x67B JUMP JUMPDEST PUSH2 0x88F DUP3 DUP3 DUP6 PUSH2 0x7CB JUMP JUMPDEST PUSH1 0x0 PUSH1 0x20 SWAP1 POP PUSH1 0x1F DUP4 GT PUSH1 0x1 DUP2 EQ PUSH2 0x8C2 JUMPI PUSH1 0x0 DUP5 ISZERO PUSH2 0x8B0 JUMPI DUP3 DUP8 ADD MLOAD SWAP1 POP JUMPDEST PUSH2 0x8BA DUP6 DUP3 PUSH2 0x83C JUMP JUMPDEST DUP7 SSTORE POP PUSH2 0x922 JUMP JUMPDEST PUSH1 0x1F NOT DUP5 AND PUSH2 0x8D0 DUP7 PUSH2 0x6AC JUMP JUMPDEST PUSH1 0x0 JUMPDEST DUP3 DUP2 LT ISZERO PUSH2 0x8F8 JUMPI DUP5 DUP10 ADD MLOAD DUP3 SSTORE PUSH1 0x1 DUP3 ADD SWAP2 POP PUSH1 0x20 DUP6 ADD SWAP5 POP PUSH1 0x20 DUP2 ADD SWAP1 POP PUSH2 0x8D3 JUMP JUMPDEST DUP7 DUP4 LT ISZERO PUSH2 0x915 JUMPI DUP5 DUP10 ADD MLOAD PUSH2 0x911 PUSH1 0x1F DUP10 AND DUP3 PUSH2 0x81E JUMP JUMPDEST DUP4 SSTORE POP JUMPDEST PUSH1 0x1 PUSH1 0x2 DUP9 MUL ADD DUP9 SSTORE POP POP POP JUMPDEST POP POP POP POP POP POP JUMP JUMPDEST PUSH32 0x4E487B7100000000000000000000000000000000000000000000000000000000 PUSH1 0x0 MSTORE PUSH1 0x11 PUSH1 0x4 MSTORE PUSH1 0x24 PUSH1 0x0 REVERT JUMPDEST PUSH1 0x0 PUSH2 0x964 DUP3 PUSH2 0x451 JUMP JUMPDEST SWAP2 POP PUSH2 0x96F DUP4 PUSH2 0x451 JUMP JUMPDEST SWAP3 POP DUP3 DUP3 ADD SWAP1 POP DUP1 DUP3 GT ISZERO PUSH2 0x987 JUMPI PUSH2 0x986 PUSH2 0x92A JUMP JUMPDEST JUMPDEST SWAP3 SWAP2 POP POP JUMP INVALID LOG2 PUSH5 0x6970667358 0x22 SLT KECCAK256 0xDE PUSH9 0xDD5D35F9AD8DB81271 CALLDATACOPY 0xC1 BLOCKHASH AND DUP12 CALLVALUE 0xDD SWAP13 CALL 0xAE 0x49 0x5D ISZERO 0xB3 0x4D REVERT BASEFEE SWAP16 NUMBER 0xAA JUMPI PUSH5 0x736F6C6343 STOP ADDMOD SLT STOP CALLER "
				},
				"gasEstimates": {
					"creation": {
						"codeDepositCost": "499800",
						"executionCost": "infinite",
						"totalCost": "infinite"
					},
					"external": {
						"myNoReturnFunc()": "24477",
						"myPureFunc(uint256,uint256)": "infinite",
						"myReturnFunc()": "infinite",
						"myUpdateFunc()": "infinite",
						"myViewFunc()": "infinite"
					}
				},
				"methodIdentifiers": {
					"myNoReturnFunc()": "fe3f60db",
					"myPureFunc(uint256,uint256)": "9e5ddd8b",
					"myReturnFunc()": "b8e53235",
					"myUpdateFunc()": "3dfb1546",
					"myViewFunc()": "65449b73"
				}
			},
			"storageLayout": {
				"storage": [
					{
						"astId": 4,
						"contract": "MyFunctions.sol:MyFunctions",
						"label": "myUint",
						"offset": 0,
						"slot": "0",
						"type": "t_uint256"
					},
					{
						"astId": 7,
						"contract": "MyFunctions.sol:MyFunctions",
						"label": "myString",
						"offset": 0,
						"slot": "1",
						"type": "t_string_storage"
					},
					{
						"astId": 10,
						"contract": "MyFunctions.sol:MyFunctions",
						"label": "myBool",
						"offset": 0,
						"slot": "2",
						"type": "t_bool"
					},
					{
						"astId": 18,
						"contract": "MyFunctions.sol:MyFunctions",
						"label": "myArr",
						"offset": 0,
						"slot": "3",
						"type": "t_array(t_uint256)dyn_storage"
					}
				],
				"types": {
					"t_array(t_uint256)dyn_storage": {
						"base": "t_uint256",
						"encoding": "dynamic_array",
						"label": "uint256[]",
						"numberOfBytes": "32"
					},
					"t_bool": {
						"encoding": "inplace",
						"label": "bool",
						"numberOfBytes": "1"
					},
					"t_string_storage": {
						"encoding": "bytes",
						"label": "string",
						"numberOfBytes": "32"
					},
					"t_uint256": {
						"encoding": "inplace",
						"label": "uint256",
						"numberOfBytes": "32"
					}
				}
			},
			"userdoc": {
				"kind": "user",
				"methods": {},
				"version": 1
			}
		}
	}
}