{
	"MyOperators.sol": {
		"MyOperators": {
			"abi": [
				{
					"inputs": [],
					"name": "example_1",
					"outputs": [],
					"stateMutability": "view",
					"type": "function"
				},
				{
					"inputs": [],
					"name": "example_2",
					"outputs": [],
					"stateMutability": "view",
					"type": "function"
				},
				{
					"inputs": [],
					"name": "example_3",
					"outputs": [],
					"stateMutability": "view",
					"type": "function"
				},
				{
					"inputs": [],
					"name": "example_4",
					"outputs": [],
					"stateMutability": "view",
					"type": "function"
				},
				{
					"inputs": [],
					"name": "example_5",
					"outputs": [],
					"stateMutability": "view",
					"type": "function"
				}
			],
			"devdoc": {
				"kind": "dev",
				"methods": {},
				"version": 1
			},
			"evm": {
				"assembly": "    /* \"MyOperators.sol\":59:456  contract MyOperators {... */\n  mstore(0x40, 0x80)\n    /* \"MyOperators.sol\":96:97  1 */\n  0x01\n    /* \"MyOperators.sol\":86:97  uint8 a = 1 */\n  0x00\n  dup1\n  0x0100\n  exp\n  dup2\n  sload\n  dup2\n  0xff\n  mul\n  not\n  and\n  swap1\n  dup4\n  0xff\n  and\n  mul\n  or\n  swap1\n  sstore\n  pop\n    /* \"MyOperators.sol\":113:114  2 */\n  0x02\n    /* \"MyOperators.sol\":103:114  uint8 b = 2 */\n  0x00\n  exp(0x0100, 0x01)\n  dup2\n  sload\n  dup2\n  0xff\n  mul\n  not\n  and\n  swap1\n  dup4\n  0xff\n  and\n  mul\n  or\n  swap1\n  sstore\n  pop\n    /* \"MyOperators.sol\":130:131  3 */\n  0x03\n    /* \"MyOperators.sol\":120:131  uint8 c = 3 */\n  0x00\n  exp(0x0100, 0x02)\n  dup2\n  sload\n  dup2\n  0xff\n  mul\n  not\n  and\n  swap1\n  dup4\n  0xff\n  and\n  mul\n  or\n  swap1\n  sstore\n  pop\n    /* \"MyOperators.sol\":59:456  contract MyOperators {... */\n  callvalue\n  dup1\n  iszero\n  tag_1\n  jumpi\n  0x00\n  dup1\n  revert\ntag_1:\n  pop\n  dataSize(sub_0)\n  dup1\n  dataOffset(sub_0)\n  0x00\n  codecopy\n  0x00\n  return\nstop\n\nsub_0: assembly {\n        /* \"MyOperators.sol\":59:456  contract MyOperators {... */\n      mstore(0x40, 0x80)\n      callvalue\n      dup1\n      iszero\n      tag_1\n      jumpi\n      0x00\n      dup1\n      revert\n    tag_1:\n      pop\n      jumpi(tag_2, lt(calldatasize, 0x04))\n      shr(0xe0, calldataload(0x00))\n      dup1\n      0x2c7ad161\n      eq\n      tag_3\n      jumpi\n      dup1\n      0x4ab3248b\n      eq\n      tag_4\n      jumpi\n      dup1\n      0xb4cf9978\n      eq\n      tag_5\n      jumpi\n      dup1\n      0xce406164\n      eq\n      tag_6\n      jumpi\n      dup1\n      0xeca2a027\n      eq\n      tag_7\n      jumpi\n    tag_2:\n      0x00\n      dup1\n      revert\n        /* \"MyOperators.sol\":143:202  function example_1() public view {... */\n    tag_3:\n      tag_8\n      tag_9\n      jump\t// in\n    tag_8:\n      stop\n        /* \"MyOperators.sol\":359:400  function example_4() public view {... */\n    tag_4:\n      tag_10\n      tag_11\n      jump\t// in\n    tag_10:\n      stop\n        /* \"MyOperators.sol\":208:304  function example_2() public view  {... */\n    tag_5:\n      tag_12\n      tag_13\n      jump\t// in\n    tag_12:\n      stop\n        /* \"MyOperators.sol\":407:448  function example_5() public view {... */\n    tag_6:\n      tag_14\n      tag_15\n      jump\t// in\n    tag_14:\n      stop\n        /* \"MyOperators.sol\":311:352  function example_3() public view {... */\n    tag_7:\n      tag_16\n      tag_17\n      jump\t// in\n    tag_16:\n      stop\n        /* \"MyOperators.sol\":143:202  function example_1() public view {... */\n    tag_9:\n        /* \"MyOperators.sol\":194:195  c */\n      0x00\n      0x02\n      swap1\n      sload\n      swap1\n      0x0100\n      exp\n      swap1\n      div\n      0xff\n      and\n        /* \"MyOperators.sol\":190:191  b */\n      0x00\n      0x01\n      swap1\n      sload\n      swap1\n      0x0100\n      exp\n      swap1\n      div\n      0xff\n      and\n        /* \"MyOperators.sol\":186:187  a */\n      0x00\n      dup1\n      sload\n      swap1\n      0x0100\n      exp\n      swap1\n      div\n      0xff\n      and\n        /* \"MyOperators.sol\":186:191  a * b */\n      tag_19\n      swap2\n      swap1\n      tag_20\n      jump\t// in\n    tag_19:\n        /* \"MyOperators.sol\":186:195  a * b - c */\n      tag_21\n      swap2\n      swap1\n      tag_22\n      jump\t// in\n    tag_21:\n      pop\n        /* \"MyOperators.sol\":143:202  function example_1() public view {... */\n      jump\t// out\n        /* \"MyOperators.sol\":359:400  function example_4() public view {... */\n    tag_11:\n      jump\t// out\n        /* \"MyOperators.sol\":208:304  function example_2() public view  {... */\n    tag_13:\n        /* \"MyOperators.sol\":253:267  uint8 newValue */\n      0x00\n        /* \"MyOperators.sol\":295:296  c */\n      dup1\n      0x02\n      swap1\n      sload\n      swap1\n      0x0100\n      exp\n      swap1\n      div\n      0xff\n      and\n        /* \"MyOperators.sol\":291:292  b */\n      0x00\n      0x01\n      swap1\n      sload\n      swap1\n      0x0100\n      exp\n      swap1\n      div\n      0xff\n      and\n        /* \"MyOperators.sol\":287:288  a */\n      0x00\n      dup1\n      sload\n      swap1\n      0x0100\n      exp\n      swap1\n      div\n      0xff\n      and\n        /* \"MyOperators.sol\":287:292  a * b */\n      tag_25\n      swap2\n      swap1\n      tag_20\n      jump\t// in\n    tag_25:\n        /* \"MyOperators.sol\":287:296  a * b * c */\n      tag_26\n      swap2\n      swap1\n      tag_20\n      jump\t// in\n    tag_26:\n        /* \"MyOperators.sol\":276:296  newValue = a * b * c */\n      swap1\n      pop\n        /* \"MyOperators.sol\":242:304  {... */\n      pop\n        /* \"MyOperators.sol\":208:304  function example_2() public view  {... */\n      jump\t// out\n        /* \"MyOperators.sol\":407:448  function example_5() public view {... */\n    tag_15:\n      jump\t// out\n        /* \"MyOperators.sol\":311:352  function example_3() public view {... */\n    tag_17:\n      jump\t// out\n        /* \"#utility.yul\":7:93   */\n    tag_29:\n        /* \"#utility.yul\":42:49   */\n      0x00\n        /* \"#utility.yul\":82:86   */\n      0xff\n        /* \"#utility.yul\":75:80   */\n      dup3\n        /* \"#utility.yul\":71:87   */\n      and\n        /* \"#utility.yul\":60:87   */\n      swap1\n      pop\n        /* \"#utility.yul\":7:93   */\n      swap2\n      swap1\n      pop\n      jump\t// out\n        /* \"#utility.yul\":99:279   */\n    tag_30:\n        /* \"#utility.yul\":147:224   */\n      0x4e487b7100000000000000000000000000000000000000000000000000000000\n        /* \"#utility.yul\":144:145   */\n      0x00\n        /* \"#utility.yul\":137:225   */\n      mstore\n        /* \"#utility.yul\":244:248   */\n      0x11\n        /* \"#utility.yul\":241:242   */\n      0x04\n        /* \"#utility.yul\":234:249   */\n      mstore\n        /* \"#utility.yul\":268:272   */\n      0x24\n        /* \"#utility.yul\":265:266   */\n      0x00\n        /* \"#utility.yul\":258:273   */\n      revert\n        /* \"#utility.yul\":285:556   */\n    tag_20:\n        /* \"#utility.yul\":323:330   */\n      0x00\n        /* \"#utility.yul\":346:364   */\n      tag_35\n        /* \"#utility.yul\":362:363   */\n      dup3\n        /* \"#utility.yul\":346:364   */\n      tag_29\n      jump\t// in\n    tag_35:\n        /* \"#utility.yul\":341:364   */\n      swap2\n      pop\n        /* \"#utility.yul\":378:396   */\n      tag_36\n        /* \"#utility.yul\":394:395   */\n      dup4\n        /* \"#utility.yul\":378:396   */\n      tag_29\n      jump\t// in\n    tag_36:\n        /* \"#utility.yul\":373:396   */\n      swap3\n      pop\n        /* \"#utility.yul\":431:432   */\n      dup3\n        /* \"#utility.yul\":428:429   */\n      dup3\n        /* \"#utility.yul\":424:433   */\n      mul\n        /* \"#utility.yul\":453:481   */\n      tag_37\n        /* \"#utility.yul\":469:480   */\n      dup2\n        /* \"#utility.yul\":453:481   */\n      tag_29\n      jump\t// in\n    tag_37:\n        /* \"#utility.yul\":442:481   */\n      swap2\n      pop\n        /* \"#utility.yul\":513:524   */\n      dup1\n        /* \"#utility.yul\":504:511   */\n      dup3\n        /* \"#utility.yul\":501:525   */\n      eq\n        /* \"#utility.yul\":491:549   */\n      tag_38\n      jumpi\n        /* \"#utility.yul\":529:547   */\n      tag_39\n      tag_30\n      jump\t// in\n    tag_39:\n        /* \"#utility.yul\":491:549   */\n    tag_38:\n        /* \"#utility.yul\":331:556   */\n      pop\n        /* \"#utility.yul\":285:556   */\n      swap3\n      swap2\n      pop\n      pop\n      jump\t// out\n        /* \"#utility.yul\":562:753   */\n    tag_22:\n        /* \"#utility.yul\":600:604   */\n      0x00\n        /* \"#utility.yul\":620:638   */\n      tag_41\n        /* \"#utility.yul\":636:637   */\n      dup3\n        /* \"#utility.yul\":620:638   */\n      tag_29\n      jump\t// in\n    tag_41:\n        /* \"#utility.yul\":615:638   */\n      swap2\n      pop\n        /* \"#utility.yul\":652:670   */\n      tag_42\n        /* \"#utility.yul\":668:669   */\n      dup4\n        /* \"#utility.yul\":652:670   */\n      tag_29\n      jump\t// in\n    tag_42:\n        /* \"#utility.yul\":647:670   */\n      swap3\n      pop\n        /* \"#utility.yul\":694:695   */\n      dup3\n        /* \"#utility.yul\":691:692   */\n      dup3\n        /* \"#utility.yul\":687:696   */\n      sub\n        /* \"#utility.yul\":679:696   */\n      swap1\n      pop\n        /* \"#utility.yul\":718:722   */\n      0xff\n        /* \"#utility.yul\":712:716   */\n      dup2\n        /* \"#utility.yul\":709:723   */\n      gt\n        /* \"#utility.yul\":706:746   */\n      iszero\n      tag_43\n      jumpi\n        /* \"#utility.yul\":726:744   */\n      tag_44\n      tag_30\n      jump\t// in\n    tag_44:\n        /* \"#utility.yul\":706:746   */\n    tag_43:\n        /* \"#utility.yul\":562:753   */\n      swap3\n      swap2\n      pop\n      pop\n      jump\t// out\n\n    auxdata: 0xa26469706673582212205bc6b9483a70b2d8d3e406cdd635bc742d01fc8a4ea9ea6ce2c23cb971dd5f1d64736f6c63430008120033\n}\n",
				"bytecode": {
					"linkReferences": {},
					"object": "608060405260016000806101000a81548160ff021916908360ff1602179055506002600060016101000a81548160ff021916908360ff1602179055506003600060026101000a81548160ff021916908360ff16021790555034801561006357600080fd5b50610205806100736000396000f3fe608060405234801561001057600080fd5b50600436106100575760003560e01c80632c7ad1611461005c5780634ab3248b14610066578063b4cf997814610070578063ce4061641461007a578063eca2a02714610084575b600080fd5b61006461008e565b005b61006e6100d3565b005b6100786100d5565b005b61008261011d565b005b61008c61011f565b005b600060029054906101000a900460ff16600060019054906101000a900460ff1660008054906101000a900460ff166100c6919061015d565b6100d0919061019a565b50565b565b60008060029054906101000a900460ff16600060019054906101000a900460ff1660008054906101000a900460ff1661010e919061015d565b610118919061015d565b905050565b565b565b600060ff82169050919050565b7f4e487b7100000000000000000000000000000000000000000000000000000000600052601160045260246000fd5b600061016882610121565b915061017383610121565b925082820261018181610121565b91508082146101935761019261012e565b5b5092915050565b60006101a582610121565b91506101b083610121565b9250828203905060ff8111156101c9576101c861012e565b5b9291505056fea26469706673582212205bc6b9483a70b2d8d3e406cdd635bc742d01fc8a4ea9ea6ce2c23cb971dd5f1d64736f6c63430008120033",
					"opcodes": "PUSH1 0x80 PUSH1 0x40 MSTORE PUSH1 0x1 PUSH1 0x0 DUP1 PUSH2 0x100 EXP DUP2 SLOAD DUP2 PUSH1 0xFF MUL NOT AND SWAP1 DUP4 PUSH1 0xFF AND MUL OR SWAP1 SSTORE POP PUSH1 0x2 PUSH1 0x0 PUSH1 0x1 PUSH2 0x100 EXP DUP2 SLOAD DUP2 PUSH1 0xFF MUL NOT AND SWAP1 DUP4 PUSH1 0xFF AND MUL OR SWAP1 SSTORE POP PUSH1 0x3 PUSH1 0x0 PUSH1 0x2 PUSH2 0x100 EXP DUP2 SLOAD DUP2 PUSH1 0xFF MUL NOT AND SWAP1 DUP4 PUSH1 0xFF AND MUL OR SWAP1 SSTORE POP CALLVALUE DUP1 ISZERO PUSH2 0x63 JUMPI PUSH1 0x0 DUP1 REVERT JUMPDEST POP PUSH2 0x205 DUP1 PUSH2 0x73 PUSH1 0x0 CODECOPY PUSH1 0x0 RETURN INVALID PUSH1 0x80 PUSH1 0x40 MSTORE CALLVALUE DUP1 ISZERO PUSH2 0x10 JUMPI PUSH1 0x0 DUP1 REVERT JUMPDEST POP PUSH1 0x4 CALLDATASIZE LT PUSH2 0x57 JUMPI PUSH1 0x0 CALLDATALOAD PUSH1 0xE0 SHR DUP1 PUSH4 0x2C7AD161 EQ PUSH2 0x5C JUMPI DUP1 PUSH4 0x4AB3248B EQ PUSH2 0x66 JUMPI DUP1 PUSH4 0xB4CF9978 EQ PUSH2 0x70 JUMPI DUP1 PUSH4 0xCE406164 EQ PUSH2 0x7A JUMPI DUP1 PUSH4 0xECA2A027 EQ PUSH2 0x84 JUMPI JUMPDEST PUSH1 0x0 DUP1 REVERT JUMPDEST PUSH2 0x64 PUSH2 0x8E JUMP JUMPDEST STOP JUMPDEST PUSH2 0x6E PUSH2 0xD3 JUMP JUMPDEST STOP JUMPDEST PUSH2 0x78 PUSH2 0xD5 JUMP JUMPDEST STOP JUMPDEST PUSH2 0x82 PUSH2 0x11D JUMP JUMPDEST STOP JUMPDEST PUSH2 0x8C PUSH2 0x11F JUMP JUMPDEST STOP JUMPDEST PUSH1 0x0 PUSH1 0x2 SWAP1 SLOAD SWAP1 PUSH2 0x100 EXP SWAP1 DIV PUSH1 0xFF AND PUSH1 0x0 PUSH1 0x1 SWAP1 SLOAD SWAP1 PUSH2 0x100 EXP SWAP1 DIV PUSH1 0xFF AND PUSH1 0x0 DUP1 SLOAD SWAP1 PUSH2 0x100 EXP SWAP1 DIV PUSH1 0xFF AND PUSH2 0xC6 SWAP2 SWAP1 PUSH2 0x15D JUMP JUMPDEST PUSH2 0xD0 SWAP2 SWAP1 PUSH2 0x19A JUMP JUMPDEST POP JUMP JUMPDEST JUMP JUMPDEST PUSH1 0x0 DUP1 PUSH1 0x2 SWAP1 SLOAD SWAP1 PUSH2 0x100 EXP SWAP1 DIV PUSH1 0xFF AND PUSH1 0x0 PUSH1 0x1 SWAP1 SLOAD SWAP1 PUSH2 0x100 EXP SWAP1 DIV PUSH1 0xFF AND PUSH1 0x0 DUP1 SLOAD SWAP1 PUSH2 0x100 EXP SWAP1 DIV PUSH1 0xFF AND PUSH2 0x10E SWAP2 SWAP1 PUSH2 0x15D JUMP JUMPDEST PUSH2 0x118 SWAP2 SWAP1 PUSH2 0x15D JUMP JUMPDEST SWAP1 POP POP JUMP JUMPDEST JUMP JUMPDEST JUMP JUMPDEST PUSH1 0x0 PUSH1 0xFF DUP3 AND SWAP1 POP SWAP2 SWAP1 POP JUMP JUMPDEST PUSH32 0x4E487B7100000000000000000000000000000000000000000000000000000000 PUSH1 0x0 MSTORE PUSH1 0x11 PUSH1 0x4 MSTORE PUSH1 0x24 PUSH1 0x0 REVERT JUMPDEST PUSH1 0x0 PUSH2 0x168 DUP3 PUSH2 0x121 JUMP JUMPDEST SWAP2 POP PUSH2 0x173 DUP4 PUSH2 0x121 JUMP JUMPDEST SWAP3 POP DUP3 DUP3 MUL PUSH2 0x181 DUP2 PUSH2 0x121 JUMP JUMPDEST SWAP2 POP DUP1 DUP3 EQ PUSH2 0x193 JUMPI PUSH2 0x192 PUSH2 0x12E JUMP JUMPDEST JUMPDEST POP SWAP3 SWAP2 POP POP JUMP JUMPDEST PUSH1 0x0 PUSH2 0x1A5 DUP3 PUSH2 0x121 JUMP JUMPDEST SWAP2 POP PUSH2 0x1B0 DUP4 PUSH2 0x121 JUMP JUMPDEST SWAP3 POP DUP3 DUP3 SUB SWAP1 POP PUSH1 0xFF DUP2 GT ISZERO PUSH2 0x1C9 JUMPI PUSH2 0x1C8 PUSH2 0x12E JUMP JUMPDEST JUMPDEST SWAP3 SWAP2 POP POP JUMP INVALID LOG2 PUSH5 0x6970667358 0x22 SLT KECCAK256 JUMPDEST 0xC6 0xB9 BASEFEE GASPRICE PUSH17 0xB2D8D3E406CDD635BC742D01FC8A4EA9EA PUSH13 0xE2C23CB971DD5F1D64736F6C63 NUMBER STOP ADDMOD SLT STOP CALLER "
				},
				"gasEstimates": {
					"creation": {
						"codeDepositCost": "103400",
						"executionCost": "73054",
						"totalCost": "176454"
					},
					"external": {
						"example_1()": "infinite",
						"example_2()": "infinite",
						"example_3()": "210",
						"example_4()": "144",
						"example_5()": "188"
					}
				},
				"methodIdentifiers": {
					"example_1()": "2c7ad161",
					"example_2()": "b4cf9978",
					"example_3()": "eca2a027",
					"example_4()": "4ab3248b",
					"example_5()": "ce406164"
				}
			},
			"storageLayout": {
				"storage": [
					{
						"astId": 4,
						"contract": "MyOperators.sol:MyOperators",
						"label": "a",
						"offset": 0,
						"slot": "0",
						"type": "t_uint8"
					},
					{
						"astId": 7,
						"contract": "MyOperators.sol:MyOperators",
						"label": "b",
						"offset": 1,
						"slot": "0",
						"type": "t_uint8"
					},
					{
						"astId": 10,
						"contract": "MyOperators.sol:MyOperators",
						"label": "c",
						"offset": 2,
						"slot": "0",
						"type": "t_uint8"
					}
				],
				"types": {
					"t_uint8": {
						"encoding": "inplace",
						"label": "uint8",
						"numberOfBytes": "1"
					}
				}
			},
			"userdoc": {
				"kind": "user",
				"methods": {},
				"version": 1
			}
		}
	}
}