{
	"MyPayable.sol": {
		"MyPayable": {
			"abi": [
				{
					"inputs": [],
					"stateMutability": "payable",
					"type": "constructor"
				},
				{
					"stateMutability": "payable",
					"type": "fallback"
				},
				{
					"inputs": [
						{
							"internalType": "address payable",
							"name": "_user",
							"type": "address"
						}
					],
					"name": "callEth",
					"outputs": [],
					"stateMutability": "payable",
					"type": "function"
				},
				{
					"inputs": [],
					"name": "deposit",
					"outputs": [],
					"stateMutability": "payable",
					"type": "function"
				},
				{
					"inputs": [],
					"name": "getThisContractBalance",
					"outputs": [
						{
							"internalType": "uint256",
							"name": "",
							"type": "uint256"
						}
					],
					"stateMutability": "view",
					"type": "function"
				},
				{
					"inputs": [],
					"name": "myAddress",
					"outputs": [
						{
							"internalType": "address payable",
							"name": "",
							"type": "address"
						}
					],
					"stateMutability": "view",
					"type": "function"
				},
				{
					"inputs": [
						{
							"internalType": "address payable",
							"name": "_user",
							"type": "address"
						}
					],
					"name": "sendEth",
					"outputs": [],
					"stateMutability": "payable",
					"type": "function"
				},
				{
					"inputs": [
						{
							"internalType": "address payable",
							"name": "_user",
							"type": "address"
						}
					],
					"name": "transferEth",
					"outputs": [],
					"stateMutability": "payable",
					"type": "function"
				},
				{
					"stateMutability": "payable",
					"type": "receive"
				}
			],
			"devdoc": {
				"kind": "dev",
				"methods": {},
				"version": 1
			},
			"evm": {
				"assembly": "    /* \"MyPayable.sol\":58:789  contract MyPayable {... */\n  mstore(0x40, 0x80)\n    /* \"MyPayable.sol\":163:173  msg.sender */\n  caller\n    /* \"MyPayable.sol\":143:152  myAddress */\n  0x00\n  dup1\n    /* \"MyPayable.sol\":143:174  myAddress = payable(msg.sender) */\n  0x0100\n  exp\n  dup2\n  sload\n  dup2\n  0xffffffffffffffffffffffffffffffffffffffff\n  mul\n  not\n  and\n  swap1\n  dup4\n  0xffffffffffffffffffffffffffffffffffffffff\n  and\n  mul\n  or\n  swap1\n  sstore\n  pop\n    /* \"MyPayable.sol\":58:789  contract MyPayable {... */\n  dataSize(sub_0)\n  dup1\n  dataOffset(sub_0)\n  0x00\n  codecopy\n  0x00\n  return\nstop\n\nsub_0: assembly {\n        /* \"MyPayable.sol\":58:789  contract MyPayable {... */\n      mstore(0x40, 0x80)\n      jumpi(tag_1, lt(calldatasize, 0x04))\n      shr(0xe0, calldataload(0x00))\n      dup1\n      0x26b85ee1\n      eq\n      tag_3\n      jumpi\n      dup1\n      0x300efa65\n      eq\n      tag_4\n      jumpi\n      dup1\n      0x30df47af\n      eq\n      tag_5\n      jumpi\n      dup1\n      0x76a54c60\n      eq\n      tag_6\n      jumpi\n      dup1\n      0xd0e30db0\n      eq\n      tag_7\n      jumpi\n      dup1\n      0xd9e8cf91\n      eq\n      tag_8\n      jumpi\n      jump(tag_2)\n    tag_1:\n      jumpi(tag_2, calldatasize)\n      stop\n    tag_2:\n      stop\n        /* \"MyPayable.sol\":80:112  address payable public myAddress */\n    tag_3:\n      callvalue\n      dup1\n      iszero\n      tag_13\n      jumpi\n      0x00\n      dup1\n      revert\n    tag_13:\n      pop\n      tag_14\n      tag_15\n      jump\t// in\n    tag_14:\n      mload(0x40)\n      tag_16\n      swap2\n      swap1\n      tag_17\n      jump\t// in\n    tag_16:\n      mload(0x40)\n      dup1\n      swap2\n      sub\n      swap1\n      return\n        /* \"MyPayable.sol\":219:346  function getThisContractBalance() public view returns(uint256) {... */\n    tag_4:\n      callvalue\n      dup1\n      iszero\n      tag_18\n      jumpi\n      0x00\n      dup1\n      revert\n    tag_18:\n      pop\n      tag_19\n      tag_20\n      jump\t// in\n    tag_19:\n      mload(0x40)\n      tag_21\n      swap2\n      swap1\n      tag_22\n      jump\t// in\n    tag_21:\n      mload(0x40)\n      dup1\n      swap2\n      sub\n      swap1\n      return\n        /* \"MyPayable.sol\":348:437  function transferEth(address payable _user) public payable {... */\n    tag_5:\n      tag_23\n      0x04\n      dup1\n      calldatasize\n      sub\n      dup2\n      add\n      swap1\n      tag_24\n      swap2\n      swap1\n      tag_25\n      jump\t// in\n    tag_24:\n      tag_26\n      jump\t// in\n    tag_23:\n      stop\n        /* \"MyPayable.sol\":439:579  function sendEth(address payable _user) public payable {... */\n    tag_6:\n      tag_27\n      0x04\n      dup1\n      calldatasize\n      sub\n      dup2\n      add\n      swap1\n      tag_28\n      swap2\n      swap1\n      tag_25\n      jump\t// in\n    tag_28:\n      tag_29\n      jump\t// in\n    tag_27:\n      stop\n        /* \"MyPayable.sol\":179:217  function deposit() public payable {... */\n    tag_7:\n      tag_30\n      tag_31\n      jump\t// in\n    tag_30:\n      stop\n        /* \"MyPayable.sol\":581:718  function callEth(address payable _user) public payable {... */\n    tag_8:\n      tag_32\n      0x04\n      dup1\n      calldatasize\n      sub\n      dup2\n      add\n      swap1\n      tag_33\n      swap2\n      swap1\n      tag_25\n      jump\t// in\n    tag_33:\n      tag_34\n      jump\t// in\n    tag_32:\n      stop\n        /* \"MyPayable.sol\":80:112  address payable public myAddress */\n    tag_15:\n      0x00\n      dup1\n      sload\n      swap1\n      0x0100\n      exp\n      swap1\n      div\n      0xffffffffffffffffffffffffffffffffffffffff\n      and\n      dup2\n      jump\t// out\n        /* \"MyPayable.sol\":219:346  function getThisContractBalance() public view returns(uint256) {... */\n    tag_20:\n        /* \"MyPayable.sol\":273:280  uint256 */\n      0x00\n        /* \"MyPayable.sol\":288:302  uint256 amount */\n      dup1\n        /* \"MyPayable.sol\":305:326  address(this).balance */\n      selfbalance\n        /* \"MyPayable.sol\":288:326  uint256 amount = address(this).balance */\n      swap1\n      pop\n        /* \"MyPayable.sol\":336:342  amount */\n      dup1\n        /* \"MyPayable.sol\":329:342  return amount */\n      swap2\n      pop\n      pop\n        /* \"MyPayable.sol\":219:346  function getThisContractBalance() public view returns(uint256) {... */\n      swap1\n      jump\t// out\n        /* \"MyPayable.sol\":348:437  function transferEth(address payable _user) public payable {... */\n    tag_26:\n        /* \"MyPayable.sol\":409:414  _user */\n      dup1\n        /* \"MyPayable.sol\":409:423  _user.transfer */\n      0xffffffffffffffffffffffffffffffffffffffff\n      and\n        /* \"MyPayable.sol\":409:434  _user.transfer(msg.value) */\n      0x08fc\n        /* \"MyPayable.sol\":424:433  msg.value */\n      callvalue\n        /* \"MyPayable.sol\":409:434  _user.transfer(msg.value) */\n      swap1\n      dup2\n      iszero\n      mul\n      swap1\n      mload(0x40)\n      0x00\n      mload(0x40)\n      dup1\n      dup4\n      sub\n      dup2\n      dup6\n      dup9\n      dup9\n      call\n      swap4\n      pop\n      pop\n      pop\n      pop\n      iszero\n      dup1\n      iszero\n      tag_38\n      jumpi\n      returndatasize\n      0x00\n      dup1\n      returndatacopy\n      revert(0x00, returndatasize)\n    tag_38:\n      pop\n        /* \"MyPayable.sol\":348:437  function transferEth(address payable _user) public payable {... */\n      pop\n      jump\t// out\n        /* \"MyPayable.sol\":439:579  function sendEth(address payable _user) public payable {... */\n    tag_29:\n        /* \"MyPayable.sol\":500:512  bool didSend */\n      0x00\n        /* \"MyPayable.sol\":515:520  _user */\n      dup2\n        /* \"MyPayable.sol\":515:525  _user.send */\n      0xffffffffffffffffffffffffffffffffffffffff\n      and\n        /* \"MyPayable.sol\":515:536  _user.send(msg.value) */\n      0x08fc\n        /* \"MyPayable.sol\":526:535  msg.value */\n      callvalue\n        /* \"MyPayable.sol\":515:536  _user.send(msg.value) */\n      swap1\n      dup2\n      iszero\n      mul\n      swap1\n      mload(0x40)\n      0x00\n      mload(0x40)\n      dup1\n      dup4\n      sub\n      dup2\n      dup6\n      dup9\n      dup9\n      call\n      swap4\n      pop\n      pop\n      pop\n      pop\n        /* \"MyPayable.sol\":500:536  bool didSend = _user.send(msg.value) */\n      swap1\n      pop\n        /* \"MyPayable.sol\":550:557  didSend */\n      dup1\n        /* \"MyPayable.sol\":542:576  require(didSend, \"Failed to send\") */\n      tag_41\n      jumpi\n      mload(0x40)\n      0x08c379a000000000000000000000000000000000000000000000000000000000\n      dup2\n      mstore\n      0x04\n      add\n      tag_42\n      swap1\n      tag_43\n      jump\t// in\n    tag_42:\n      mload(0x40)\n      dup1\n      swap2\n      sub\n      swap1\n      revert\n    tag_41:\n        /* \"MyPayable.sol\":494:579  {... */\n      pop\n        /* \"MyPayable.sol\":439:579  function sendEth(address payable _user) public payable {... */\n      pop\n      jump\t// out\n        /* \"MyPayable.sol\":179:217  function deposit() public payable {... */\n    tag_31:\n      jump\t// out\n        /* \"MyPayable.sol\":581:718  function callEth(address payable _user) public payable {... */\n    tag_34:\n        /* \"MyPayable.sol\":643:655  bool didSend */\n      0x00\n        /* \"MyPayable.sol\":661:666  _user */\n      dup2\n        /* \"MyPayable.sol\":661:671  _user.call */\n      0xffffffffffffffffffffffffffffffffffffffff\n      and\n        /* \"MyPayable.sol\":679:688  msg.value */\n      callvalue\n        /* \"MyPayable.sol\":661:693  _user.call{value: msg.value}(\"\") */\n      mload(0x40)\n      tag_46\n      swap1\n      tag_47\n      jump\t// in\n    tag_46:\n      0x00\n      mload(0x40)\n      dup1\n      dup4\n      sub\n      dup2\n      dup6\n      dup8\n      gas\n      call\n      swap3\n      pop\n      pop\n      pop\n      returndatasize\n      dup1\n      0x00\n      dup2\n      eq\n      tag_50\n      jumpi\n      mload(0x40)\n      swap2\n      pop\n      and(add(returndatasize, 0x3f), not(0x1f))\n      dup3\n      add\n      0x40\n      mstore\n      returndatasize\n      dup3\n      mstore\n      returndatasize\n      0x00\n      0x20\n      dup5\n      add\n      returndatacopy\n      jump(tag_49)\n    tag_50:\n      0x60\n      swap2\n      pop\n    tag_49:\n      pop\n        /* \"MyPayable.sol\":642:693  (bool didSend, ) = _user.call{value: msg.value}(\"\") */\n      pop\n      swap1\n      pop\n        /* \"MyPayable.sol\":707:714  didSend */\n      dup1\n        /* \"MyPayable.sol\":699:715  require(didSend) */\n      tag_51\n      jumpi\n      0x00\n      dup1\n      revert\n    tag_51:\n        /* \"MyPayable.sol\":636:718  {... */\n      pop\n        /* \"MyPayable.sol\":581:718  function callEth(address payable _user) public payable {... */\n      pop\n      jump\t// out\n        /* \"#utility.yul\":7:133   */\n    tag_52:\n        /* \"#utility.yul\":44:51   */\n      0x00\n        /* \"#utility.yul\":84:126   */\n      0xffffffffffffffffffffffffffffffffffffffff\n        /* \"#utility.yul\":77:82   */\n      dup3\n        /* \"#utility.yul\":73:127   */\n      and\n        /* \"#utility.yul\":62:127   */\n      swap1\n      pop\n        /* \"#utility.yul\":7:133   */\n      swap2\n      swap1\n      pop\n      jump\t// out\n        /* \"#utility.yul\":139:243   */\n    tag_53:\n        /* \"#utility.yul\":184:191   */\n      0x00\n        /* \"#utility.yul\":213:237   */\n      tag_71\n        /* \"#utility.yul\":231:236   */\n      dup3\n        /* \"#utility.yul\":213:237   */\n      tag_52\n      jump\t// in\n    tag_71:\n        /* \"#utility.yul\":202:237   */\n      swap1\n      pop\n        /* \"#utility.yul\":139:243   */\n      swap2\n      swap1\n      pop\n      jump\t// out\n        /* \"#utility.yul\":249:391   */\n    tag_54:\n        /* \"#utility.yul\":352:384   */\n      tag_73\n        /* \"#utility.yul\":378:383   */\n      dup2\n        /* \"#utility.yul\":352:384   */\n      tag_53\n      jump\t// in\n    tag_73:\n        /* \"#utility.yul\":347:350   */\n      dup3\n        /* \"#utility.yul\":340:385   */\n      mstore\n        /* \"#utility.yul\":249:391   */\n      pop\n      pop\n      jump\t// out\n        /* \"#utility.yul\":397:651   */\n    tag_17:\n        /* \"#utility.yul\":506:510   */\n      0x00\n        /* \"#utility.yul\":544:546   */\n      0x20\n        /* \"#utility.yul\":533:542   */\n      dup3\n        /* \"#utility.yul\":529:547   */\n      add\n        /* \"#utility.yul\":521:547   */\n      swap1\n      pop\n        /* \"#utility.yul\":557:644   */\n      tag_75\n        /* \"#utility.yul\":641:642   */\n      0x00\n        /* \"#utility.yul\":630:639   */\n      dup4\n        /* \"#utility.yul\":626:643   */\n      add\n        /* \"#utility.yul\":617:623   */\n      dup5\n        /* \"#utility.yul\":557:644   */\n      tag_54\n      jump\t// in\n    tag_75:\n        /* \"#utility.yul\":397:651   */\n      swap3\n      swap2\n      pop\n      pop\n      jump\t// out\n        /* \"#utility.yul\":657:734   */\n    tag_55:\n        /* \"#utility.yul\":694:701   */\n      0x00\n        /* \"#utility.yul\":723:728   */\n      dup2\n        /* \"#utility.yul\":712:728   */\n      swap1\n      pop\n        /* \"#utility.yul\":657:734   */\n      swap2\n      swap1\n      pop\n      jump\t// out\n        /* \"#utility.yul\":740:858   */\n    tag_56:\n        /* \"#utility.yul\":827:851   */\n      tag_78\n        /* \"#utility.yul\":845:850   */\n      dup2\n        /* \"#utility.yul\":827:851   */\n      tag_55\n      jump\t// in\n    tag_78:\n        /* \"#utility.yul\":822:825   */\n      dup3\n        /* \"#utility.yul\":815:852   */\n      mstore\n        /* \"#utility.yul\":740:858   */\n      pop\n      pop\n      jump\t// out\n        /* \"#utility.yul\":864:1086   */\n    tag_22:\n        /* \"#utility.yul\":957:961   */\n      0x00\n        /* \"#utility.yul\":995:997   */\n      0x20\n        /* \"#utility.yul\":984:993   */\n      dup3\n        /* \"#utility.yul\":980:998   */\n      add\n        /* \"#utility.yul\":972:998   */\n      swap1\n      pop\n        /* \"#utility.yul\":1008:1079   */\n      tag_80\n        /* \"#utility.yul\":1076:1077   */\n      0x00\n        /* \"#utility.yul\":1065:1074   */\n      dup4\n        /* \"#utility.yul\":1061:1078   */\n      add\n        /* \"#utility.yul\":1052:1058   */\n      dup5\n        /* \"#utility.yul\":1008:1079   */\n      tag_56\n      jump\t// in\n    tag_80:\n        /* \"#utility.yul\":864:1086   */\n      swap3\n      swap2\n      pop\n      pop\n      jump\t// out\n        /* \"#utility.yul\":1173:1290   */\n    tag_58:\n        /* \"#utility.yul\":1282:1283   */\n      0x00\n        /* \"#utility.yul\":1279:1280   */\n      dup1\n        /* \"#utility.yul\":1272:1284   */\n      revert\n        /* \"#utility.yul\":1419:1557   */\n    tag_60:\n        /* \"#utility.yul\":1500:1532   */\n      tag_85\n        /* \"#utility.yul\":1526:1531   */\n      dup2\n        /* \"#utility.yul\":1500:1532   */\n      tag_53\n      jump\t// in\n    tag_85:\n        /* \"#utility.yul\":1493:1498   */\n      dup2\n        /* \"#utility.yul\":1490:1533   */\n      eq\n        /* \"#utility.yul\":1480:1551   */\n      tag_86\n      jumpi\n        /* \"#utility.yul\":1547:1548   */\n      0x00\n        /* \"#utility.yul\":1544:1545   */\n      dup1\n        /* \"#utility.yul\":1537:1549   */\n      revert\n        /* \"#utility.yul\":1480:1551   */\n    tag_86:\n        /* \"#utility.yul\":1419:1557   */\n      pop\n      jump\t// out\n        /* \"#utility.yul\":1563:1718   */\n    tag_61:\n        /* \"#utility.yul\":1617:1622   */\n      0x00\n        /* \"#utility.yul\":1655:1661   */\n      dup2\n        /* \"#utility.yul\":1642:1662   */\n      calldataload\n        /* \"#utility.yul\":1633:1662   */\n      swap1\n      pop\n        /* \"#utility.yul\":1671:1712   */\n      tag_88\n        /* \"#utility.yul\":1706:1711   */\n      dup2\n        /* \"#utility.yul\":1671:1712   */\n      tag_60\n      jump\t// in\n    tag_88:\n        /* \"#utility.yul\":1563:1718   */\n      swap3\n      swap2\n      pop\n      pop\n      jump\t// out\n        /* \"#utility.yul\":1724:2069   */\n    tag_25:\n        /* \"#utility.yul\":1791:1797   */\n      0x00\n        /* \"#utility.yul\":1840:1842   */\n      0x20\n        /* \"#utility.yul\":1828:1837   */\n      dup3\n        /* \"#utility.yul\":1819:1826   */\n      dup5\n        /* \"#utility.yul\":1815:1838   */\n      sub\n        /* \"#utility.yul\":1811:1843   */\n      slt\n        /* \"#utility.yul\":1808:1927   */\n      iszero\n      tag_90\n      jumpi\n        /* \"#utility.yul\":1846:1925   */\n      tag_91\n      tag_58\n      jump\t// in\n    tag_91:\n        /* \"#utility.yul\":1808:1927   */\n    tag_90:\n        /* \"#utility.yul\":1966:1967   */\n      0x00\n        /* \"#utility.yul\":1991:2052   */\n      tag_92\n        /* \"#utility.yul\":2044:2051   */\n      dup5\n        /* \"#utility.yul\":2035:2041   */\n      dup3\n        /* \"#utility.yul\":2024:2033   */\n      dup6\n        /* \"#utility.yul\":2020:2042   */\n      add\n        /* \"#utility.yul\":1991:2052   */\n      tag_61\n      jump\t// in\n    tag_92:\n        /* \"#utility.yul\":1981:2052   */\n      swap2\n      pop\n        /* \"#utility.yul\":1937:2062   */\n      pop\n        /* \"#utility.yul\":1724:2069   */\n      swap3\n      swap2\n      pop\n      pop\n      jump\t// out\n        /* \"#utility.yul\":2075:2244   */\n    tag_62:\n        /* \"#utility.yul\":2159:2170   */\n      0x00\n        /* \"#utility.yul\":2193:2199   */\n      dup3\n        /* \"#utility.yul\":2188:2191   */\n      dup3\n        /* \"#utility.yul\":2181:2200   */\n      mstore\n        /* \"#utility.yul\":2233:2237   */\n      0x20\n        /* \"#utility.yul\":2228:2231   */\n      dup3\n        /* \"#utility.yul\":2224:2238   */\n      add\n        /* \"#utility.yul\":2209:2238   */\n      swap1\n      pop\n        /* \"#utility.yul\":2075:2244   */\n      swap3\n      swap2\n      pop\n      pop\n      jump\t// out\n        /* \"#utility.yul\":2250:2414   */\n    tag_63:\n        /* \"#utility.yul\":2390:2406   */\n      0x4661696c656420746f2073656e64000000000000000000000000000000000000\n        /* \"#utility.yul\":2386:2387   */\n      0x00\n        /* \"#utility.yul\":2378:2384   */\n      dup3\n        /* \"#utility.yul\":2374:2388   */\n      add\n        /* \"#utility.yul\":2367:2407   */\n      mstore\n        /* \"#utility.yul\":2250:2414   */\n      pop\n      jump\t// out\n        /* \"#utility.yul\":2420:2786   */\n    tag_64:\n        /* \"#utility.yul\":2562:2565   */\n      0x00\n        /* \"#utility.yul\":2583:2650   */\n      tag_96\n        /* \"#utility.yul\":2647:2649   */\n      0x0e\n        /* \"#utility.yul\":2642:2645   */\n      dup4\n        /* \"#utility.yul\":2583:2650   */\n      tag_62\n      jump\t// in\n    tag_96:\n        /* \"#utility.yul\":2576:2650   */\n      swap2\n      pop\n        /* \"#utility.yul\":2659:2752   */\n      tag_97\n        /* \"#utility.yul\":2748:2751   */\n      dup3\n        /* \"#utility.yul\":2659:2752   */\n      tag_63\n      jump\t// in\n    tag_97:\n        /* \"#utility.yul\":2777:2779   */\n      0x20\n        /* \"#utility.yul\":2772:2775   */\n      dup3\n        /* \"#utility.yul\":2768:2780   */\n      add\n        /* \"#utility.yul\":2761:2780   */\n      swap1\n      pop\n        /* \"#utility.yul\":2420:2786   */\n      swap2\n      swap1\n      pop\n      jump\t// out\n        /* \"#utility.yul\":2792:3211   */\n    tag_43:\n        /* \"#utility.yul\":2958:2962   */\n      0x00\n        /* \"#utility.yul\":2996:2998   */\n      0x20\n        /* \"#utility.yul\":2985:2994   */\n      dup3\n        /* \"#utility.yul\":2981:2999   */\n      add\n        /* \"#utility.yul\":2973:2999   */\n      swap1\n      pop\n        /* \"#utility.yul\":3045:3054   */\n      dup2\n        /* \"#utility.yul\":3039:3043   */\n      dup2\n        /* \"#utility.yul\":3035:3055   */\n      sub\n        /* \"#utility.yul\":3031:3032   */\n      0x00\n        /* \"#utility.yul\":3020:3029   */\n      dup4\n        /* \"#utility.yul\":3016:3033   */\n      add\n        /* \"#utility.yul\":3009:3056   */\n      mstore\n        /* \"#utility.yul\":3073:3204   */\n      tag_99\n        /* \"#utility.yul\":3199:3203   */\n      dup2\n        /* \"#utility.yul\":3073:3204   */\n      tag_64\n      jump\t// in\n    tag_99:\n        /* \"#utility.yul\":3065:3204   */\n      swap1\n      pop\n        /* \"#utility.yul\":2792:3211   */\n      swap2\n      swap1\n      pop\n      jump\t// out\n        /* \"#utility.yul\":3217:3364   */\n    tag_65:\n        /* \"#utility.yul\":3318:3329   */\n      0x00\n        /* \"#utility.yul\":3355:3358   */\n      dup2\n        /* \"#utility.yul\":3340:3358   */\n      swap1\n      pop\n        /* \"#utility.yul\":3217:3364   */\n      swap3\n      swap2\n      pop\n      pop\n      jump\t// out\n        /* \"#utility.yul\":3370:3484   */\n    tag_66:\n      pop\n      jump\t// out\n        /* \"#utility.yul\":3490:3888   */\n    tag_67:\n        /* \"#utility.yul\":3649:3652   */\n      0x00\n        /* \"#utility.yul\":3670:3753   */\n      tag_103\n        /* \"#utility.yul\":3751:3752   */\n      0x00\n        /* \"#utility.yul\":3746:3749   */\n      dup4\n        /* \"#utility.yul\":3670:3753   */\n      tag_65\n      jump\t// in\n    tag_103:\n        /* \"#utility.yul\":3663:3753   */\n      swap2\n      pop\n        /* \"#utility.yul\":3762:3855   */\n      tag_104\n        /* \"#utility.yul\":3851:3854   */\n      dup3\n        /* \"#utility.yul\":3762:3855   */\n      tag_66\n      jump\t// in\n    tag_104:\n        /* \"#utility.yul\":3880:3881   */\n      0x00\n        /* \"#utility.yul\":3875:3878   */\n      dup3\n        /* \"#utility.yul\":3871:3882   */\n      add\n        /* \"#utility.yul\":3864:3882   */\n      swap1\n      pop\n        /* \"#utility.yul\":3490:3888   */\n      swap2\n      swap1\n      pop\n      jump\t// out\n        /* \"#utility.yul\":3894:4273   */\n    tag_47:\n        /* \"#utility.yul\":4078:4081   */\n      0x00\n        /* \"#utility.yul\":4100:4247   */\n      tag_106\n        /* \"#utility.yul\":4243:4246   */\n      dup3\n        /* \"#utility.yul\":4100:4247   */\n      tag_67\n      jump\t// in\n    tag_106:\n        /* \"#utility.yul\":4093:4247   */\n      swap2\n      pop\n        /* \"#utility.yul\":4264:4267   */\n      dup2\n        /* \"#utility.yul\":4257:4267   */\n      swap1\n      pop\n        /* \"#utility.yul\":3894:4273   */\n      swap2\n      swap1\n      pop\n      jump\t// out\n\n    auxdata: 0xa2646970667358221220e9a843be0e1884218356a72a56bed0664bc35d2528f15b1b4425c13f9c979a6964736f6c63430008120033\n}\n",
				"bytecode": {
					"linkReferences": {},
					"object": "6080604052336000806101000a81548173ffffffffffffffffffffffffffffffffffffffff021916908373ffffffffffffffffffffffffffffffffffffffff160217905550610471806100536000396000f3fe6080604052600436106100595760003560e01c806326b85ee114610062578063300efa651461008d57806330df47af146100b857806376a54c60146100d4578063d0e30db0146100f0578063d9e8cf91146100fa57610060565b3661006057005b005b34801561006e57600080fd5b50610077610116565b60405161008491906102cb565b60405180910390f35b34801561009957600080fd5b506100a261013a565b6040516100af91906102ff565b60405180910390f35b6100d260048036038101906100cd919061034b565b610147565b005b6100ee60048036038101906100e9919061034b565b610191565b005b6100f861020e565b005b610114600480360381019061010f919061034b565b610210565b005b60008054906101000a900473ffffffffffffffffffffffffffffffffffffffff1681565b6000804790508091505090565b8073ffffffffffffffffffffffffffffffffffffffff166108fc349081150290604051600060405180830381858888f1935050505015801561018d573d6000803e3d6000fd5b5050565b60008173ffffffffffffffffffffffffffffffffffffffff166108fc349081150290604051600060405180830381858888f1935050505090508061020a576040517f08c379a0000000000000000000000000000000000000000000000000000000008152600401610201906103d5565b60405180910390fd5b5050565b565b60008173ffffffffffffffffffffffffffffffffffffffff163460405161023690610426565b60006040518083038185875af1925050503d8060008114610273576040519150601f19603f3d011682016040523d82523d6000602084013e610278565b606091505b505090508061028657600080fd5b5050565b600073ffffffffffffffffffffffffffffffffffffffff82169050919050565b60006102b58261028a565b9050919050565b6102c5816102aa565b82525050565b60006020820190506102e060008301846102bc565b92915050565b6000819050919050565b6102f9816102e6565b82525050565b600060208201905061031460008301846102f0565b92915050565b600080fd5b610328816102aa565b811461033357600080fd5b50565b6000813590506103458161031f565b92915050565b6000602082840312156103615761036061031a565b5b600061036f84828501610336565b91505092915050565b600082825260208201905092915050565b7f4661696c656420746f2073656e64000000000000000000000000000000000000600082015250565b60006103bf600e83610378565b91506103ca82610389565b602082019050919050565b600060208201905081810360008301526103ee816103b2565b9050919050565b600081905092915050565b50565b60006104106000836103f5565b915061041b82610400565b600082019050919050565b600061043182610403565b915081905091905056fea2646970667358221220e9a843be0e1884218356a72a56bed0664bc35d2528f15b1b4425c13f9c979a6964736f6c63430008120033",
					"opcodes": "PUSH1 0x80 PUSH1 0x40 MSTORE CALLER PUSH1 0x0 DUP1 PUSH2 0x100 EXP DUP2 SLOAD DUP2 PUSH20 0xFFFFFFFFFFFFFFFFFFFFFFFFFFFFFFFFFFFFFFFF MUL NOT AND SWAP1 DUP4 PUSH20 0xFFFFFFFFFFFFFFFFFFFFFFFFFFFFFFFFFFFFFFFF AND MUL OR SWAP1 SSTORE POP PUSH2 0x471 DUP1 PUSH2 0x53 PUSH1 0x0 CODECOPY PUSH1 0x0 RETURN INVALID PUSH1 0x80 PUSH1 0x40 MSTORE PUSH1 0x4 CALLDATASIZE LT PUSH2 0x59 JUMPI PUSH1 0x0 CALLDATALOAD PUSH1 0xE0 SHR DUP1 PUSH4 0x26B85EE1 EQ PUSH2 0x62 JUMPI DUP1 PUSH4 0x300EFA65 EQ PUSH2 0x8D JUMPI DUP1 PUSH4 0x30DF47AF EQ PUSH2 0xB8 JUMPI DUP1 PUSH4 0x76A54C60 EQ PUSH2 0xD4 JUMPI DUP1 PUSH4 0xD0E30DB0 EQ PUSH2 0xF0 JUMPI DUP1 PUSH4 0xD9E8CF91 EQ PUSH2 0xFA JUMPI PUSH2 0x60 JUMP JUMPDEST CALLDATASIZE PUSH2 0x60 JUMPI STOP JUMPDEST STOP JUMPDEST CALLVALUE DUP1 ISZERO PUSH2 0x6E JUMPI PUSH1 0x0 DUP1 REVERT JUMPDEST POP PUSH2 0x77 PUSH2 0x116 JUMP JUMPDEST PUSH1 0x40 MLOAD PUSH2 0x84 SWAP2 SWAP1 PUSH2 0x2CB JUMP JUMPDEST PUSH1 0x40 MLOAD DUP1 SWAP2 SUB SWAP1 RETURN JUMPDEST CALLVALUE DUP1 ISZERO PUSH2 0x99 JUMPI PUSH1 0x0 DUP1 REVERT JUMPDEST POP PUSH2 0xA2 PUSH2 0x13A JUMP JUMPDEST PUSH1 0x40 MLOAD PUSH2 0xAF SWAP2 SWAP1 PUSH2 0x2FF JUMP JUMPDEST PUSH1 0x40 MLOAD DUP1 SWAP2 SUB SWAP1 RETURN JUMPDEST PUSH2 0xD2 PUSH1 0x4 DUP1 CALLDATASIZE SUB DUP2 ADD SWAP1 PUSH2 0xCD SWAP2 SWAP1 PUSH2 0x34B JUMP JUMPDEST PUSH2 0x147 JUMP JUMPDEST STOP JUMPDEST PUSH2 0xEE PUSH1 0x4 DUP1 CALLDATASIZE SUB DUP2 ADD SWAP1 PUSH2 0xE9 SWAP2 SWAP1 PUSH2 0x34B JUMP JUMPDEST PUSH2 0x191 JUMP JUMPDEST STOP JUMPDEST PUSH2 0xF8 PUSH2 0x20E JUMP JUMPDEST STOP JUMPDEST PUSH2 0x114 PUSH1 0x4 DUP1 CALLDATASIZE SUB DUP2 ADD SWAP1 PUSH2 0x10F SWAP2 SWAP1 PUSH2 0x34B JUMP JUMPDEST PUSH2 0x210 JUMP JUMPDEST STOP JUMPDEST PUSH1 0x0 DUP1 SLOAD SWAP1 PUSH2 0x100 EXP SWAP1 DIV PUSH20 0xFFFFFFFFFFFFFFFFFFFFFFFFFFFFFFFFFFFFFFFF AND DUP2 JUMP JUMPDEST PUSH1 0x0 DUP1 SELFBALANCE SWAP1 POP DUP1 SWAP2 POP POP SWAP1 JUMP JUMPDEST DUP1 PUSH20 0xFFFFFFFFFFFFFFFFFFFFFFFFFFFFFFFFFFFFFFFF AND PUSH2 0x8FC CALLVALUE SWAP1 DUP2 ISZERO MUL SWAP1 PUSH1 0x40 MLOAD PUSH1 0x0 PUSH1 0x40 MLOAD DUP1 DUP4 SUB DUP2 DUP6 DUP9 DUP9 CALL SWAP4 POP POP POP POP ISZERO DUP1 ISZERO PUSH2 0x18D JUMPI RETURNDATASIZE PUSH1 0x0 DUP1 RETURNDATACOPY RETURNDATASIZE PUSH1 0x0 REVERT JUMPDEST POP POP JUMP JUMPDEST PUSH1 0x0 DUP2 PUSH20 0xFFFFFFFFFFFFFFFFFFFFFFFFFFFFFFFFFFFFFFFF AND PUSH2 0x8FC CALLVALUE SWAP1 DUP2 ISZERO MUL SWAP1 PUSH1 0x40 MLOAD PUSH1 0x0 PUSH1 0x40 MLOAD DUP1 DUP4 SUB DUP2 DUP6 DUP9 DUP9 CALL SWAP4 POP POP POP POP SWAP1 POP DUP1 PUSH2 0x20A JUMPI PUSH1 0x40 MLOAD PUSH32 0x8C379A000000000000000000000000000000000000000000000000000000000 DUP2 MSTORE PUSH1 0x4 ADD PUSH2 0x201 SWAP1 PUSH2 0x3D5 JUMP JUMPDEST PUSH1 0x40 MLOAD DUP1 SWAP2 SUB SWAP1 REVERT JUMPDEST POP POP JUMP JUMPDEST JUMP JUMPDEST PUSH1 0x0 DUP2 PUSH20 0xFFFFFFFFFFFFFFFFFFFFFFFFFFFFFFFFFFFFFFFF AND CALLVALUE PUSH1 0x40 MLOAD PUSH2 0x236 SWAP1 PUSH2 0x426 JUMP JUMPDEST PUSH1 0x0 PUSH1 0x40 MLOAD DUP1 DUP4 SUB DUP2 DUP6 DUP8 GAS CALL SWAP3 POP POP POP RETURNDATASIZE DUP1 PUSH1 0x0 DUP2 EQ PUSH2 0x273 JUMPI PUSH1 0x40 MLOAD SWAP2 POP PUSH1 0x1F NOT PUSH1 0x3F RETURNDATASIZE ADD AND DUP3 ADD PUSH1 0x40 MSTORE RETURNDATASIZE DUP3 MSTORE RETURNDATASIZE PUSH1 0x0 PUSH1 0x20 DUP5 ADD RETURNDATACOPY PUSH2 0x278 JUMP JUMPDEST PUSH1 0x60 SWAP2 POP JUMPDEST POP POP SWAP1 POP DUP1 PUSH2 0x286 JUMPI PUSH1 0x0 DUP1 REVERT JUMPDEST POP POP JUMP JUMPDEST PUSH1 0x0 PUSH20 0xFFFFFFFFFFFFFFFFFFFFFFFFFFFFFFFFFFFFFFFF DUP3 AND SWAP1 POP SWAP2 SWAP1 POP JUMP JUMPDEST PUSH1 0x0 PUSH2 0x2B5 DUP3 PUSH2 0x28A JUMP JUMPDEST SWAP1 POP SWAP2 SWAP1 POP JUMP JUMPDEST PUSH2 0x2C5 DUP2 PUSH2 0x2AA JUMP JUMPDEST DUP3 MSTORE POP POP JUMP JUMPDEST PUSH1 0x0 PUSH1 0x20 DUP3 ADD SWAP1 POP PUSH2 0x2E0 PUSH1 0x0 DUP4 ADD DUP5 PUSH2 0x2BC JUMP JUMPDEST SWAP3 SWAP2 POP POP JUMP JUMPDEST PUSH1 0x0 DUP2 SWAP1 POP SWAP2 SWAP1 POP JUMP JUMPDEST PUSH2 0x2F9 DUP2 PUSH2 0x2E6 JUMP JUMPDEST DUP3 MSTORE POP POP JUMP JUMPDEST PUSH1 0x0 PUSH1 0x20 DUP3 ADD SWAP1 POP PUSH2 0x314 PUSH1 0x0 DUP4 ADD DUP5 PUSH2 0x2F0 JUMP JUMPDEST SWAP3 SWAP2 POP POP JUMP JUMPDEST PUSH1 0x0 DUP1 REVERT JUMPDEST PUSH2 0x328 DUP2 PUSH2 0x2AA JUMP JUMPDEST DUP2 EQ PUSH2 0x333 JUMPI PUSH1 0x0 DUP1 REVERT JUMPDEST POP JUMP JUMPDEST PUSH1 0x0 DUP2 CALLDATALOAD SWAP1 POP PUSH2 0x345 DUP2 PUSH2 0x31F JUMP JUMPDEST SWAP3 SWAP2 POP POP JUMP JUMPDEST PUSH1 0x0 PUSH1 0x20 DUP3 DUP5 SUB SLT ISZERO PUSH2 0x361 JUMPI PUSH2 0x360 PUSH2 0x31A JUMP JUMPDEST JUMPDEST PUSH1 0x0 PUSH2 0x36F DUP5 DUP3 DUP6 ADD PUSH2 0x336 JUMP JUMPDEST SWAP2 POP POP SWAP3 SWAP2 POP POP JUMP JUMPDEST PUSH1 0x0 DUP3 DUP3 MSTORE PUSH1 0x20 DUP3 ADD SWAP1 POP SWAP3 SWAP2 POP POP JUMP JUMPDEST PUSH32 0x4661696C656420746F2073656E64000000000000000000000000000000000000 PUSH1 0x0 DUP3 ADD MSTORE POP JUMP JUMPDEST PUSH1 0x0 PUSH2 0x3BF PUSH1 0xE DUP4 PUSH2 0x378 JUMP JUMPDEST SWAP2 POP PUSH2 0x3CA DUP3 PUSH2 0x389 JUMP JUMPDEST PUSH1 0x20 DUP3 ADD SWAP1 POP SWAP2 SWAP1 POP JUMP JUMPDEST PUSH1 0x0 PUSH1 0x20 DUP3 ADD SWAP1 POP DUP2 DUP2 SUB PUSH1 0x0 DUP4 ADD MSTORE PUSH2 0x3EE DUP2 PUSH2 0x3B2 JUMP JUMPDEST SWAP1 POP SWAP2 SWAP1 POP JUMP JUMPDEST PUSH1 0x0 DUP2 SWAP1 POP SWAP3 SWAP2 POP POP JUMP JUMPDEST POP JUMP JUMPDEST PUSH1 0x0 PUSH2 0x410 PUSH1 0x0 DUP4 PUSH2 0x3F5 JUMP JUMPDEST SWAP2 POP PUSH2 0x41B DUP3 PUSH2 0x400 JUMP JUMPDEST PUSH1 0x0 DUP3 ADD SWAP1 POP SWAP2 SWAP1 POP JUMP JUMPDEST PUSH1 0x0 PUSH2 0x431 DUP3 PUSH2 0x403 JUMP JUMPDEST SWAP2 POP DUP2 SWAP1 POP SWAP2 SWAP1 POP JUMP INVALID LOG2 PUSH5 0x6970667358 0x22 SLT KECCAK256 0xE9 0xA8 NUMBER 0xBE 0xE XOR DUP5 0x21 DUP4 JUMP 0xA7 0x2A JUMP 0xBE 0xD0 PUSH7 0x4BC35D2528F15B SHL PREVRANDAO 0x25 0xC1 EXTCODEHASH SWAP13 SWAP8 SWAP11 PUSH10 0x64736F6C634300081200 CALLER "
				},
				"gasEstimates": {
					"creation": {
						"codeDepositCost": "227400",
						"executionCost": "24511",
						"totalCost": "251911"
					},
					"external": {
						"": "195",
						"callEth(address)": "infinite",
						"deposit()": "186",
						"getThisContractBalance()": "352",
						"myAddress()": "2489",
						"sendEth(address)": "infinite",
						"transferEth(address)": "infinite"
					}
				},
				"methodIdentifiers": {
					"callEth(address)": "d9e8cf91",
					"deposit()": "d0e30db0",
					"getThisContractBalance()": "300efa65",
					"myAddress()": "26b85ee1",
					"sendEth(address)": "76a54c60",
					"transferEth(address)": "30df47af"
				}
			},
			"storageLayout": {
				"storage": [
					{
						"astId": 3,
						"contract": "MyPayable.sol:MyPayable",
						"label": "myAddress",
						"offset": 0,
						"slot": "0",
						"type": "t_address_payable"
					}
				],
				"types": {
					"t_address_payable": {
						"encoding": "inplace",
						"label": "address payable",
						"numberOfBytes": "20"
					}
				}
			},
			"userdoc": {
				"kind": "user",
				"methods": {},
				"version": 1
			}
		}
	}
}