{
	"MyModifiers.sol": {
		"MyModifier": {
			"abi": [
				{
					"inputs": [],
					"stateMutability": "nonpayable",
					"type": "constructor"
				},
				{
					"inputs": [],
					"name": "addToNum",
					"outputs": [],
					"stateMutability": "nonpayable",
					"type": "function"
				},
				{
					"inputs": [],
					"name": "myNum",
					"outputs": [
						{
							"internalType": "uint256",
							"name": "",
							"type": "uint256"
						}
					],
					"stateMutability": "view",
					"type": "function"
				},
				{
					"inputs": [],
					"name": "owner",
					"outputs": [
						{
							"internalType": "address",
							"name": "",
							"type": "address"
						}
					],
					"stateMutability": "view",
					"type": "function"
				},
				{
					"inputs": [],
					"name": "paused",
					"outputs": [
						{
							"internalType": "bool",
							"name": "",
							"type": "bool"
						}
					],
					"stateMutability": "view",
					"type": "function"
				},
				{
					"inputs": [],
					"name": "setPaused",
					"outputs": [],
					"stateMutability": "nonpayable",
					"type": "function"
				},
				{
					"inputs": [],
					"name": "subFromNum",
					"outputs": [],
					"stateMutability": "nonpayable",
					"type": "function"
				}
			],
			"devdoc": {
				"kind": "dev",
				"methods": {},
				"version": 1
			},
			"evm": {
				"assembly": "    /* \"MyModifiers.sol\":58:683  contract MyModifier {... */\n  mstore(0x40, 0x80)\n    /* \"MyModifiers.sol\":107:108  0 */\n  0x00\n    /* \"MyModifiers.sol\":84:108  uint256 public myNum = 0 */\n  dup1\n  sstore\n    /* \"MyModifiers.sol\":136:141  false */\n  0x00\n    /* \"MyModifiers.sol\":115:141  bool public paused = false */\n  0x01\n  exp(0x0100, 0x00)\n  dup2\n  sload\n  dup2\n  0xff\n  mul\n  not\n  and\n  swap1\n  dup4\n  iszero\n  iszero\n  mul\n  or\n  swap1\n  sstore\n  pop\n    /* \"MyModifiers.sol\":177:236  constructor() {... */\n  callvalue\n  dup1\n  iszero\n  tag_1\n  jumpi\n  0x00\n  dup1\n  revert\ntag_1:\n  pop\n    /* \"MyModifiers.sol\":217:227  msg.sender */\n  caller\n    /* \"MyModifiers.sol\":201:206  owner */\n  0x01\n  dup1\n    /* \"MyModifiers.sol\":201:228  owner = address(msg.sender) */\n  0x0100\n  exp\n  dup2\n  sload\n  dup2\n  0xffffffffffffffffffffffffffffffffffffffff\n  mul\n  not\n  and\n  swap1\n  dup4\n  0xffffffffffffffffffffffffffffffffffffffff\n  and\n  mul\n  or\n  swap1\n  sstore\n  pop\n    /* \"MyModifiers.sol\":58:683  contract MyModifier {... */\n  dataSize(sub_0)\n  dup1\n  dataOffset(sub_0)\n  0x00\n  codecopy\n  0x00\n  return\nstop\n\nsub_0: assembly {\n        /* \"MyModifiers.sol\":58:683  contract MyModifier {... */\n      mstore(0x40, 0x80)\n      callvalue\n      dup1\n      iszero\n      tag_1\n      jumpi\n      0x00\n      dup1\n      revert\n    tag_1:\n      pop\n      jumpi(tag_2, lt(calldatasize, 0x04))\n      shr(0xe0, calldataload(0x00))\n      dup1\n      0x37a66d85\n      eq\n      tag_3\n      jumpi\n      dup1\n      0x5c975abb\n      eq\n      tag_4\n      jumpi\n      dup1\n      0x84f60a23\n      eq\n      tag_5\n      jumpi\n      dup1\n      0x8a416c64\n      eq\n      tag_6\n      jumpi\n      dup1\n      0x8da5cb5b\n      eq\n      tag_7\n      jumpi\n      dup1\n      0xd4da005a\n      eq\n      tag_8\n      jumpi\n    tag_2:\n      0x00\n      dup1\n      revert\n        /* \"MyModifiers.sol\":460:521  function setPaused () public {... */\n    tag_3:\n      tag_9\n      tag_10\n      jump\t// in\n    tag_9:\n      stop\n        /* \"MyModifiers.sol\":115:141  bool public paused = false */\n    tag_4:\n      tag_11\n      tag_12\n      jump\t// in\n    tag_11:\n      mload(0x40)\n      tag_13\n      swap2\n      swap1\n      tag_14\n      jump\t// in\n    tag_13:\n      mload(0x40)\n      dup1\n      swap2\n      sub\n      swap1\n      return\n        /* \"MyModifiers.sol\":528:602  function addToNum() public isNotPaused onlyOwner{... */\n    tag_5:\n      tag_15\n      tag_16\n      jump\t// in\n    tag_15:\n      stop\n        /* \"MyModifiers.sol\":604:680  function subFromNum() public isNotPaused onlyOwner{... */\n    tag_6:\n      tag_17\n      tag_18\n      jump\t// in\n    tag_17:\n      stop\n        /* \"MyModifiers.sol\":148:168  address public owner */\n    tag_7:\n      tag_19\n      tag_20\n      jump\t// in\n    tag_19:\n      mload(0x40)\n      tag_21\n      swap2\n      swap1\n      tag_22\n      jump\t// in\n    tag_21:\n      mload(0x40)\n      dup1\n      swap2\n      sub\n      swap1\n      return\n        /* \"MyModifiers.sol\":84:108  uint256 public myNum = 0 */\n    tag_8:\n      tag_23\n      tag_24\n      jump\t// in\n    tag_23:\n      mload(0x40)\n      tag_25\n      swap2\n      swap1\n      tag_26\n      jump\t// in\n    tag_25:\n      mload(0x40)\n      dup1\n      swap2\n      sub\n      swap1\n      return\n        /* \"MyModifiers.sol\":460:521  function setPaused () public {... */\n    tag_10:\n        /* \"MyModifiers.sol\":509:513  true */\n      0x01\n        /* \"MyModifiers.sol\":500:506  paused */\n      dup1\n      0x00\n        /* \"MyModifiers.sol\":500:513  paused = true */\n      0x0100\n      exp\n      dup2\n      sload\n      dup2\n      0xff\n      mul\n      not\n      and\n      swap1\n      dup4\n      iszero\n      iszero\n      mul\n      or\n      swap1\n      sstore\n      pop\n        /* \"MyModifiers.sol\":460:521  function setPaused () public {... */\n      jump\t// out\n        /* \"MyModifiers.sol\":115:141  bool public paused = false */\n    tag_12:\n      0x01\n      0x00\n      swap1\n      sload\n      swap1\n      0x0100\n      exp\n      swap1\n      div\n      0xff\n      and\n      dup2\n      jump\t// out\n        /* \"MyModifiers.sol\":528:602  function addToNum() public isNotPaused onlyOwner{... */\n    tag_16:\n        /* \"MyModifiers.sol\":298:303  false */\n      0x00\n        /* \"MyModifiers.sol\":288:303  paused == false */\n      iszero\n      iszero\n        /* \"MyModifiers.sol\":288:294  paused */\n      0x01\n      0x00\n      swap1\n      sload\n      swap1\n      0x0100\n      exp\n      swap1\n      div\n      0xff\n      and\n        /* \"MyModifiers.sol\":288:303  paused == false */\n      iszero\n      iszero\n      eq\n        /* \"MyModifiers.sol\":280:326  require(paused == false, \"contract is paused\") */\n      tag_29\n      jumpi\n      mload(0x40)\n      0x08c379a000000000000000000000000000000000000000000000000000000000\n      dup2\n      mstore\n      0x04\n      add\n      tag_30\n      swap1\n      tag_31\n      jump\t// in\n    tag_30:\n      mload(0x40)\n      dup1\n      swap2\n      sub\n      swap1\n      revert\n    tag_29:\n        /* \"MyModifiers.sol\":409:414  owner */\n      0x01\n      dup1\n      sload\n      swap1\n      0x0100\n      exp\n      swap1\n      div\n      0xffffffffffffffffffffffffffffffffffffffff\n      and\n        /* \"MyModifiers.sol\":395:414  msg.sender == owner */\n      0xffffffffffffffffffffffffffffffffffffffff\n      and\n        /* \"MyModifiers.sol\":395:405  msg.sender */\n      caller\n        /* \"MyModifiers.sol\":395:414  msg.sender == owner */\n      0xffffffffffffffffffffffffffffffffffffffff\n      and\n      eq\n        /* \"MyModifiers.sol\":387:432  require(msg.sender == owner, \"Not the owner\") */\n      tag_33\n      jumpi\n      mload(0x40)\n      0x08c379a000000000000000000000000000000000000000000000000000000000\n      dup2\n      mstore\n      0x04\n      add\n      tag_34\n      swap1\n      tag_35\n      jump\t// in\n    tag_34:\n      mload(0x40)\n      dup1\n      swap2\n      sub\n      swap1\n      revert\n    tag_33:\n        /* \"MyModifiers.sol\":588:593  myNum */\n      0x00\n      dup1\n        /* \"MyModifiers.sol\":588:595  myNum++ */\n      dup2\n      sload\n      dup1\n      swap3\n      swap2\n      swap1\n      tag_37\n      swap1\n      tag_38\n      jump\t// in\n    tag_37:\n      swap2\n      swap1\n      pop\n      sstore\n      pop\n        /* \"MyModifiers.sol\":528:602  function addToNum() public isNotPaused onlyOwner{... */\n      jump\t// out\n        /* \"MyModifiers.sol\":604:680  function subFromNum() public isNotPaused onlyOwner{... */\n    tag_18:\n        /* \"MyModifiers.sol\":298:303  false */\n      0x00\n        /* \"MyModifiers.sol\":288:303  paused == false */\n      iszero\n      iszero\n        /* \"MyModifiers.sol\":288:294  paused */\n      0x01\n      0x00\n      swap1\n      sload\n      swap1\n      0x0100\n      exp\n      swap1\n      div\n      0xff\n      and\n        /* \"MyModifiers.sol\":288:303  paused == false */\n      iszero\n      iszero\n      eq\n        /* \"MyModifiers.sol\":280:326  require(paused == false, \"contract is paused\") */\n      tag_40\n      jumpi\n      mload(0x40)\n      0x08c379a000000000000000000000000000000000000000000000000000000000\n      dup2\n      mstore\n      0x04\n      add\n      tag_41\n      swap1\n      tag_31\n      jump\t// in\n    tag_41:\n      mload(0x40)\n      dup1\n      swap2\n      sub\n      swap1\n      revert\n    tag_40:\n        /* \"MyModifiers.sol\":409:414  owner */\n      0x01\n      dup1\n      sload\n      swap1\n      0x0100\n      exp\n      swap1\n      div\n      0xffffffffffffffffffffffffffffffffffffffff\n      and\n        /* \"MyModifiers.sol\":395:414  msg.sender == owner */\n      0xffffffffffffffffffffffffffffffffffffffff\n      and\n        /* \"MyModifiers.sol\":395:405  msg.sender */\n      caller\n        /* \"MyModifiers.sol\":395:414  msg.sender == owner */\n      0xffffffffffffffffffffffffffffffffffffffff\n      and\n      eq\n        /* \"MyModifiers.sol\":387:432  require(msg.sender == owner, \"Not the owner\") */\n      tag_43\n      jumpi\n      mload(0x40)\n      0x08c379a000000000000000000000000000000000000000000000000000000000\n      dup2\n      mstore\n      0x04\n      add\n      tag_44\n      swap1\n      tag_35\n      jump\t// in\n    tag_44:\n      mload(0x40)\n      dup1\n      swap2\n      sub\n      swap1\n      revert\n    tag_43:\n        /* \"MyModifiers.sol\":666:671  myNum */\n      0x00\n      dup1\n        /* \"MyModifiers.sol\":666:673  myNum-- */\n      dup2\n      sload\n      dup1\n      swap3\n      swap2\n      swap1\n      tag_46\n      swap1\n      tag_47\n      jump\t// in\n    tag_46:\n      swap2\n      swap1\n      pop\n      sstore\n      pop\n        /* \"MyModifiers.sol\":604:680  function subFromNum() public isNotPaused onlyOwner{... */\n      jump\t// out\n        /* \"MyModifiers.sol\":148:168  address public owner */\n    tag_20:\n      0x01\n      dup1\n      sload\n      swap1\n      0x0100\n      exp\n      swap1\n      div\n      0xffffffffffffffffffffffffffffffffffffffff\n      and\n      dup2\n      jump\t// out\n        /* \"MyModifiers.sol\":84:108  uint256 public myNum = 0 */\n    tag_24:\n      sload(0x00)\n      dup2\n      jump\t// out\n        /* \"#utility.yul\":7:97   */\n    tag_48:\n        /* \"#utility.yul\":41:48   */\n      0x00\n        /* \"#utility.yul\":84:89   */\n      dup2\n        /* \"#utility.yul\":77:90   */\n      iszero\n        /* \"#utility.yul\":70:91   */\n      iszero\n        /* \"#utility.yul\":59:91   */\n      swap1\n      pop\n        /* \"#utility.yul\":7:97   */\n      swap2\n      swap1\n      pop\n      jump\t// out\n        /* \"#utility.yul\":103:212   */\n    tag_49:\n        /* \"#utility.yul\":184:205   */\n      tag_64\n        /* \"#utility.yul\":199:204   */\n      dup2\n        /* \"#utility.yul\":184:205   */\n      tag_48\n      jump\t// in\n    tag_64:\n        /* \"#utility.yul\":179:182   */\n      dup3\n        /* \"#utility.yul\":172:206   */\n      mstore\n        /* \"#utility.yul\":103:212   */\n      pop\n      pop\n      jump\t// out\n        /* \"#utility.yul\":218:428   */\n    tag_14:\n        /* \"#utility.yul\":305:309   */\n      0x00\n        /* \"#utility.yul\":343:345   */\n      0x20\n        /* \"#utility.yul\":332:341   */\n      dup3\n        /* \"#utility.yul\":328:346   */\n      add\n        /* \"#utility.yul\":320:346   */\n      swap1\n      pop\n        /* \"#utility.yul\":356:421   */\n      tag_66\n        /* \"#utility.yul\":418:419   */\n      0x00\n        /* \"#utility.yul\":407:416   */\n      dup4\n        /* \"#utility.yul\":403:420   */\n      add\n        /* \"#utility.yul\":394:400   */\n      dup5\n        /* \"#utility.yul\":356:421   */\n      tag_49\n      jump\t// in\n    tag_66:\n        /* \"#utility.yul\":218:428   */\n      swap3\n      swap2\n      pop\n      pop\n      jump\t// out\n        /* \"#utility.yul\":434:560   */\n    tag_50:\n        /* \"#utility.yul\":471:478   */\n      0x00\n        /* \"#utility.yul\":511:553   */\n      0xffffffffffffffffffffffffffffffffffffffff\n        /* \"#utility.yul\":504:509   */\n      dup3\n        /* \"#utility.yul\":500:554   */\n      and\n        /* \"#utility.yul\":489:554   */\n      swap1\n      pop\n        /* \"#utility.yul\":434:560   */\n      swap2\n      swap1\n      pop\n      jump\t// out\n        /* \"#utility.yul\":566:662   */\n    tag_51:\n        /* \"#utility.yul\":603:610   */\n      0x00\n        /* \"#utility.yul\":632:656   */\n      tag_69\n        /* \"#utility.yul\":650:655   */\n      dup3\n        /* \"#utility.yul\":632:656   */\n      tag_50\n      jump\t// in\n    tag_69:\n        /* \"#utility.yul\":621:656   */\n      swap1\n      pop\n        /* \"#utility.yul\":566:662   */\n      swap2\n      swap1\n      pop\n      jump\t// out\n        /* \"#utility.yul\":668:786   */\n    tag_52:\n        /* \"#utility.yul\":755:779   */\n      tag_71\n        /* \"#utility.yul\":773:778   */\n      dup2\n        /* \"#utility.yul\":755:779   */\n      tag_51\n      jump\t// in\n    tag_71:\n        /* \"#utility.yul\":750:753   */\n      dup3\n        /* \"#utility.yul\":743:780   */\n      mstore\n        /* \"#utility.yul\":668:786   */\n      pop\n      pop\n      jump\t// out\n        /* \"#utility.yul\":792:1014   */\n    tag_22:\n        /* \"#utility.yul\":885:889   */\n      0x00\n        /* \"#utility.yul\":923:925   */\n      0x20\n        /* \"#utility.yul\":912:921   */\n      dup3\n        /* \"#utility.yul\":908:926   */\n      add\n        /* \"#utility.yul\":900:926   */\n      swap1\n      pop\n        /* \"#utility.yul\":936:1007   */\n      tag_73\n        /* \"#utility.yul\":1004:1005   */\n      0x00\n        /* \"#utility.yul\":993:1002   */\n      dup4\n        /* \"#utility.yul\":989:1006   */\n      add\n        /* \"#utility.yul\":980:986   */\n      dup5\n        /* \"#utility.yul\":936:1007   */\n      tag_52\n      jump\t// in\n    tag_73:\n        /* \"#utility.yul\":792:1014   */\n      swap3\n      swap2\n      pop\n      pop\n      jump\t// out\n        /* \"#utility.yul\":1020:1097   */\n    tag_53:\n        /* \"#utility.yul\":1057:1064   */\n      0x00\n        /* \"#utility.yul\":1086:1091   */\n      dup2\n        /* \"#utility.yul\":1075:1091   */\n      swap1\n      pop\n        /* \"#utility.yul\":1020:1097   */\n      swap2\n      swap1\n      pop\n      jump\t// out\n        /* \"#utility.yul\":1103:1221   */\n    tag_54:\n        /* \"#utility.yul\":1190:1214   */\n      tag_76\n        /* \"#utility.yul\":1208:1213   */\n      dup2\n        /* \"#utility.yul\":1190:1214   */\n      tag_53\n      jump\t// in\n    tag_76:\n        /* \"#utility.yul\":1185:1188   */\n      dup3\n        /* \"#utility.yul\":1178:1215   */\n      mstore\n        /* \"#utility.yul\":1103:1221   */\n      pop\n      pop\n      jump\t// out\n        /* \"#utility.yul\":1227:1449   */\n    tag_26:\n        /* \"#utility.yul\":1320:1324   */\n      0x00\n        /* \"#utility.yul\":1358:1360   */\n      0x20\n        /* \"#utility.yul\":1347:1356   */\n      dup3\n        /* \"#utility.yul\":1343:1361   */\n      add\n        /* \"#utility.yul\":1335:1361   */\n      swap1\n      pop\n        /* \"#utility.yul\":1371:1442   */\n      tag_78\n        /* \"#utility.yul\":1439:1440   */\n      0x00\n        /* \"#utility.yul\":1428:1437   */\n      dup4\n        /* \"#utility.yul\":1424:1441   */\n      add\n        /* \"#utility.yul\":1415:1421   */\n      dup5\n        /* \"#utility.yul\":1371:1442   */\n      tag_54\n      jump\t// in\n    tag_78:\n        /* \"#utility.yul\":1227:1449   */\n      swap3\n      swap2\n      pop\n      pop\n      jump\t// out\n        /* \"#utility.yul\":1455:1624   */\n    tag_55:\n        /* \"#utility.yul\":1539:1550   */\n      0x00\n        /* \"#utility.yul\":1573:1579   */\n      dup3\n        /* \"#utility.yul\":1568:1571   */\n      dup3\n        /* \"#utility.yul\":1561:1580   */\n      mstore\n        /* \"#utility.yul\":1613:1617   */\n      0x20\n        /* \"#utility.yul\":1608:1611   */\n      dup3\n        /* \"#utility.yul\":1604:1618   */\n      add\n        /* \"#utility.yul\":1589:1618   */\n      swap1\n      pop\n        /* \"#utility.yul\":1455:1624   */\n      swap3\n      swap2\n      pop\n      pop\n      jump\t// out\n        /* \"#utility.yul\":1630:1798   */\n    tag_56:\n        /* \"#utility.yul\":1770:1790   */\n      0x636f6e7472616374206973207061757365640000000000000000000000000000\n        /* \"#utility.yul\":1766:1767   */\n      0x00\n        /* \"#utility.yul\":1758:1764   */\n      dup3\n        /* \"#utility.yul\":1754:1768   */\n      add\n        /* \"#utility.yul\":1747:1791   */\n      mstore\n        /* \"#utility.yul\":1630:1798   */\n      pop\n      jump\t// out\n        /* \"#utility.yul\":1804:2170   */\n    tag_57:\n        /* \"#utility.yul\":1946:1949   */\n      0x00\n        /* \"#utility.yul\":1967:2034   */\n      tag_82\n        /* \"#utility.yul\":2031:2033   */\n      0x12\n        /* \"#utility.yul\":2026:2029   */\n      dup4\n        /* \"#utility.yul\":1967:2034   */\n      tag_55\n      jump\t// in\n    tag_82:\n        /* \"#utility.yul\":1960:2034   */\n      swap2\n      pop\n        /* \"#utility.yul\":2043:2136   */\n      tag_83\n        /* \"#utility.yul\":2132:2135   */\n      dup3\n        /* \"#utility.yul\":2043:2136   */\n      tag_56\n      jump\t// in\n    tag_83:\n        /* \"#utility.yul\":2161:2163   */\n      0x20\n        /* \"#utility.yul\":2156:2159   */\n      dup3\n        /* \"#utility.yul\":2152:2164   */\n      add\n        /* \"#utility.yul\":2145:2164   */\n      swap1\n      pop\n        /* \"#utility.yul\":1804:2170   */\n      swap2\n      swap1\n      pop\n      jump\t// out\n        /* \"#utility.yul\":2176:2595   */\n    tag_31:\n        /* \"#utility.yul\":2342:2346   */\n      0x00\n        /* \"#utility.yul\":2380:2382   */\n      0x20\n        /* \"#utility.yul\":2369:2378   */\n      dup3\n        /* \"#utility.yul\":2365:2383   */\n      add\n        /* \"#utility.yul\":2357:2383   */\n      swap1\n      pop\n        /* \"#utility.yul\":2429:2438   */\n      dup2\n        /* \"#utility.yul\":2423:2427   */\n      dup2\n        /* \"#utility.yul\":2419:2439   */\n      sub\n        /* \"#utility.yul\":2415:2416   */\n      0x00\n        /* \"#utility.yul\":2404:2413   */\n      dup4\n        /* \"#utility.yul\":2400:2417   */\n      add\n        /* \"#utility.yul\":2393:2440   */\n      mstore\n        /* \"#utility.yul\":2457:2588   */\n      tag_85\n        /* \"#utility.yul\":2583:2587   */\n      dup2\n        /* \"#utility.yul\":2457:2588   */\n      tag_57\n      jump\t// in\n    tag_85:\n        /* \"#utility.yul\":2449:2588   */\n      swap1\n      pop\n        /* \"#utility.yul\":2176:2595   */\n      swap2\n      swap1\n      pop\n      jump\t// out\n        /* \"#utility.yul\":2601:2764   */\n    tag_58:\n        /* \"#utility.yul\":2741:2756   */\n      0x4e6f7420746865206f776e657200000000000000000000000000000000000000\n        /* \"#utility.yul\":2737:2738   */\n      0x00\n        /* \"#utility.yul\":2729:2735   */\n      dup3\n        /* \"#utility.yul\":2725:2739   */\n      add\n        /* \"#utility.yul\":2718:2757   */\n      mstore\n        /* \"#utility.yul\":2601:2764   */\n      pop\n      jump\t// out\n        /* \"#utility.yul\":2770:3136   */\n    tag_59:\n        /* \"#utility.yul\":2912:2915   */\n      0x00\n        /* \"#utility.yul\":2933:3000   */\n      tag_88\n        /* \"#utility.yul\":2997:2999   */\n      0x0d\n        /* \"#utility.yul\":2992:2995   */\n      dup4\n        /* \"#utility.yul\":2933:3000   */\n      tag_55\n      jump\t// in\n    tag_88:\n        /* \"#utility.yul\":2926:3000   */\n      swap2\n      pop\n        /* \"#utility.yul\":3009:3102   */\n      tag_89\n        /* \"#utility.yul\":3098:3101   */\n      dup3\n        /* \"#utility.yul\":3009:3102   */\n      tag_58\n      jump\t// in\n    tag_89:\n        /* \"#utility.yul\":3127:3129   */\n      0x20\n        /* \"#utility.yul\":3122:3125   */\n      dup3\n        /* \"#utility.yul\":3118:3130   */\n      add\n        /* \"#utility.yul\":3111:3130   */\n      swap1\n      pop\n        /* \"#utility.yul\":2770:3136   */\n      swap2\n      swap1\n      pop\n      jump\t// out\n        /* \"#utility.yul\":3142:3561   */\n    tag_35:\n        /* \"#utility.yul\":3308:3312   */\n      0x00\n        /* \"#utility.yul\":3346:3348   */\n      0x20\n        /* \"#utility.yul\":3335:3344   */\n      dup3\n        /* \"#utility.yul\":3331:3349   */\n      add\n        /* \"#utility.yul\":3323:3349   */\n      swap1\n      pop\n        /* \"#utility.yul\":3395:3404   */\n      dup2\n        /* \"#utility.yul\":3389:3393   */\n      dup2\n        /* \"#utility.yul\":3385:3405   */\n      sub\n        /* \"#utility.yul\":3381:3382   */\n      0x00\n        /* \"#utility.yul\":3370:3379   */\n      dup4\n        /* \"#utility.yul\":3366:3383   */\n      add\n        /* \"#utility.yul\":3359:3406   */\n      mstore\n        /* \"#utility.yul\":3423:3554   */\n      tag_91\n        /* \"#utility.yul\":3549:3553   */\n      dup2\n        /* \"#utility.yul\":3423:3554   */\n      tag_59\n      jump\t// in\n    tag_91:\n        /* \"#utility.yul\":3415:3554   */\n      swap1\n      pop\n        /* \"#utility.yul\":3142:3561   */\n      swap2\n      swap1\n      pop\n      jump\t// out\n        /* \"#utility.yul\":3567:3747   */\n    tag_60:\n        /* \"#utility.yul\":3615:3692   */\n      0x4e487b7100000000000000000000000000000000000000000000000000000000\n        /* \"#utility.yul\":3612:3613   */\n      0x00\n        /* \"#utility.yul\":3605:3693   */\n      mstore\n        /* \"#utility.yul\":3712:3716   */\n      0x11\n        /* \"#utility.yul\":3709:3710   */\n      0x04\n        /* \"#utility.yul\":3702:3717   */\n      mstore\n        /* \"#utility.yul\":3736:3740   */\n      0x24\n        /* \"#utility.yul\":3733:3734   */\n      0x00\n        /* \"#utility.yul\":3726:3741   */\n      revert\n        /* \"#utility.yul\":3753:3986   */\n    tag_38:\n        /* \"#utility.yul\":3792:3795   */\n      0x00\n        /* \"#utility.yul\":3815:3839   */\n      tag_94\n        /* \"#utility.yul\":3833:3838   */\n      dup3\n        /* \"#utility.yul\":3815:3839   */\n      tag_53\n      jump\t// in\n    tag_94:\n        /* \"#utility.yul\":3806:3839   */\n      swap2\n      pop\n        /* \"#utility.yul\":3861:3927   */\n      0xffffffffffffffffffffffffffffffffffffffffffffffffffffffffffffffff\n        /* \"#utility.yul\":3854:3859   */\n      dup3\n        /* \"#utility.yul\":3851:3928   */\n      sub\n        /* \"#utility.yul\":3848:3951   */\n      tag_95\n      jumpi\n        /* \"#utility.yul\":3931:3949   */\n      tag_96\n      tag_60\n      jump\t// in\n    tag_96:\n        /* \"#utility.yul\":3848:3951   */\n    tag_95:\n        /* \"#utility.yul\":3978:3979   */\n      0x01\n        /* \"#utility.yul\":3971:3976   */\n      dup3\n        /* \"#utility.yul\":3967:3980   */\n      add\n        /* \"#utility.yul\":3960:3980   */\n      swap1\n      pop\n        /* \"#utility.yul\":3753:3986   */\n      swap2\n      swap1\n      pop\n      jump\t// out\n        /* \"#utility.yul\":3992:4163   */\n    tag_47:\n        /* \"#utility.yul\":4031:4034   */\n      0x00\n        /* \"#utility.yul\":4054:4078   */\n      tag_98\n        /* \"#utility.yul\":4072:4077   */\n      dup3\n        /* \"#utility.yul\":4054:4078   */\n      tag_53\n      jump\t// in\n    tag_98:\n        /* \"#utility.yul\":4045:4078   */\n      swap2\n      pop\n        /* \"#utility.yul\":4100:4104   */\n      0x00\n        /* \"#utility.yul\":4093:4098   */\n      dup3\n        /* \"#utility.yul\":4090:4105   */\n      sub\n        /* \"#utility.yul\":4087:4128   */\n      tag_99\n      jumpi\n        /* \"#utility.yul\":4108:4126   */\n      tag_100\n      tag_60\n      jump\t// in\n    tag_100:\n        /* \"#utility.yul\":4087:4128   */\n    tag_99:\n        /* \"#utility.yul\":4155:4156   */\n      0x01\n        /* \"#utility.yul\":4148:4153   */\n      dup3\n        /* \"#utility.yul\":4144:4157   */\n      sub\n        /* \"#utility.yul\":4137:4157   */\n      swap1\n      pop\n        /* \"#utility.yul\":3992:4163   */\n      swap2\n      swap1\n      pop\n      jump\t// out\n\n    auxdata: 0xa264697066735822122077b48ea65d8d8c6667b8acce69408c16746ffaff8aea5e06dc9282c3ae28915364736f6c63430008120033\n}\n",
				"bytecode": {
					"linkReferences": {},
					"object": "6080604052600080556000600160006101000a81548160ff02191690831515021790555034801561002f57600080fd5b50336001806101000a81548173ffffffffffffffffffffffffffffffffffffffff021916908373ffffffffffffffffffffffffffffffffffffffff1602179055506105b78061007f6000396000f3fe608060405234801561001057600080fd5b50600436106100625760003560e01c806337a66d85146100675780635c975abb1461007157806384f60a231461008f5780638a416c64146100995780638da5cb5b146100a3578063d4da005a146100c1575b600080fd5b61006f6100df565b005b6100796100fb565b604051610086919061034d565b60405180910390f35b61009761010e565b005b6100a161020b565b005b6100ab610308565b6040516100b891906103a9565b60405180910390f35b6100c961032c565b6040516100d691906103dd565b60405180910390f35b60018060006101000a81548160ff021916908315150217905550565b600160009054906101000a900460ff1681565b60001515600160009054906101000a900460ff16151514610164576040517f08c379a000000000000000000000000000000000000000000000000000000000815260040161015b90610455565b60405180910390fd5b60018054906101000a900473ffffffffffffffffffffffffffffffffffffffff1673ffffffffffffffffffffffffffffffffffffffff163373ffffffffffffffffffffffffffffffffffffffff16146101f2576040517f08c379a00000000000000000000000000000000000000000000000000000000081526004016101e9906104c1565b60405180910390fd5b60008081548092919061020490610510565b9190505550565b60001515600160009054906101000a900460ff16151514610261576040517f08c379a000000000000000000000000000000000000000000000000000000000815260040161025890610455565b60405180910390fd5b60018054906101000a900473ffffffffffffffffffffffffffffffffffffffff1673ffffffffffffffffffffffffffffffffffffffff163373ffffffffffffffffffffffffffffffffffffffff16146102ef576040517f08c379a00000000000000000000000000000000000000000000000000000000081526004016102e6906104c1565b60405180910390fd5b60008081548092919061030190610558565b9190505550565b60018054906101000a900473ffffffffffffffffffffffffffffffffffffffff1681565b60005481565b60008115159050919050565b61034781610332565b82525050565b6000602082019050610362600083018461033e565b92915050565b600073ffffffffffffffffffffffffffffffffffffffff82169050919050565b600061039382610368565b9050919050565b6103a381610388565b82525050565b60006020820190506103be600083018461039a565b92915050565b6000819050919050565b6103d7816103c4565b82525050565b60006020820190506103f260008301846103ce565b92915050565b600082825260208201905092915050565b7f636f6e7472616374206973207061757365640000000000000000000000000000600082015250565b600061043f6012836103f8565b915061044a82610409565b602082019050919050565b6000602082019050818103600083015261046e81610432565b9050919050565b7f4e6f7420746865206f776e657200000000000000000000000000000000000000600082015250565b60006104ab600d836103f8565b91506104b682610475565b602082019050919050565b600060208201905081810360008301526104da8161049e565b9050919050565b7f4e487b7100000000000000000000000000000000000000000000000000000000600052601160045260246000fd5b600061051b826103c4565b91507fffffffffffffffffffffffffffffffffffffffffffffffffffffffffffffffff820361054d5761054c6104e1565b5b600182019050919050565b6000610563826103c4565b915060008203610576576105756104e1565b5b60018203905091905056fea264697066735822122077b48ea65d8d8c6667b8acce69408c16746ffaff8aea5e06dc9282c3ae28915364736f6c63430008120033",
					"opcodes": "PUSH1 0x80 PUSH1 0x40 MSTORE PUSH1 0x0 DUP1 SSTORE PUSH1 0x0 PUSH1 0x1 PUSH1 0x0 PUSH2 0x100 EXP DUP2 SLOAD DUP2 PUSH1 0xFF MUL NOT AND SWAP1 DUP4 ISZERO ISZERO MUL OR SWAP1 SSTORE POP CALLVALUE DUP1 ISZERO PUSH2 0x2F JUMPI PUSH1 0x0 DUP1 REVERT JUMPDEST POP CALLER PUSH1 0x1 DUP1 PUSH2 0x100 EXP DUP2 SLOAD DUP2 PUSH20 0xFFFFFFFFFFFFFFFFFFFFFFFFFFFFFFFFFFFFFFFF MUL NOT AND SWAP1 DUP4 PUSH20 0xFFFFFFFFFFFFFFFFFFFFFFFFFFFFFFFFFFFFFFFF AND MUL OR SWAP1 SSTORE POP PUSH2 0x5B7 DUP1 PUSH2 0x7F PUSH1 0x0 CODECOPY PUSH1 0x0 RETURN INVALID PUSH1 0x80 PUSH1 0x40 MSTORE CALLVALUE DUP1 ISZERO PUSH2 0x10 JUMPI PUSH1 0x0 DUP1 REVERT JUMPDEST POP PUSH1 0x4 CALLDATASIZE LT PUSH2 0x62 JUMPI PUSH1 0x0 CALLDATALOAD PUSH1 0xE0 SHR DUP1 PUSH4 0x37A66D85 EQ PUSH2 0x67 JUMPI DUP1 PUSH4 0x5C975ABB EQ PUSH2 0x71 JUMPI DUP1 PUSH4 0x84F60A23 EQ PUSH2 0x8F JUMPI DUP1 PUSH4 0x8A416C64 EQ PUSH2 0x99 JUMPI DUP1 PUSH4 0x8DA5CB5B EQ PUSH2 0xA3 JUMPI DUP1 PUSH4 0xD4DA005A EQ PUSH2 0xC1 JUMPI JUMPDEST PUSH1 0x0 DUP1 REVERT JUMPDEST PUSH2 0x6F PUSH2 0xDF JUMP JUMPDEST STOP JUMPDEST PUSH2 0x79 PUSH2 0xFB JUMP JUMPDEST PUSH1 0x40 MLOAD PUSH2 0x86 SWAP2 SWAP1 PUSH2 0x34D JUMP JUMPDEST PUSH1 0x40 MLOAD DUP1 SWAP2 SUB SWAP1 RETURN JUMPDEST PUSH2 0x97 PUSH2 0x10E JUMP JUMPDEST STOP JUMPDEST PUSH2 0xA1 PUSH2 0x20B JUMP JUMPDEST STOP JUMPDEST PUSH2 0xAB PUSH2 0x308 JUMP JUMPDEST PUSH1 0x40 MLOAD PUSH2 0xB8 SWAP2 SWAP1 PUSH2 0x3A9 JUMP JUMPDEST PUSH1 0x40 MLOAD DUP1 SWAP2 SUB SWAP1 RETURN JUMPDEST PUSH2 0xC9 PUSH2 0x32C JUMP JUMPDEST PUSH1 0x40 MLOAD PUSH2 0xD6 SWAP2 SWAP1 PUSH2 0x3DD JUMP JUMPDEST PUSH1 0x40 MLOAD DUP1 SWAP2 SUB SWAP1 RETURN JUMPDEST PUSH1 0x1 DUP1 PUSH1 0x0 PUSH2 0x100 EXP DUP2 SLOAD DUP2 PUSH1 0xFF MUL NOT AND SWAP1 DUP4 ISZERO ISZERO MUL OR SWAP1 SSTORE POP JUMP JUMPDEST PUSH1 0x1 PUSH1 0x0 SWAP1 SLOAD SWAP1 PUSH2 0x100 EXP SWAP1 DIV PUSH1 0xFF AND DUP2 JUMP JUMPDEST PUSH1 0x0 ISZERO ISZERO PUSH1 0x1 PUSH1 0x0 SWAP1 SLOAD SWAP1 PUSH2 0x100 EXP SWAP1 DIV PUSH1 0xFF AND ISZERO ISZERO EQ PUSH2 0x164 JUMPI PUSH1 0x40 MLOAD PUSH32 0x8C379A000000000000000000000000000000000000000000000000000000000 DUP2 MSTORE PUSH1 0x4 ADD PUSH2 0x15B SWAP1 PUSH2 0x455 JUMP JUMPDEST PUSH1 0x40 MLOAD DUP1 SWAP2 SUB SWAP1 REVERT JUMPDEST PUSH1 0x1 DUP1 SLOAD SWAP1 PUSH2 0x100 EXP SWAP1 DIV PUSH20 0xFFFFFFFFFFFFFFFFFFFFFFFFFFFFFFFFFFFFFFFF AND PUSH20 0xFFFFFFFFFFFFFFFFFFFFFFFFFFFFFFFFFFFFFFFF AND CALLER PUSH20 0xFFFFFFFFFFFFFFFFFFFFFFFFFFFFFFFFFFFFFFFF AND EQ PUSH2 0x1F2 JUMPI PUSH1 0x40 MLOAD PUSH32 0x8C379A000000000000000000000000000000000000000000000000000000000 DUP2 MSTORE PUSH1 0x4 ADD PUSH2 0x1E9 SWAP1 PUSH2 0x4C1 JUMP JUMPDEST PUSH1 0x40 MLOAD DUP1 SWAP2 SUB SWAP1 REVERT JUMPDEST PUSH1 0x0 DUP1 DUP2 SLOAD DUP1 SWAP3 SWAP2 SWAP1 PUSH2 0x204 SWAP1 PUSH2 0x510 JUMP JUMPDEST SWAP2 SWAP1 POP SSTORE POP JUMP JUMPDEST PUSH1 0x0 ISZERO ISZERO PUSH1 0x1 PUSH1 0x0 SWAP1 SLOAD SWAP1 PUSH2 0x100 EXP SWAP1 DIV PUSH1 0xFF AND ISZERO ISZERO EQ PUSH2 0x261 JUMPI PUSH1 0x40 MLOAD PUSH32 0x8C379A000000000000000000000000000000000000000000000000000000000 DUP2 MSTORE PUSH1 0x4 ADD PUSH2 0x258 SWAP1 PUSH2 0x455 JUMP JUMPDEST PUSH1 0x40 MLOAD DUP1 SWAP2 SUB SWAP1 REVERT JUMPDEST PUSH1 0x1 DUP1 SLOAD SWAP1 PUSH2 0x100 EXP SWAP1 DIV PUSH20 0xFFFFFFFFFFFFFFFFFFFFFFFFFFFFFFFFFFFFFFFF AND PUSH20 0xFFFFFFFFFFFFFFFFFFFFFFFFFFFFFFFFFFFFFFFF AND CALLER PUSH20 0xFFFFFFFFFFFFFFFFFFFFFFFFFFFFFFFFFFFFFFFF AND EQ PUSH2 0x2EF JUMPI PUSH1 0x40 MLOAD PUSH32 0x8C379A000000000000000000000000000000000000000000000000000000000 DUP2 MSTORE PUSH1 0x4 ADD PUSH2 0x2E6 SWAP1 PUSH2 0x4C1 JUMP JUMPDEST PUSH1 0x40 MLOAD DUP1 SWAP2 SUB SWAP1 REVERT JUMPDEST PUSH1 0x0 DUP1 DUP2 SLOAD DUP1 SWAP3 SWAP2 SWAP1 PUSH2 0x301 SWAP1 PUSH2 0x558 JUMP JUMPDEST SWAP2 SWAP1 POP SSTORE POP JUMP JUMPDEST PUSH1 0x1 DUP1 SLOAD SWAP1 PUSH2 0x100 EXP SWAP1 DIV PUSH20 0xFFFFFFFFFFFFFFFFFFFFFFFFFFFFFFFFFFFFFFFF AND DUP2 JUMP JUMPDEST PUSH1 0x0 SLOAD DUP2 JUMP JUMPDEST PUSH1 0x0 DUP2 ISZERO ISZERO SWAP1 POP SWAP2 SWAP1 POP JUMP JUMPDEST PUSH2 0x347 DUP2 PUSH2 0x332 JUMP JUMPDEST DUP3 MSTORE POP POP JUMP JUMPDEST PUSH1 0x0 PUSH1 0x20 DUP3 ADD SWAP1 POP PUSH2 0x362 PUSH1 0x0 DUP4 ADD DUP5 PUSH2 0x33E JUMP JUMPDEST SWAP3 SWAP2 POP POP JUMP JUMPDEST PUSH1 0x0 PUSH20 0xFFFFFFFFFFFFFFFFFFFFFFFFFFFFFFFFFFFFFFFF DUP3 AND SWAP1 POP SWAP2 SWAP1 POP JUMP JUMPDEST PUSH1 0x0 PUSH2 0x393 DUP3 PUSH2 0x368 JUMP JUMPDEST SWAP1 POP SWAP2 SWAP1 POP JUMP JUMPDEST PUSH2 0x3A3 DUP2 PUSH2 0x388 JUMP JUMPDEST DUP3 MSTORE POP POP JUMP JUMPDEST PUSH1 0x0 PUSH1 0x20 DUP3 ADD SWAP1 POP PUSH2 0x3BE PUSH1 0x0 DUP4 ADD DUP5 PUSH2 0x39A JUMP JUMPDEST SWAP3 SWAP2 POP POP JUMP JUMPDEST PUSH1 0x0 DUP2 SWAP1 POP SWAP2 SWAP1 POP JUMP JUMPDEST PUSH2 0x3D7 DUP2 PUSH2 0x3C4 JUMP JUMPDEST DUP3 MSTORE POP POP JUMP JUMPDEST PUSH1 0x0 PUSH1 0x20 DUP3 ADD SWAP1 POP PUSH2 0x3F2 PUSH1 0x0 DUP4 ADD DUP5 PUSH2 0x3CE JUMP JUMPDEST SWAP3 SWAP2 POP POP JUMP JUMPDEST PUSH1 0x0 DUP3 DUP3 MSTORE PUSH1 0x20 DUP3 ADD SWAP1 POP SWAP3 SWAP2 POP POP JUMP JUMPDEST PUSH32 0x636F6E7472616374206973207061757365640000000000000000000000000000 PUSH1 0x0 DUP3 ADD MSTORE POP JUMP JUMPDEST PUSH1 0x0 PUSH2 0x43F PUSH1 0x12 DUP4 PUSH2 0x3F8 JUMP JUMPDEST SWAP2 POP PUSH2 0x44A DUP3 PUSH2 0x409 JUMP JUMPDEST PUSH1 0x20 DUP3 ADD SWAP1 POP SWAP2 SWAP1 POP JUMP JUMPDEST PUSH1 0x0 PUSH1 0x20 DUP3 ADD SWAP1 POP DUP2 DUP2 SUB PUSH1 0x0 DUP4 ADD MSTORE PUSH2 0x46E DUP2 PUSH2 0x432 JUMP JUMPDEST SWAP1 POP SWAP2 SWAP1 POP JUMP JUMPDEST PUSH32 0x4E6F7420746865206F776E657200000000000000000000000000000000000000 PUSH1 0x0 DUP3 ADD MSTORE POP JUMP JUMPDEST PUSH1 0x0 PUSH2 0x4AB PUSH1 0xD DUP4 PUSH2 0x3F8 JUMP JUMPDEST SWAP2 POP PUSH2 0x4B6 DUP3 PUSH2 0x475 JUMP JUMPDEST PUSH1 0x20 DUP3 ADD SWAP1 POP SWAP2 SWAP1 POP JUMP JUMPDEST PUSH1 0x0 PUSH1 0x20 DUP3 ADD SWAP1 POP DUP2 DUP2 SUB PUSH1 0x0 DUP4 ADD MSTORE PUSH2 0x4DA DUP2 PUSH2 0x49E JUMP JUMPDEST SWAP1 POP SWAP2 SWAP1 POP JUMP JUMPDEST PUSH32 0x4E487B7100000000000000000000000000000000000000000000000000000000 PUSH1 0x0 MSTORE PUSH1 0x11 PUSH1 0x4 MSTORE PUSH1 0x24 PUSH1 0x0 REVERT JUMPDEST PUSH1 0x0 PUSH2 0x51B DUP3 PUSH2 0x3C4 JUMP JUMPDEST SWAP2 POP PUSH32 0xFFFFFFFFFFFFFFFFFFFFFFFFFFFFFFFFFFFFFFFFFFFFFFFFFFFFFFFFFFFFFFFF DUP3 SUB PUSH2 0x54D JUMPI PUSH2 0x54C PUSH2 0x4E1 JUMP JUMPDEST JUMPDEST PUSH1 0x1 DUP3 ADD SWAP1 POP SWAP2 SWAP1 POP JUMP JUMPDEST PUSH1 0x0 PUSH2 0x563 DUP3 PUSH2 0x3C4 JUMP JUMPDEST SWAP2 POP PUSH1 0x0 DUP3 SUB PUSH2 0x576 JUMPI PUSH2 0x575 PUSH2 0x4E1 JUMP JUMPDEST JUMPDEST PUSH1 0x1 DUP3 SUB SWAP1 POP SWAP2 SWAP1 POP JUMP INVALID LOG2 PUSH5 0x6970667358 0x22 SLT KECCAK256 PUSH24 0xB48EA65D8D8C6667B8ACCE69408C16746FFAFF8AEA5E06DC SWAP3 DUP3 0xC3 0xAE 0x28 SWAP2 MSTORE8 PUSH5 0x736F6C6343 STOP ADDMOD SLT STOP CALLER "
				},
				"gasEstimates": {
					"creation": {
						"codeDepositCost": "292600",
						"executionCost": "53920",
						"totalCost": "346520"
					},
					"external": {
						"addToNum()": "28911",
						"myNum()": "2517",
						"owner()": "2627",
						"paused()": "2471",
						"setPaused()": "24389",
						"subFromNum()": "28933"
					}
				},
				"methodIdentifiers": {
					"addToNum()": "84f60a23",
					"myNum()": "d4da005a",
					"owner()": "8da5cb5b",
					"paused()": "5c975abb",
					"setPaused()": "37a66d85",
					"subFromNum()": "8a416c64"
				}
			},
			"storageLayout": {
				"storage": [
					{
						"astId": 4,
						"contract": "MyModifiers.sol:MyModifier",
						"label": "myNum",
						"offset": 0,
						"slot": "0",
						"type": "t_uint256"
					},
					{
						"astId": 7,
						"contract": "MyModifiers.sol:MyModifier",
						"label": "paused",
						"offset": 0,
						"slot": "1",
						"type": "t_bool"
					},
					{
						"astId": 9,
						"contract": "MyModifiers.sol:MyModifier",
						"label": "owner",
						"offset": 1,
						"slot": "1",
						"type": "t_address"
					}
				],
				"types": {
					"t_address": {
						"encoding": "inplace",
						"label": "address",
						"numberOfBytes": "20"
					},
					"t_bool": {
						"encoding": "inplace",
						"label": "bool",
						"numberOfBytes": "1"
					},
					"t_uint256": {
						"encoding": "inplace",
						"label": "uint256",
						"numberOfBytes": "32"
					}
				}
			},
			"userdoc": {
				"kind": "user",
				"methods": {},
				"version": 1
			}
		}
	}
}